:020000040800F2
:10000000F0FF0220657F0608FD6303080164030812
:100010001164030821640308316403080000000030
:10002000000000000000000000000000515C040817
:100030004164030800000000055D040845640308EE
:10004000B57F0608B57F0608B57F0608B57F0608A8
:10005000B57F0608B57F060859640308B57F060812
:10006000B57F0608B57F0608B57F0608B57F060888
:10007000B57F0608B57F0608B57F0608B57F060878
:10008000B57F0608B57F0608B57F0608B57F060868
:10009000B57F0608B57F0608B57F0608B57F060858
:1000A000B57F0608B57F0608B57F0608B57F060848
:1000B000B57F0608B57F0608B57F0608B57F060838
:1000C000B57F0608B57F0608B57F0608B57F060828
:1000D000B57F0608B57F0608B57F0608B57F060818
:1000E000B57F0608B57F0608B57F0608B57F060808
:1000F000B57F0608B57F0608B57F0608B57F0608F8
:10010000B57F0608B57F0608B57F0608B57F0608E7
:10011000B57F0608B57F0608B57F0608B57F0608D7
:10012000B57F0608B57F0608B57F0608B57F0608C7
:10013000B57F0608B57F0608B57F0608B57F0608B7
:10014000B57F0608B57F0608B57F0608B57F0608A7
:10015000B57F0608B57F0608B57F0608B57F060897
:10016000B57F0608B57F0608B57F0608B57F060887
:10017000B57F0608B57F0608B57F060800000000B9
:10018000B57F0608B57F0608B57F0608B57F060867
:10019000B57F0608B57F0608B57F0608B57F060857
:0C01A000515B0308B57F0608D563030817
:1001C00010B5054C237833B9044B13B10448AFF391
:1001D00000800123237010BDE00400200000000017
:1001E0002C9F060808B5034B1BB103490348AFF326
:1001F000008008BD00000000E40400202C9F0608D9
:1002000008B500F00DF800B908BD00F0AFF900F036
:10021000D7F80028FBD1BDE8084000F0A5B800BF22
:100220002DE9F0418CB035F0F9F935F029FA3F4B62
:10023000984276D93E4C3F4846F0C8FA204635F001
:10024000B7FC3D4846F0C2FA3C4846F0BFFAD4E954
:10025000040135F07FFD384846F0B8FA384846F0DA
:10026000B5FA002046F0C4FE3649374846F0DCFEB9
:10027000314846F0ABFA354846F0A8FA002053F072
:1002800011FF002846D02C4846F0A0FA304846F02E
:100290009DFA304B0021186847F022FC20620028AC
:1002A00038D02D4D244846F091FA206A47F088FD59
:1002B00095E80600206A05F07FFE284846F086FA99
:1002C0000DF12008E3680093002211464046A36820
:1002D00048F040F90CAB13E903008DE80300002659
:1002E000079698E80C0006960296266867680597B8
:1002F00095E80300FF25CDE9035654F0F5F8606258
:1003000040B10D4846F062FA00F0FCF901200CB053
:10031000BDE8F081124846F059FA00200CB0BDE863
:10032000F081104835F0EEF984E700BF7FC84F3AFE
:10033000FC040020945515087C551508C455150873
:10034000F455150800507B00005802D024561508BB
:100350006056150800AC060804AC0608905615084F
:10036000545615088002E35D38B5114D114C00F06C
:10037000D3F9114846F02AFA686A58F0CDF9286A8C
:1003800047F048FD47F076FD204646F01FFA0B483F
:1003900046F01CFA53F056FC204646F017FA46F099
:1003A00037FE35F0E9FCBDE8384035F08FBC00BFC2
:1003B000FC0400207C551508C0561508F056150899
:1003C0002DE9F0478EB000F0A9F9814607A835F075
:1003D000D5FC061E49DD0024624F25460DF120089C
:1003E00006E0022932D0032938D00134A64213D0C6
:1003F00007992301CA18CB58D1685068926801291F
:10040000CDE90830EDD10090386A0CF09FF8013446
:10041000A64245EA0005EBD14BF09CF8044649F0B2
:100420002BF9254345EA090959EA00036CD0DFF8A6
:100430003491D9F8200005F07DFDC0B946F050FF99
:1004400047F018FD01200EB0BDE8F0871146386A6C
:1004500098E80C0005F0ACFF0543C6E700900021CA
:10046000386A0CF073F80543BFE70025D4E7002194
:100470003D48D9E9088647F033FB0AAC002305461E
:1004800063600A93C4E902330028D7D0D9F8183042
:10049000002B3ED0404605F043FD02AF00F1FF3A8D
:1004A000BAF1FF3F2CD0D9F81830022B1DD14EE005
:1004B0000D9B009394E80E00304654F00FF901466E
:1004C00028460FF053F80B9B00932A460A9B41469F
:1004D000384605F00DFB28460FF00CF80D9B0093F5
:1004E00094E80E00304657F04BFF204635F0F0FB05
:1004F0000028DDD1D9F81830022B0AF1FF3ACFD00D
:10050000404605F03DFA99E74BF074F835F040FAB3
:1005100098E7304654F090F800288FD0014602AF9B
:1005200028460FF023F8414638462A4605F0F2FCEB
:1005300097E80F0084E80F0028460EF0DBFF0D9BC4
:100540000093304694E80E0057F01AFF76E75246C3
:100550004146384605F004FB97E80F0084E80F0099
:10056000C3E700BFFC040020C0B6060870B53C4ECF
:100570003C4D3D4C304646F029F93C493C4846F05C
:1005800025F93C493C4846F021F93C493C4846F0B5
:100590001DF93C493C4846F019F929683B4846F0AA
:1005A00015F969683A4846F011F9D5E90212394857
:1005B00046F00CF9384B3948D3E9001246F006F9F9
:1005C0003749384846F002F92146374846F0FEF8E8
:1005D0002146364846F0FAF82146354846F0F6F806
:1005E0002146344846F0F2F82146334846F0EEF80A
:1005F0003249334846F0EAF83249334846F0E6F8E3
:100600003249334846F0E2F83249334846F0DEF8E2
:10061000324A3349334846F0D9F81E22092132487C
:1006200046F0D4F81E220921304846F0CFF84FF4A6
:1006300080012F4846F0CAF84FF4807211462D48C9
:1006400046F0C4F864212C4846F0C0F82B485A21E3
:1006500046F0BCF83046BDE8704046F0B7B800BF81
:1006600020571508FC0400206C5915085057150830
:10067000645715089C571508A4571508005802D050
:10068000DC57150800507B00145815084C58150805
:1006900084581508BC58150804AC0608F458150809
:1006A0002C5915083459150874591508AC591508F2
:1006B000E45915081C5A1508545A15088C5A15087F
:1006C000985A1508D05A1508D85A1508105B1508FD
:1006D000145B15084C5B1508545B15088C5B1508FA
:1006E000985B1508A45B1508DC5B1508145C1508FD
:1006F0004C5C1508845C1508BC5C1508F45C150896
:10070000704700BF08B535F051FC0248BDE808400D
:1007100035F020BC01070008704700BF002070477B
:1007200008B135F047BC35F049BC00BFB0B100B5E9
:10073000C1B000F500716A4630F8023B2BB1884227
:1007400003D002F8013B0028F6D100236946044893
:10075000137046F03BF841B05DF804FB704700BFF2
:100760002C5D150834F0CEBF84B001A880E80E00DF
:1007700004B0704782B08DE80C0002B0704700BF33
:100780000020704784B001A880E80E0004B000206B
:10079000704700BF82B010B400240DF1040CC0E912
:1007A00000445DF8044B8CE80C0002B0704700BFB9
:1007B00082B002AB03E9060002B070470022C0E934
:1007C0000022C0E9022270472C3110B404460FC940
:1007D00084E80F0020465DF8044B7047C36D81F339
:1007E00008018B4217D070B58569C16586B085B1A7
:1007F000036ADB070DD52C300FC802AC84E80F006C
:100800002B68059A0092D3F88460284694E80E007D
:10081000B04706B070BD704708B5036A13F4803363
:1008200004D0806908B119B9012008BD184608BD77
:10083000036801211B6F9847003018BF012008BDD5
:1008400082B002AB03E9060002B07047704700BFF8
:10085000704700BF01207047D0F8C000704700BF4C
:1008600000207047704700BF03689B6B184700BFAC
:1008700010B5044647F026F9044BE36040F203113B
:1008800014222162A262236010BD00BF589F060897
:1008900010B5044647F016F9044BE36040F203112B
:1008A00014222162A262236010BD00BFB89F060817
:1008B00010B5044647F006F9044BE36040F203111B
:1008C00014222162A262236010BD00BF18A0060896
:1008D00038B5044647F0F6F8142240F21B134FF4E3
:1008E0007A7508204FF0FF31A2622362064AC4F8ED
:1008F000BC100123C4E92B50E2602260C4F8B83078
:10090000C4E9303338BD00BF88A0060810B50446DE
:1009100047F0D8F8044BE36040F20311142221623F
:10092000A262236010BD00BFF8A0060810B50446FF
:1009300047F0C8F8054BE360142040F20321002281
:10094000A06221622266236010BD00BF5CA1060880
:1009500038B5044647F0B6F8142240F21B134FF4A2
:100960007A7508200121A26223624FF0FF32044B06
:10097000E360C4E91D50C4E92012236038BD00BF04
:10098000C0A1060838B5044647F09CF8174BE3674A
:10099000142040F21B12164BA06222624FF47A70B0
:1009A00008224FF4FA75C4F8FC30C4F80401C823D7
:1009B00040F20110C4F8082101220E49C4F8005188
:1009C000C4F814314FF07C554FF0FF33A4F82001E8
:1009D00084F82221C4F81C51E1602160C4F8C420CD
:1009E000C4F8C830C4F8103138BD00BF00409C4581
:1009F0000000A04024A2060810B5044647F062F8A3
:100A0000014BE360236010BD88A2060810B50446C0
:100A100047F058F8014BE360236010BDC4A20608FC
:100A200010B5044647F04EF8014BE360236010BD5B
:100A300000A3060810B5044647F044F8014BE360F4
:100A4000236010BD3CA3060810B5044647F03AF8F1
:100A5000014BE360236010BD78A3060810B504467F
:100A600047F030F8014BE360236010BDB4A30608E3
:100A700010B5044647F026F8014BE360236010BD33
:100A8000F0A3060810B5044647F01CF8014BE360DC
:100A9000236010BD2CA4060810B5044647F012F8D8
:100AA000034BE3604FF47A722262236010BD00BFF3
:100AB00078A4060810B5044647F004F8014BE3603B
:100AC000236010BDB8A4060810B5044646F0FAFF2E
:100AD0000122034B84F82420E360236010BD00BF93
:100AE000F4A4060846F0F4BF46F0F2BF46F0F0BFAB
:100AF00046F0EEBF46F0ECBF46F0EABF46F0E8BF76
:100B000046F0E6BF46F0E4BF46F0E2BF46F0E0BF85
:100B100046F0DEBF46F0DCBF46F0DABF46F0D8BF95
:100B200046F0D6BF46F0D4BF46F0D2BF46F0D0BFA5
:100B300046F0CEBF46F0CCBF46F0CABF46F0C8BFB5
:100B400046F0C6BF46F0C4BF46F0C2BF46F0C0BFC5
:100B500010B5044646F0BCFF04F19C00BDE810400F
:100B600046F0B6BF46F0B4BF46F0B2BF014B0360DB
:100B700046F0B0BF641D1508014B036046F0AABFE4
:100B8000641D1508014B036046F0A4BF641D1508E1
:100B9000014B036046F09EBF641D1508014B0360C6
:100BA00046F098BF641D1508014B036046F092BFE4
:100BB000641D1508014B036046F08CBF641D1508C9
:100BC000014B036046F086BF641D1508014B0360AE
:100BD00046F080BF641D1508014B036046F07ABFE4
:100BE000641D1508014B036046F074BF641D1508B1
:100BF000014B036046F06EBF641D1508014B036096
:100C000046F068BF641D1508014B036046F062BFE3
:100C1000641D1508014B036046F05CBF641D150898
:100C2000014B036046F056BF641D1508014B03607D
:100C300046F050BF641D1508014B036046F04ABFE3
:100C4000641D1508014B036046F044BF641D150880
:100C5000014B036046F03EBF641D1508014B036065
:100C600046F038BF641D1508014B036046F032BFE3
:100C7000641D1508014B036046F02CBF641D150868
:100C8000014B036046F026BF641D1508014B03604D
:100C900046F020BF641D1508014B036046F01ABFE3
:100CA000641D1508014B036046F014BF641D150850
:100CB00030B583B06C4605460146064A204648F0EA
:100CC00083FC94E803002A4603B0BDE8304048F0B6
:100CD000A7BC00BF353B00082DE9F041056A064678
:100CE000A80525EA020448BF21F48061B7690C43D6
:100CF0008CB065403462002F4BD015F0140F06D035
:100D000004F01403142BBA6D71D096425BD040F2FC
:100D100003431D4221D1F3693946002B50D06105B0
:100D200001D5EA0738D439466B0532D5336A344ADF
:100D300043F4006333620B6A08AC43F48043002041
:100D4000F0610B62204648F03FFC94E80300324615
:100D50000CB0BDE8F04148F063BC33680DF11008F9
:100D600040465B6D3146984798E80F000DF1200C26
:100D70008CE80F003B680B9A0092D3F884803846C9
:100D80009CE80E00C047D6E906733946C3B1002F70
:100D9000C5D10CB0BDE8F081336A194A43F4006351
:100DA00033623B6A02AC43F480433B6239462046DF
:100DB00048F00AFC94E80300324648F031FCB1697F
:100DC0000029B1D1E5E73B683146D3F888301422D9
:100DD000384698473B6801465B6E38469847B76986
:100DE000002FD6D040F203431D4294D0B5E7002A2D
:100DF0008DD13B6838465B6E31469847EFE700BFC0
:100E0000DD540008F0B5044683B0066AFFF764FFBE
:100E1000256AA06D85EA0603002836D05F0619D53D
:100E2000036815F0400114BF002240229B6D18BFDB
:100E300040219847E26C6AB1236A106902685B0638
:100E4000976D0BD5036A03F01403142B06D100220F
:100E50004021B847B54206D103B0F0BD4022002181
:100E6000B847B542F8D0236A0B4A43F400436D46B5
:100E700028462146236248F0A7FB95E80300224656
:100E800003B0BDE8F04048F0CBBBE26C002AE1D0F3
:100E90005906DFD52B46D0E7DD540008F0B50446EF
:100EA0008FB00E461546FFF7ADFFA3690BB10FB02B
:100EB000F0BD2E43F20719D5A36B009302AD04F1E8
:100EC0002C0328460ECB47F001FD95E80F000AAD34
:100ED00085E80F0023680D9A0092D3F884702046AD
:100EE00095E80E00B847A369002BE0D1B307DED523
:100EF000A36B009306AD04F12C0328460ECB47F0FC
:100F0000E5FC95E80F000AAD85E80F0023680D9A0F
:100F10000092D3F88460204695E80E00B0470FB0E9
:100F2000F0BD00BF38B5846954B1064D01E0A46935
:100F300034B12946204646F013FF0028F7D038BDCB
:100F4000002038BD30A5060884B02DE9F04107AC7B
:100F500084E80E00804600210C480B9E46F0C0FD40
:100F600008F12C0305460FCB05F1140787E80F00A5
:100F700094E80F0005F1240484E80F002E61C8F8FE
:100F80001C50BDE8F04104B0704700BF00A3060844
:100F900084B02DE9F04184B00BAE044686E80E0023
:100FA00020480F9F002146F09BFD23680022E84661
:100FB0000546E261214640465B6D984798E80F0080
:100FC00005F1140C8CE80F0096E80F0004F1440CB6
:100FD00005F1240686E80F009CE8030005F15002A5
:100FE00004F13C032F6182E8030093E8030005F15C
:100FF000480204F1340382E8030093E8030005F19A
:10100000400204F12C0382E8030093E8030005F199
:10101000380383E80300E56104B0BDE8F04104B0A3
:10102000704700BF78A3060882B02DE9F04F9DB04D
:101030000C46029126A981E80C00279B0493289B6B
:101040000890B149E0690593299BD4F828B0DDF8F0
:10105000A8800993039246F083FED0E905A5D0E964
:101060000796299B0093A9EB0A0726AB044606972F
:101070000ECB771B0EA8079747F018FCB8F1000FAE
:1010800000F0448108F1FF38B8F1030F09D8DFE818
:1010900018F00400AD01B1019F01049F079B3D467C
:1010A000DE19B8F1010F12D81BF0010F40F0B78123
:1010B0001BF0040F0BF0080300F0C081002B40F080
:1010C000BF81069B1946039B01EB03099A46CA455B
:1010D00080F2A280B542B4BF00210121D4E90636D6
:1010E000D4F814B0226A606D1F46A6EB0B06013ED1
:1010F000A2EB0702059708BF0126276D029BB2F1FC
:101100000109059A1B6A84F83410A0EB0202A7EBD0
:101110000B010798069F00F1FF3007F1FF3708BF6A
:101120004FF00109DB0507FB01F100FB02F291FB27
:10113000F6F192FBF9F20397049051442A446DD5DD
:101140000DF13008404647F087F9D4E91232059F87
:10115000D21B029F07F1440C049F98E8030007FB91
:1011600002F2039F92FBF9F2A3EB0B038CE803005E
:101170002A4407FB03F3404693FBF6F303EB0A0113
:1011800047F06AF9D4E91032059FD21B029F07F19C
:101190003C0C049F98E8030007FB02F2039F92FBBC
:1011A000F9F2A3EB0B038CE803002A4407FB03F3DB
:1011B000404693FBF6F303EB0A0147F04DF9D4E9FF
:1011C0000E32059F049C98E80300A3EB0B0B029BD7
:1011D000D21B039F343383E8030004FB02F2404632
:1011E00007FB0BFB92FBF9F29BFBF6F62A4406EB9E
:1011F0000A0147F031F998E80300029D2C3585E893
:1012000003000898DDE9061247F026F908981DB09A
:10121000BDE8F04F02B0704701215FE70DF14808CB
:10122000404647F019F998E803000DF1680888E88E
:1012300003000298036898E806009B6E9847D4E97B
:101240001212059F0498D21B00FB02F2039892FB36
:10125000F9F214ABA1EB0B012A4400FB01F1184693
:1012600091FBF6F1514447F0F7F814AB93E8030013
:1012700088E803000298036898E806005B6E9847C8
:10128000D4E910120498D21B00FB02F2039892FBDF
:10129000F9F216ABA1EB0B012A4400FB01F1184651
:1012A00091FBF6F1514447F0D7F816AB93E80300F1
:1012B00088E803000298036898E806001B6E9847C8
:1012C000D4E90E120498D21B00FB02F2039892FBA1
:1012D000F9F2A1EB0B010DF1600B2A4400FB01F1C7
:1012E000584691FBF6F1514447F0B6F89BE80300ED
:1012F000029D88E803002B6898E80600DB6D28460D
:101300009847EC617DE700BF78A30608236B009344
:10131000DDE90E8704F124030ECB10A80A9747F0ED
:10132000C5FADDE910C3D4E90912E0450B92AAEB36
:101330000100A5EB020E00F0C2800BF008021BF0CA
:10134000040715460BF0010270D02DB9002A40F0B9
:101350008580002F00F08280E16AA9EB01090399E2
:1013600001448A4605998944002A40F0B080002F44
:1013700040F0BF80002D40F0CE80069AA9EB0A090C
:10138000A9EB020909EBD9790AEB690A114602EBCC
:101390000A090A9A9A4200F088801BF010000BF0AC
:1013A00020010BF0020267D1002A60D100295ED033
:1013B000236BF61A049B73441D46099B1E44002AA6
:1013C0007AD1002866D1002966D0079BF51A7EE6FF
:1013D000059B06991BF0020FA3EB010A994612D058
:1013E000049F099EF31B07933D4670E6099E079BE9
:1013F000F51A56E6069B1946039B1BF0020F01EBFC
:1014000003099A46ECD11BF0100F0BF0200362D0B9
:10141000002B61D1049F079B3D46DE1957E6059BD3
:10142000039A991A06919946924650E60AB9002DF8
:1014300092D108FB00F090FBFCF086E7002B5FD117
:1014400026AB0FCB47F018FA069B039AC01A00EBA5
:10145000D07002EB600A03EB0A0938E6A9EB010938
:1014600008FB09F999FBFCF9A9EB080977E70A9D44
:1014700005FB0EF797FBF3FE002999D10AB9002866
:1014800096D10B9D761B0A9D05FB06F696FBF3F69F
:10149000761B8FE700293BD0079B761BF61A06EBDD
:1014A000D67605EB66055E1911E6236BF61A049BEA
:1014B00073441D46099B1E44731B079307E6E26AAB
:1014C000A9EB0209039A02449246059A9144A9EBBA
:1014D0000A0206925DE7CBB926AB0FCB47F0C2F903
:1014E000079B049AC01A00EBD07002EB60055E19EE
:1014F000EDE5002D7FF441AF069A02EB0A0948E7BB
:10150000059B06999946A3EB010AE0E5099E5CE775
:10151000079B5E19DBE5069AA9EB020A39E700BFD3
:1015200070B590B004AD044685E80600002B39D0B4
:10153000059B009302AD00F1440696E8060028469C
:10154000049B46F0BBFF95E8030086E80300059B7B
:10155000009304F13C0696E806002846049B46F0FA
:10156000ADFF95E8030086E80300059B009304F1B6
:10157000340696E806002846049B46F09FFF95E84F
:10158000030086E80300059B00932C3494E80600D2
:101590002846049B46F092FF95E8030084E8030088
:1015A00010B070BD059B009306AD00F1440393E8B5
:1015B00006002846049B46F081FF95E803000EAD27
:1015C00085E80300236895E8060020469B6E98474F
:1015D000059B009308AE04F13C0393E806003046F7
:1015E000049B46F06BFF96E8030085E80300236840
:1015F00095E8060020465B6E9847059B00930AAE6F
:1016000004F1340393E806003046049B46F056FF8D
:1016100096E8030085E80300236895E80600204665
:101620001B6E9847059B00930CAE04F12C0393E8C6
:1016300006003046049B46F041FF96E8030085E82B
:101640000300236895E80600DB6D204610B0BDE876
:1016500070401847F0B5CB6983B0044613B193F8D6
:101660003430D3BB4A6CD1F82CC0D1F848E00F6BB2
:101670009445D1E90D30D1E90F6536D09A42114633
:10168000A8BF19469342B8BF134686457246A8BF05
:1016900002467045B8BF70466145A8BF61466345C4
:1016A000B8BF6346AA42A8BF2A46A842B8BF284688
:1016B000B142A8BF3146B342B8BF3346BA42A8BF11
:1016C0003A46B842B8BF3846013000900133204650
:1016D00046F040FF204603B0F0BD0023C0E90033D0
:1016E000C0E90233204603B0F0BDAE45C6D19E42EC
:1016F000C4D1B842C2D19C45CABF194661466346AF
:101700008645CABF024672467046DDE782B02DE9C3
:10171000F04F0C469DB0E5690592D5E90567D5E91E
:10172000078926A981E80C000297A8EB0607039712
:10173000029F299B0093A9EB07070497279F089313
:1017400006970EC9289FD4F828A00797834610A8AB
:1017500047F0ACF82A9B002B67D02A9B013B032B58
:101760000BD8DFE813F00400D600DC00C700049AB1
:10177000069F0297114601EB0709012B11D81AF0B9
:10178000010F40F0E2801AF0040F0AF0080300F0A5
:10179000EB80002B40F0EA80039B059E1A4602EB8B
:1017A0000608464522DA029B4B45B4BF00230123BD
:1017B00085F83430236ADB051ED50CAD4346029A0A
:1017C000CDF800903146284646F0C4FE95E80F005B
:1017D0002C3484E80F005846DDE9031246F03CFE45
:1017E00058461DB0BDE8F04F02B07047012385F8A0
:1017F0003430236ADB05E0D40DF1500A314643460C
:10180000029ACDF80090504646F0A4FE9AE80F00E8
:1018100018AE86E80F0023681B9A0092DF6D204601
:1018200096E80E00B847E561D5E72B6B0093109F53
:10183000099705F124030ECB119F0A9712A847F0D0
:1018400035F8D5E90931029A0B91DDE912CE571A24
:10185000099A6245A6EB030600F0B6801AF0040070
:101860000AF008010AF00102029074D031B9002A8E
:1018700040F08A800298002800F08680EB6AA8EB8E
:101880000308059B33441E46079B9844002A40F0FA
:10189000A280029B002B40F0DA80002940F0EE800D
:1018A000039BA8EB0608A8EB030808EBD87806EB27
:1018B000680603EB06080A9B734500F093801AF054
:1018C000100C0AF020010AF002026CD1002A65D146
:1018D000002963D02B6BA9EB0309069B3B441846F8
:1018E0000293089B9944002A00F09980A9EB000319
:1018F000049356E7079B039A1AF0020FA3EB020624
:10190000984614D0089B069F0297DA1B04929946CA
:1019100047E7089A0499511A029191462DE7039BD3
:10192000059E1A461AF0020F02EB0608EAD11AF0D9
:10193000100F0AF0200361D0002B61D1049B069F99
:1019400002971A4602EB07092BE7079B059E9A1B95
:101950000392984625E70AB900298FD1099800FB20
:1019600006F696FBFCF681E7002B77D126AB0FCB72
:1019700046F082FF039B059AC01A00EBD07002EB81
:10198000600603EB06080CE7A8EB0308099B03FBC2
:1019900008F898FBFCF8A8EB030872E70A9B03FB26
:1019A00007F797FBFEF7002994D112B9BCF1000F9D
:1019B00090D10B9BA9EB03090A9B03FB09F999FB47
:1019C000FEF9A9EB030988E7EB6AA8EB0308059B7E
:1019D0001E44079B9844A8EB060303930A9B734598
:1019E0007FF46DAF2B6BA9EB0309069BFA18089BDC
:1019F00002929944A9EB02030493D2E6002B32D160
:101A000026AB0FCB46F02EFF049B069AC01A00EBC4
:101A1000D07002EB6002029203EB0209C1E6BCF156
:101A2000000F05D129B1049BA9EB03030293B8E68B
:101A3000F9B10299049BA9EB0109A9EB030909EB90
:101A4000D97901EB6902029203EB0209A9E60029A8
:101A50007FF426AF039B03EB06082CE7079B039A52
:101A600098469E1A9DE6089B049A9A1A02929946F5
:101A700097E6049B029A03EB020992E6039BA8EB0C
:101A8000030618E72DE9F04190B002AC84E80600A7
:101A900000F12C06054696E80C0094E8030046F099
:101AA000DFFC002843D0AF69002F49D02B6A13F028
:101AB00001023FD02B680DF1100840465B6D2946AE
:101AC000984798E80F000DF1300C8CE80F003B6848
:101AD0000F9A00923846D3F884809CE80E00C047E5
:101AE00094E80300AF690023EB6186E80300F7B1D7
:101AF0002B6ADC0716D52B6808AC20465B6D29469F
:101B0000984794E80F000CAC84E80F003B680F9AEC
:101B10000092D3F88460384694E80E00B047AF696D
:101B20002FB12B6A580502D53A6A910410D510B02E
:101B3000BDE8F08194E80300EA6186E80300D8E795
:101B400094E80300EF6186E8030010B0BDE8F0817F
:101B500043F400630CAC42F480422B6239463A6293
:101B60002046054A47F030FD94E803002A4610B0AD
:101B7000BDE8F04147F054BDDD5400082DE9F041C7
:101B800090B002AC84E8060000F13406054696E801
:101B90000C0094E8030046F063FC002843D0AF69D2
:101BA000002F49D02B6A13F001023FD02B680DF1B2
:101BB000100840465B6D2946984798E80F000DF1E4
:101BC000300C8CE80F003B680F9A00923846D3F82F
:101BD00084809CE80E00C04794E80300AF690023AE
:101BE000EB6186E80300F7B12B6ADC0716D52B689A
:101BF00008AC20465B6D2946984794E80F000CAC72
:101C000084E80F003B680F9A0092D3F8846038464E
:101C100094E80E00B047AF692FB12B6A580502D582
:101C20003A6A910410D510B0BDE8F08194E8030041
:101C3000EA6186E80300D8E794E80300EF6186E8EC
:101C4000030010B0BDE8F08143F400630CAC42F433
:101C500080422B6239463A622046054A47F0B4FC7E
:101C600094E803002A4610B0BDE8F04147F0D8BC24
:101C7000DD5400082DE9F04190B002AC84E8060084
:101C800000F13C06054696E80C0094E8030046F097
:101C9000E7FB002843D0AF69002F49D02B6A13F02F
:101CA00001023FD02B680DF1100840465B6D2946BC
:101CB000984798E80F000DF1300C8CE80F003B6856
:101CC0000F9A00923846D3F884809CE80E00C047F3
:101CD00094E80300AF690023EB6186E80300F7B1E5
:101CE0002B6ADC0716D52B6808AC20465B6D2946AD
:101CF000984794E80F000CAC84E80F003B680F9AFB
:101D00000092D3F88460384694E80E00B047AF697B
:101D10002FB12B6A580502D53A6A910410D510B03C
:101D2000BDE8F08194E80300EA6186E80300D8E7A3
:101D300094E80300EF6186E8030010B0BDE8F0818D
:101D400043F400630CAC42F480422B6239463A62A1
:101D50002046054A47F038FC94E803002A4610B0B4
:101D6000BDE8F04147F05CBCDD5400082DE9F041CE
:101D700090B002AC84E8060000F14406054696E8FF
:101D80000C0094E8030046F06BFB002843D0AF69D9
:101D9000002F49D02B6A13F001023FD02B680DF1C0
:101DA000100840465B6D2946984798E80F000DF1F2
:101DB000300C8CE80F003B680F9A00923846D3F83D
:101DC00084809CE80E00C04794E80300AF690023BC
:101DD000EB6186E80300F7B12B6ADC0716D52B68A8
:101DE00008AC20465B6D2946984794E80F000CAC80
:101DF00084E80F003B680F9A0092D3F8846038465D
:101E000094E80E00B047AF692FB12B6A580502D590
:101E10003A6A910410D510B0BDE8F08194E803004F
:101E2000EA6186E80300D8E794E80300EF6186E8FA
:101E3000030010B0BDE8F08143F400630CAC42F441
:101E400080422B6239463A622046054A47F0BCFB85
:101E500094E803002A4610B0BDE8F04147F0E0BB2B
:101E6000DD54000870B592B008AD85E80600044660
:101E700095E803008BB101ABA16B83E8050004ADCD
:101E80002C340091284694E80E0046F0D5FC95E8E5
:101E90000F0084E80F0012B070BD01A9A66B81E8A5
:101EA00005000AAD009604F12C0328460ECB46F03F
:101EB000C3FC95E80F000EAD85E80F002368119A6A
:101EC0000092DE6D204695E80E00B04712B070BD5E
:101ED00084B02DE9F04188B00FAC00F12C0584E806
:101EE0000E00064695E80F008DE80F0094E80F00FD
:101EF00046F052FB002840D0D6F818C0BCF1000FC5
:101F000047D0376A17F0010E3CD095E80F0004AFB8
:101F100087E80F00DCF80030079A00926046D3F89B
:101F2000848097E80E00C04794E80F00D6F818C0E8
:101F30000024F46185E80F00BCF1000F1DD0376A62
:101F4000F90714D595E80F0004AC84E80F00DCF81D
:101F50000030079A0092D3F88450604694E80E004F
:101F6000A847D6F818C0BCF1000F06D0376A7A052A
:101F700003D5DCF820309B0416D508B0BDE8F0414D
:101F800004B0704794E80F00C6F81CE085E80F0025
:101F9000D6E794E80F00C6F81CC085E80F0008B02B
:101FA000BDE8F04104B0704747F400673762DCF8E1
:101FB0002030094A43F4804304AC61462046CCF803
:101FC000203047F001FB94E80300324608B0BDE83A
:101FD000F04104B047F024BBDD54000882B02DE985
:101FE000F04397B00446249DC06D9DF8946005FBB6
:101FF00000000F461EA981E80C00051216B1266AE2
:10200000C6F34006A36C002B3BD0FF22EBB2114677
:10201000104644F023FA1090A06C0FF027FA22AB80
:1020200093E8030001ABD4F84880A26B83E8030077
:1020300012AD00922C3494E80E00284646F0FCFBCA
:10204000264A109B0D9692E8030007AACDE90B33B0
:10205000CDE9093382E8030095E80F0003AC219D28
:1020600084E80F000026CDF80480029600951EAB90
:1020700038460ECB0DF0C4FD17B0BDE8F04302B0FA
:102080007047236B00930DF138090DF1880848461D
:1020900098E80600E36A46F011FA1EAB0FCB0DF18B
:1020A000480C8CE80F0099E8030010AB83E80300AC
:1020B00088E8030016AB13E9030020AB83E80300B4
:1020C0002368CDE924561D6E9CE80C003946204655
:1020D000AC4617B0BDE8F04302B06047D0A5060893
:1020E00082B070B586B00EAC05460E4694E803008B
:1020F0000AAC84E80C00109A04929DF844300593D1
:1021000002AA82E803000CAB93E803008DE8030009
:102110003146D4E900232846FFF760FF06B0BDE84A
:10212000704002B0704700BF82B070B586B00EAC90
:1021300005460E4694E803000AAC84E80C00109AA9
:1021400004929DF84430059302AA82E803000CAB88
:1021500093E803008DE803003146D4E900232846C4
:10216000FFF73CFF06B0BDE8704002B0704700BF0B
:1021700082B02DE9F04FADB0C46B9DF8F40008902B
:102180000DF1300936A880E80C000023C9F80430AE
:102190000C93C9E90233002C00F09D8014AB099127
:1021A0004FF00108079301AD4EE0DA0749D55B0512
:1021B00072D5B8F1000F44D0226818AE3046526D87
:1021C00021460DF1E80B90479BE8030085E80300EA
:1021D0000DF1700A96E80E001B9E0096504646F0E0
:1021E0002BFB99E80F0085E80F009AE80E0010AE6F
:1021F0001F9F3046009746F02FFA96E80F0046F0F2
:1022000001FAF0B996E80F0028AE86E80F009BE8C7
:1022100003000AAB83E80300089AD4F800C00592D3
:1022200002AB3C9A049283E803002CAB13E9030051
:102230008DE80300099996E80C002046DCF8406020
:10224000B0472469002C46D0236A9905ADD52449AE
:10225000204645F085FD3AAB804693E8030085E8CB
:102260000300D8F83830079E009308F12C0330465D
:102270000ECB46F0E1FA96E80F00399E85E80F0094
:10228000009636AB0ECB484646F0E6F9D8F820204B
:10229000236A02F0010888E7226820AE3046526DBA
:1022A00021460DF1E80B90479BE8030085E8030009
:1022B0000DF1900A96E80E00239E0096504646F0D7
:1022C000BBFA36AB0FCB85E80F0010AE9AE80E00D4
:1022D0003046279F8EE72DB0BDE8F04F02B0704723
:1022E0005CA1060884B02DE9F04FA9B00CAE056DD5
:1022F000046C82460DF1CC0B002070600C90C6E996
:1023000002008BE80E00002D00F0DA806B69002BD4
:1023100043D001230B930AF12C0797E80F0001AD7E
:10232000079585E80F00369B00930DF15008404655
:102330009BE80E0046F090F998E80F0046F062F92D
:102340000546002840F0B98097E80300079A369BBD
:1023500082E8030000939BE80E00584646F056FAC8
:10236000002C00F0AA80DFF898810895CDF828A00D
:10237000236A5F0502D5002D00F08880A54265D054
:1023800003EA0802182A0ED06469002CF0D10898DC
:1023900029B0BDE8F04F04B07047EB691B1A18BFB5
:1023A00001230B93B7E7DA0307D50A9BDB6C1B69A4
:1023B000A342E9D10B9B002BE6D123680DF1400924
:1023C0005B6D484621469847236A399AA24208BF66
:1023D00000225B05099240D596E80F00079F87E829
:1023E0000F00139B00930DF1700A504699E80E0000
:1023F00046F032F99AE80F0046F004F90028C3D1FC
:1024000096E80F000DF1900C8CE80F00279A2368D6
:1024100000923A9A0492099A0392389A0292379A51
:102420000192D3F8489020469CE80E00C8476469A2
:102430000028AAD0089A436922B152699A4258DD0D
:10244000002BA2DB0890002BA1D09EE70022C6E95A
:102450000022C6E90222154692E79BE80F00079F7B
:1024600087E80F00139B00930DF1800A504699E80E
:102470000E0046F0F1F89AE80F0046F0C3F810B1EC
:10248000399BA34280D19BE80F00BBE7D4F814909E
:10249000B9F1000F0BD0D9F82020900513D44A468B
:1024A00002E0116A89050DD45269002AF9D100228F
:1024B000C6E90022C6E9022262E70023089366E724
:1024C0000B9528E79146D9F8003018AD28465B6D8A
:1024D0004946984795E80F00079F369D87E80F000B
:1024E00000959BE80E00304646F0B6F84D46236A4C
:1024F00044E708980890002B3FF449AF45E700BF38
:1025000018000600836C1A1C18BF01228A424DD0A5
:10251000F0B50D468BB0044631BB2549254A03C9A9
:1025200003F12C0686E80300184606CA0EF090FF59
:10253000A564A6698EB1236ADB070ED504F12C03CE
:102540000FCB06AD85E80F003368099A0092D3F8E7
:102550008470304695E80E00B847204600210BB045
:10256000BDE8F04047F0C6BA0021134845F0B8FA7C
:10257000A26BA06404AD009204F12C030ECB0746BD
:10258000284646F093F902AE95E8060038460EF06C
:102590005FFF30462146094AA56C47F015F896E8DA
:1025A000030005F12C0383E80300C2E7704700BF76
:1025B000A81D1508D0A50608C0B60608B52700084E
:1025C00084B02DE9F04190B017AC00F12C0584E8FF
:1025D0000E00064695E80F008DE80F0094E80F0006
:1025E00045F0DAFF20B910B0BDE8F04104B0704703
:1025F000B36B009304AF95E80E00384646F056F9E9
:102600001A9B009306AD94E80E00284646F04EF95A
:1026100095E80C0097E8030045F022FF10F0FF0F4B
:102620002DD0B06C58B195E806000EF011FF0021D6
:10263000304647F05FFA0021B06C47F05BFA1A9B16
:10264000009394E80E003046FFF742FC049B002BF9
:1026500002DD059A002A1EDC0CAD336A214A43F4E0
:10266000A04331462846336246F0AEFF95E80300AA
:10267000324610B0BDE8F04104B046F0D1BF1A9B1D
:102680000093304694E80E00FFF722FC10B0BDE83E
:10269000F04104B07047144900920DF1200806C9BA
:1026A000404645F05FFFF46B0CAD1CB9D5E72469DB
:1026B000002CD2D0E369002BF9D1A36A142BF6D0F9
:1026C000236A13F48067F2D198E80F0085E80F00C1
:1026D0000F9A2368CDE9002720469F6B95E80E00EE
:1026E000B847E4E7DD540008D0A5060882B02DE91C
:1026F000F04F2E4C95B094F800809DF894900F46C2
:102700001EA9064681E80C0022ACB8F1000F18D0D3
:1027100094E80300249B049302AACDF8149082E865
:10272000030020AB93E803008DE803001EAB0CCB45
:1027300039463046FFF752FC15B0BDE8F04F02B005
:10274000704794E8030001AD219BC5E900010DF13C
:10275000300B00931EAB0ECB584646F06DF806F1D9
:102760002C0393E803000B95C5E900010DF1400A25
:102770000F9D9BE80E005046009546F05DF89AE8E4
:102780000F00DFF82CC00B9DDCF880C6CDF814C01C
:10279000CDE908C8CDE906CC85E80F00219B009360
:1027A0001EAB0ECB38460DF009FBB1E7E831002037
:1027B000589F0608F0B5856C91B015B31E4B1B7879
:1027C000064603B305F134030FCB1C4F0CAC84E871
:1027D0000F0097E803000AABFF22012783E80300FC
:1027E000CDE9042702AB83E8030010AB13E9030033
:1027F0008DE803003368294630461D6E94E80C00CE
:10280000A84711B0F0BD0E4A0993D2F88036CDE941
:102810000733CDE9053305F1340494E80F0001AF27
:1028200087E80F002B6C0093284694E80E000DF00B
:10283000C5FAB56CC6E700BF78310020D0A5060800
:10284000589F060808B5034848F03AF8BDE8084024
:1028500044F0A4BBDCA5060808B5034848F030F8EE
:10286000BDE8084044F09ABBE4A5060808B5034853
:1028700048F026F8BDE8084044F090BBECA50608F7
:1028800008B5034848F01CF8BDE8084044F086BB92
:10289000F4A5060808B5034848F012F8BDE808405A
:1028A00044F07CBBFCA5060808B5034848F008F8CE
:1028B000BDE8084044F072BB04A6060808B503480A
:1028C00047F0FEFFBDE8084044F068BB0CA60608D0
:1028D00008B5034847F0F4FFBDE8084044F05EBB8C
:1028E00014A6060870B505460C4641B18B698342B3
:1028F0001CD10B6A03F01402142A1FD00024A86D07
:10290000A0421AD020B1036860229B6D0021984735
:10291000AC6594B12A6A236812F040029B6D204690
:1029200011D000226021BDE870401847084847F0E8
:10293000C7FFBDE8704044F031BB70BD13F4803F69
:1029400018BF0024DBE72021BDE87040184700BF16
:102950001CA60608D0F898308B4201D0FFF7C2BF02
:10296000002BFBD0704700BF84B02DE9F04792B038
:102970001BAC00F12C0584E80E00064695E80F001C
:102980008DE80F0094E80F0045F006FE20B912B064
:10299000BDE8F04704B07047B36B009304AF38460E
:1029A00095E80E0045F082FF1E9B00930DF118087C
:1029B000404694E80E0045F079FF98E80C0097E84F
:1029C000030045F04DFD336B009308AF94E806001B
:1029D000F36A5FFA80F8384645F05EFD544B97E89D
:1029E00003000CCB45F03CFD002833D0B8F1000FBC
:1029F00033D13569DDB12B6A9A0518D40DF1380849
:102A000002E02B6A980512D413F4806FC3F30023FD
:102A10000AD097E8030088E80300286898E80600D1
:102A2000D0F850902846C8472D69002DE9D106F10D
:102A3000440393E80300324646F0F2FD1E9B0093E8
:102A4000304694E80E00FFF743FA12B0BDE8F047B5
:102A500004B07047B8F1000FF0D0049B002B3FDDAD
:102A6000059B002B3CDD06F14C0393E8030001AB12
:102A7000B26B83E803000DF12808009295E80E0080
:102A8000404645F0D9FE35691DB32B6A13F4007931
:102A90001FD10EAF590517D5EB6923B11B69B3429E
:102AA00012D0C5F81C90AB6A142B3DD098E80F00EB
:102AB00087E80F00119A2B68CDE900262846D3F845
:102AC00038A097E80E00D0472D6915B12B6A9A05FA
:102AD000E0D506F1440393E80300324646F0A0FD3A
:102AE0001E9B009394E80E003046FFF7F1F9B169A0
:102AF00000293FF44CAF336A0A6A43F480533362CF
:102B000093043FF544AF0EAC42F480420A62204683
:102B1000084A46F059FD94E80300324612B0BDE879
:102B2000F04704B046F07CBD336E002BCCD0BDE73F
:102B3000D0A50608DD54000884B02DE9F04F93B00D
:102B40001DAD85E80E00002854D0DFF818918246AC
:102B500006460DF1380895E80F0045F053FD0028B2
:102B600048D1B369B76C002B49D017B307F13404CF
:102B700094E80F0099F800C088E80F00BCF1000F3E
:102B800052D0B36B00930DF1180B06F12C030ECB52
:102B9000584645F09BFE9BE80F0084E80F0094E840
:102BA0000F008DE80F0098E80F0045F0F5FC0028B5
:102BB0004ED1336ADB071DD506F12C0797E80300D9
:102BC00001AC209B84E803000DF1280B00935846CC
:102BD00095E80E0045F030FE97E80F000D9F84E861
:102BE0000F0028469BE80E00009745F035FDB669BA
:102BF000002EB0D113B0BDE8F04F04B07047B2451D
:102C0000B3D095E80F000EAC84E80F003368119A3A
:102C10002092D3F8845094E80E003046AC4613B0AE
:102C2000BDE8F04F04B0604795E80F000DF1040CCB
:102C30008CE80F003B6C00930DF1180B94E80E002C
:102C4000584645F053FD9BE80F0084E80F00A6E7C7
:102C50003046002146F04EFF3846002146F04AFF3C
:102C6000A7E700BF7831002010B5044644F02AFFE2
:102C7000034BE360236031F083FE206110BD00BF91
:102C800024A6060838B5084D044644F01BFF05F29B
:102C9000CC63E360236031F073FE05F5E165C4E9C0
:102CA0000350256038BD00BF589F060838B5084D51
:102CB000044644F007FF05F2CC63E360236031F083
:102CC0005FFE05F24475C4E90350256038BD00BFBE
:102CD000589F060838B5084D044644F0F3FE05F247
:102CE000CC63E360236031F04BFE05F5F065C4E989
:102CF0000350256038BD00BF589F060838B5084D01
:102D0000044644F0DFFE05F2CC63E360236031F05B
:102D100037FE05F2BC75C4E90350256038BD00BF1D
:102D2000589F06080D4B70B4044693E80700D4F88A
:102D300080300B4E03F18C0585E8070096E8030010
:102D400004F18C050026183383E803002246C4F8FA
:102D5000806095E8030070BC46F056BC9C1D1508C9
:102D6000A81D150800F11003024693E8030046F081
:102D70004BBC00BF84B02DE9F0478CB015AC1B9D57
:102D800084E80E000DB1854235D1D0F88430002B97
:102D900006DBD0F88020012A2DDC199A93422AD133
:102DA000836DB3F1007F26D2B3F1807F05D31999EB
:102DB0004FF480528A401A421DD0C36F1C9A1A42A7
:102DC00019D100F12C0305460FCB0DF1040C189F0F
:102DD0008CE80F0008AE0097304694E80E0045F0EE
:102DE0003BFC96E80F00DDE908A7DDE90A9845F00D
:102DF00009FC064628B100200CB0BDE8F04704B03D
:102E00007047189B009394E80E0006A845F072FDE9
:102E1000DDE906239245C8BFAAEB02069145DCBF57
:102E2000A9EB020606F1FF369F42D4BF0024FC1A2C
:102E30009845D8BFA8EB03044FF000010948D8BF5C
:102E400004F1FF3444F04CFE04FB04F306FB0633AC
:102E50000561C0E9066443610CB0BDE8F04704B009
:102E6000704700BF88A2060884B02DE9F0478CB0F7
:102E700015AD1B9C85E80E000CB1844240D1D0F802
:102E8000C830002B06DBD0F8C420012A38DC199AA0
:102E9000934235D1436FB3F1007F31D2B3F1807FDC
:102EA00005D319994FF480528A401A4228D0D0F89D
:102EB0000C311C9A1A4223D190F8213133B390F887
:102EC00022311BB91C9B13F00C0F19D100F12C03FC
:102ED00004460FCB0DF1040C189F8CE80F0008AED0
:102EE0000097304695E80E0045F0B6FB96E80F00D7
:102EF000DDE908A7DDE90A9845F084FB064648B1FC
:102F000000200CB0BDE8F04704B0704713469B07A3
:102F1000F6D1D4E7189B009395E80E0006A845F07B
:102F2000E9FCDDE906239245C8BFAAEB02069145FC
:102F3000DCBFA9EB020606F1FF369F42D4BF002595
:102F4000FD1A9845D8BFA8EB03054FF000010948CA
:102F5000D8BF05F1FF3544F0C3FD05FB05F306FBC3
:102F600006330461C0E9066543610CB0BDE8F04773
:102F700004B0704788A20608036910B5044643B937
:102F80000022054B226123602046BDE8104044F03A
:102F9000A1BD45F0A1FFF3E7641D150838B504464F
:102FA000154644F08FFD064BE36023600DB92561A3
:102FB00038BD2946204645F04BFF256138BD00BF8E
:102FC00050A7060810B50446806940B90022054B99
:102FD000A26123602046BDE8104044F07BBD48F06C
:102FE00043FAF3E7641D150810B5064B044640F894
:102FF0009C3BFFF7E7FF044B23602046BDE81040F1
:1030000044F068BD8CA70608641D1508F8B511B119
:103010008B69834202D000242046F8BDD1E90445E3
:1030200012F4803F16460CBF4FF4803700274CB394
:103030009EB9002FF0D03946206A46F065F9002885
:10304000EAD02DB386B93946286A46F05DF930B327
:1030500024696D69002CEBD114E03146206A46F0FA
:1030600053F90028E5D19DB13146286A46F04CF964
:1030700028B1A7B13946286A46F046F978B1002C44
:10308000E6D16D69002DC6D00024002EF1D0EBE70B
:1030900024690025002CBED0002ECAD0DDE72C46C6
:1030A0002046F8BDF0B58FB0002900F083808B6911
:1030B000834206460D4656D10B69002B51D0046C55
:1030C0004A6A1CB94DE06469002C4AD0636A9A428E
:1030D000F9DBA54245D023699D4242D0296A6B693C
:1030E00040F2014088430A4645D0910515D51BB1F1
:1030F0001A6A42F400621A62336A304A43F4804327
:1031000004AF33623846314646F05EFA324697E8FD
:10311000030046F085FA6B692A6A2969002B47D0BB
:103120001961296920694B61C5E9040425612B698E
:10313000002B41D05D61D30713D52B680AAC29461B
:1031400020465B6D984794E80F0006AC84E80F00BA
:103150003368099A0092D3F88450304694E80E0000
:10316000A8470FB0F0BD164847F0AAFB0FB0BDE866
:10317000F04043F013BF33B1EA6922B11A6A42F456
:1031800000621A62296A0D4A41F400612962336AB9
:1031900002AF43F4804333623846314646F014FAB6
:1031A000324697E8030046F03BFA2A6A6B699CE7CF
:1031B000F163B7E70348D7E73564BCE7DD5400089F
:1031C00034A806082CA806082DE9F0418EB0002985
:1031D00000F0D0808B69834207460C4640F0B480F3
:1031E000002A496A40F392802569002D00F08B8007
:1031F0006B6A994206DA86E02B692BB1586A8142E4
:1032000002DB1D46013AF7D1AC427CD0236A6069EB
:1032100040F201429A4326461CD130B1E26922B104
:10322000036A43F400630362236A554A43F400636C
:1032300023623B6A0DF1080843F480433B62404639
:10324000394646F0C1F998E803003A4646F0E8F9F5
:10325000236A60699A051AD520B1036A43F40063B2
:103260000362236A464A43F4006323623B6A0DF11A
:10327000100843F480433B624046394646F0A4F9C7
:1032800098E803003A4646F0CBF96069236A226960
:1032900008B10261226902B15061F96B8C42396C4C
:1032A00008BFFA638C4204BF60693864AC425BD0EB
:1032B0002A69C4E904252C612269002A4CD0B44251
:1032C000546159D07269C4E904627461606900286C
:1032D00048D004612269002A41D0D90713D5236858
:1032E0000AAD214628465B6D984795E80F0006AC6D
:1032F00084E80F003B68099A0092D3F8845038465E
:1033000094E80E00A8470EB0BDE8F081FBD06069DC
:103310000028F8D0436A9942D8BF064606DDF2E796
:1033200073692BB15D6AA94202DC1E460132F7D1F6
:10333000B442E8D0236A40F201429A4325463FF462
:103340006DAF9A0589D4A2E70E4847F0B9FA0EB0DE
:10335000BDE8F04143F022BEB442B3D160693C64A1
:103360000028BAD1FC63B8E7B442ABD16069002A47
:10337000F5D0F5E70448E8E760690028ADD1F1E74A
:10338000DD54000834A806082CA80608F0B58DB056
:10339000002900F0AD800D46896900293DD106461F
:1033A000002A686A376C1EDB002F3ED07B6A984289
:1033B00080F284807B693C46002B00F09D805A6A35
:1033C000904204DB98E04A6A904203DA0B4659695E
:1033D0000029F8D1C5E905162B615D616B69002BE9
:1033E00070D01D6128E007B37B6A984266DC013229
:1033F0007C6900F08A80002C00F08180636A98422A
:1034000004DD7FE05F6AB842D9DC1C4601326369A3
:10341000D2D0002BF6D12346DCE73F4847F050FAE4
:103420000DB0BDE8F04043F0B9BD0023C5E9053655
:10343000F36B002B5ED035642B6AD90713D52B684C
:1034400008AC20465B6D2946984794E80F0004AC11
:1034500084E80F003368079A0092D3F884703046EE
:1034600094E80E00B847B26D2B6AE2B140F2014217
:103470009A4329D09A0501D40DB0F0BD43F40063FE
:103480002B62336A254A43F4804304AC204631461C
:10349000336246F099F894E8030032460DB0BDE877
:1034A000F04046F0BDB81E4A1A40142ADED13368F7
:1034B00029465B6E304698472B6AD7E7C5E9057603
:1034C0003D61B5E7F563B7E743F400632B62336A08
:1034D000124A43F4804302AC33622046314646F040
:1034E00073F8324694E8030046F09AF82B6AC1E775
:1034F0000C4893E7F5639EE7194623466AE73C4686
:10350000234667E723463C4659E723463C46002BC3
:103510007FF455AFF0E700BF44A80608DD5400086B
:10352000140001003CA8060870B58AB0826B0092B6
:1035300006AC00F12C0305460ECB204645F0C6F93B
:1035400094E80F0002AC84E80F002B68059A009203
:10355000D3F88460284694E80E00B0470AB070BDE6
:1035600038B50446856CFEF7CDFFA36CAB4201D0A5
:10357000A36903B138BD236ADB07FBD52046BDE84C
:103580003840D1E738B50446C56DFDF727F9E36D3E
:10359000AB4201D0A36903B138BD236ADB07FBD579
:1035A0002046BDE83840BFE770B58EB0002900F076
:1035B00081808B69834205460C464DD10B6A40F2EF
:1035C00001429A4350D0980514D5616919B10B6A2C
:1035D00043F400630B622B6A3A4A43F4804304AE1F
:1035E000304629462B6245F0EFFF2A4696E8030055
:1035F00046F016F8AB6D00229C42E2614DD0D4E952
:1036000004320AB11361236903B15A61EA6B94422F
:1036100008BFEB632B6C226A9C4204BF63692B6476
:103620000023D107A361C4E9043313D523680AAE8C
:10363000214630465B6D984796E80F0006AC84E85B
:103640000F002B68099A0092D3F88460284694E80A
:103650000E00B0470EB070BD1B4847F031F90EB0F8
:10366000BDE8704043F09ABC496941B3E2691AB3BE
:103670000B6A144A43F400630B62036A02AE43F41C
:10368000804303622946304645F09EFF2A4696E86D
:10369000030045F0C5FF236A95E72B6821461422F5
:1036A000D3F88830284698472B6801465B6E284639
:1036B0009847A4E70548D0E79A059BD587E79B057F
:1036C00089D497E7DD54000834A806084CA80608FA
:1036D00010B584B06C4600222046114658F06EF8B2
:1036E00094E80F0044F08EFFB0FA80F0400904B077
:1036F00010BD00BF30B583B004466D460146074A91
:10370000284645F061FFE26B95E80300002346F090
:1037100043F90023E36303B030BD00BF2137000845
:10372000C36B002B00F077812DE9F041DA69D0F806
:10373000B030D0F89C1090ED2A5AD0ED294A90ED87
:10374000256AD0ED245AD0ED2B3A90ED264AD31AB3
:103750002DED068B08EE903A531A08EE103ADFED85
:10376000DE9AF8EE688AB8EE488A68EEA98A28EEF2
:10377000298AF6EE006A24EEA62A25EE287A68EE5B
:10378000A82A66EE087A28EE083A65EEA66AA2EE46
:10379000227A86B004AFE6EE837A0446384637EEE6
:1037A000237A77EE847AA4EEA85AA5EE886AFDEE15
:1037B000E77ABDEEC77A17EE902A17EE101AF0EEF0
:1037C00045AAB0EE46AA44F047FED4ED407A94F8FC
:1037D0002431059DB8EEE79A29EE299A002B40F096
:1037E000B880049E94F82521002A40F0FD80D4ED95
:1037F000257A94ED2A7A94F82431B5EEC07AF1EE68
:1038000010FA04DDF5EEC0AAF1EE10FA09D4B5EE17
:10381000C07AF1EE10FA08D5F5EEC0AAF1EE10FA72
:1038200003DDD4F8DC60DFEDADAAF5EEC07AF1EE91
:1038300010FA05DDB5EEC0AAF1EE10FA00F1AD8088
:10384000F5EEC07AF1EE10FA00F1A1809BB9D4F840
:10385000D410B14240F3BA80E36BC4F8A01006EE76
:10386000906ADB69C4F8B030F8EEE66A0123C4ED73
:103870002B6A84F824319ABBD4F8D820AA4240F3AA
:103880009180E16BC4F88C2006EE905ACA69C4F8A6
:103890009C20F8EEE66A0122C4ED266A84F8252110
:1038A000F3B9B5EE407AF1EE10FA94F825310ED066
:1038B000BBEE047AF4EEC7AAF1EE10FA07DDB3EE20
:1038C000047AF4EEC7AAF1EE10FA00F124813BB9B4
:1038D000F5EE407AF1EE10FA4FF0000340F0BF80B1
:1038E000CDE9046504F1DC0397E803000CCB44F058
:1038F000B7FD002840F09080D4ED2A7AF5EE407AAA
:10390000F1EE10FA6BD1D4ED257AF5EE407AF1EEB6
:1039100010FA64D1B4F82431002B60D1E36B13B1F9
:103920002046FFF7E7FE002384F8233104F1480323
:1039300093E80300224645F067FE04F1600393E834
:103940000300224606B0BDEC068BBDE8F04145F011
:103950005BBEF4EEC98AF1EE10FAC0F2C180D4F871
:10396000A0609FED5E7A94F8253184ED2A7A07EE07
:10397000906AF8EEE77A0022C4ED2B7A84ED297A7A
:1039800084F8242183BBD4ED257A1A464DE7B5EEA1
:10399000C0AAF1EE10FA7FF759AFD4F8E0509FEDCE
:1039A0004FAA53E7D4F8D020AA42FFF66AAF002B03
:1039B0008ED1B5EE407AF1EE10FA89D0BBEE047AE2
:1039C000F4EEC7AAF1EE10FA82DD78E7D4F8CC1055
:1039D000B142FFF641AF002A3FF44EAF61E706B0B7
:1039E000BDEC068BBDE8F081B4EEC98AF1EE10FAA9
:1039F00052DBD4F88C50DFED397A07EE105AB8EE6E
:103A0000C77A002284ED267AC4ED257AC4ED247AA3
:103A100084F82521EDE67047D4F8E03000930DF1ED
:103A2000080897E806004046D4F8DC3044F034FD3E
:103A300098E8030004F1BC0383E80300C4E9376598
:103A400004F1500393E80300224645F0DDFD04F144
:103A50005803224693E8030045F0D6FD4CE7FBEE01
:103A6000047AB4EEE7AAF1EE10FA7FF739AFF3EE7D
:103A7000047AB4EEE7AAF1EE10FA7FF531AFD4F88C
:103A80008C50C4F8943007EE905AF8EEE77AC4F8F8
:103A90009030C4ED267A23E788EE090AB7EE008A53
:103AA00038EE400AD4ED3F0A30F0B6FF94ED237AA9
:103AB000D4ED266AD4ED257A94F82521B8EEC77A9C
:103AC00038EE400A37EE667AE7EE006ABDEEE67A37
:103AD00017EE105A8DE600BF6F12833A0000000007
:103AE00088EE890AF7EE008A38EEC00AD4ED3F0A64
:103AF00030F092FFD4ED287A94ED2B7AF8EEE77A45
:103B000038EEC00A77EEC77AA7EE807AFDEEC77A64
:103B100017EE906A66E6D4F8A06007EE106AB8EE79
:103B2000C77A0022C4F8A82084ED2B7AC4F8A42018
:103B3000CDE600BF426902B1704738B5C369A3B191
:103B40009969C161436171B14A61002501229D619A
:103B500080F828201A68044621461846136C9847B6
:103B600084F8285038BD8161EFE700F12003024658
:103B700093E80300BDE8384045F052BD002070478F
:103B800000B583B0034600910448054942F01EFE8B
:103B900003B05DF804EB30F0CDBE00BF5C5D1508EE
:103BA000405D150884B02DE9F04F0446D0F8C800F8
:103BB0009FB029AD002885E80E0000F38C80A36C2F
:103BC000002B31D0A66986B1C94B1B78002B40F081
:103BD0008B802C9B0093204695E80E00FEF7ACFFEF
:103BE0001FB0BDE8F04F04B0704734330FCB44F042
:103BF00009FD002840F08582BE4BA66C1B78002B87
:103C000040F0ED8195E80F0001AF87E80F00336CBD
:103C1000009334360EAF96E80E00384644F066FD49
:103C200097E80F0086E80F00B14B1B78002B5BD1A3
:103C3000A369002BCDD104F12C0696E803000DF109
:103C4000040B2C9B8BE8030012AF0093384695E8D9
:103C50000E0044F0F1FD96E80F00159E8BE80F0072
:103C6000284697E80E00009644F0F6FC95E80F0011
:103C700044F0C8FC0028B3D1D4F80C64002EB1463F
:103C800040F3FE8107460DF1580895E80F008BE8D8
:103C90000F0004EB071606F57279D9F8103000937F
:103CA00006F5737696E80E00404644F0D5FC98E899
:103CB0000F0044F0A7FC41F20C12F0B1D4F80C64F0
:103CC0000137BE42B1463946384632DD042FDCD1D9
:103CD000FFF756FFD9E7884846F0F2FD1FB0BDE870
:103CE000F04F04B043F05AB9A36B009304F12C03D6
:103CF0000ECB284644F0EAFD9AE795E80F008BE8E2
:103D00000F00D9F8103000930EAD96E80E0028464B
:103D100044F0ECFC95E80F0086E80F0044F0B6FD97
:103D200004EB8704C4F8BC031FB0BDE8F04F04B037
:103D30007047022E40F3A481042E07D1314630464D
:103D400041F22212FFF71CFFD4F80C6495E80F0033
:103D500004EB091909F57379032E89E80F0000F2C5
:103D6000548195E80F0044F091FD04EB860304F5BF
:103D70006F720026C3F8BC036FF00041D4F80C3416
:103D8000CDF828B00B960996079193469E42374688
:103D900000F3BC8001369E42354600F3B3800BF140
:103DA000040304EB071A0C9398460AF573730893FF
:103DB0000D962AE0032D51D804EB051303F5737318
:103DC0000FCB0A9E86E80F00DAF8D8330093089BE1
:103DD0001AA80ECB44F08AFC1AAB0FCB44F056FD68
:103DE000DBF800604FEA002958F8043B334499FBA4
:103DF000F3F9079B4B4503DDCDF81C900B95099714
:103E0000D4F80C340135AB4278DB032FD2DD41F21C
:103E1000291204213846FFF7B3FE032D43D804EBE3
:103E2000051303F573730FCB0A9E86E80F00DAF8CB
:103E3000D8330093089B1AA80ECB44F057FC1AAB5A
:103E40000FCB44F023FD41F22B124FEA002904214D
:103E50003846FFF795FEDBF80060C5E741F229120E
:103E600004212846FFF78CFE04EB051303F573735A
:103E70000FCB0A9E86E80F00DAF8D8330093089B30
:103E80001AA80ECB44F032FC1AAB0FCB44F0FEFC68
:103E9000DBF800604FEA002941F22B12042128468A
:103EA000FFF76EFEA0E741F2291204212846FFF732
:103EB00067FE04EB051303F573730FCB0A9E86E8C8
:103EC0000F00DAF8D8330093089B1AA80ECB44F001
:103ED0000DFC1AAB0FCB44F0D9FC41F22B124FEA88
:103EE000002904213846FFF74BFEDBF80060D3E7DA
:103EF000E83100207831002054A806080D9EDDF836
:103F000030B043E70BF104020C92F8E7DDE9093B1E
:103F1000032B05D941F2361204211846FFF730FE73
:103F20000B9B032B6AD8099B002BC0F2F380032B59
:103F300072DC0B9B1E01A31903F573730FCB8BE887
:103F40000F00099B1D01631903F57377D3F8D8336C
:103F500000930DF1380897E80E00404644F0C6FB88
:103F600098E80F0087E80F00631903F573730FCB10
:103F700044F08CFC099BD4F80C5404EB8303C3F885
:103F8000BC030B9B9D423FF42BAE032D05D941F2A0
:103F90003D1204212846FFF7F3FD0B9B032B00F293
:103FA0008F8004EB051303F573730FCBD4F80C74F7
:103FB000A51905F57375032F85E80F0005D941F2A2
:103FC0003F1204213846FFF7DBFD0B9B04EB87070C
:103FD00004EB8304D7F8BC33C4F8BC3300E6A36B0E
:103FE00000930EAF04F12C0338460ECB44F06EFC68
:103FF00097E80F00343686E80F0015E641F23612D6
:1040000004211846FFF7BCFD8DE741F2231204217D
:104010003046FFF7B5FDA4E6099F0B9D042105FA84
:1040200001F6384641F23512FFF7AAFDA31903F550
:1040300073730FCB8BE80F003D016319099703F5EC
:104040007377D3F8D83300930DF1380897E80E0052
:10405000404644F04BFB98E80F0087E80F00099FAB
:1040600041F2381204213846FFF78AFD032F7FF60C
:104070007BAF41F2371204210998FFF781FD73E706
:10408000002E71DB95E80F0004EB091909F573792F
:10409000032E89E80F0005D941F219120421304698
:1040A000FFF76EFD95E80F0044F0F0FBD4F80C2408
:1040B00004EB86030132C3F8BC03C4F80C248FE57B
:1040C000184641F23C120421FFF75AFD04EB051398
:1040D00003F573730FCBD4F80C74A51905F573753C
:1040E000032F85E80F0005D941F23F12042138461D
:1040F000FFF746FD41F23E1204210B98FFF740FD09
:1041000063E73146204645F0F5FC3146A06C45F0AA
:10411000F1FC71E5099F0B9D042105FA01F6384673
:1041200041F23512FFF72CFDA31903F573730FCB82
:104130008BE80F003D016319099703F57377D3F8F6
:10414000D83300930DF1380897E80E00404644F04C
:10415000CDFA98E80F0087E80F0041F238120421E9
:104160000998FFF70DFD84E7304641F2181204214B
:10417000FFF706FDD4F80C6484E700BF82B08DE839
:104180000C0002B0704700BF82B08DE80C0002B096
:10419000704700BF82B08DE80C0002B0704700BFCE
:1041A00082B08DE80C0002B0704700BF704700BFBE
:1041B00084B030B583B007AC84E80E00DDE90A3284
:1041C00005680192009394E80E00AC6BA04703B021
:1041D000BDE8304004B07047836A8B4220D0C36989
:1041E0008162EBB1F0B5026A51058DB0044618D575
:1041F00008AD1869A369016A1A6A41F4805142F452
:104200008042016219461A6228461D4A45F0DCF9CF
:1042100095E8030022460DB0BDE8F04045F000BA35
:1042200070478169164A0B6A02AD43F4A0430B62E2
:10423000284645F0C9F995E80300224645F0F0F913
:10424000A669B36B009304AD06F12C0328460ECB90
:1042500044F03CFB95E80F0008AD85E80F0033689B
:104260000B9A0092D3F88470304695E80E00B84758
:10427000E36913B1226A5205BBD40DB0F0BD00BF93
:10428000DD5400080368DB6B184700BF82B070B5CF
:1042900086B00EAD04460E4695E80300109D0495C9
:1042A0009DF84450059502AD85E803000CA903C9AB
:1042B0000AAD85E80C008DE8030023681D6C0AAB8D
:1042C000314620460CCBA84706B0BDE8704002B08E
:1042D000704700BF03685B6C184700BF84B030B5FF
:1042E00087B00BAC84E80E000F9B0568109A019311
:1042F000119B02920393129A0E9B0492009394E8EE
:104300000E00AC6CA04707B0BDE8304004B0704769
:1043100082B070B584B00AAE04460D4696E803003C
:1043200008AE86E80C008DE803000C9A2B68029218
:1043300029462046DD6CD6E90023A847204604B074
:10434000BDE8704002B0704730B482B06C4684E87B
:104350000600056894E806002C6DA44602B030BC47
:10436000604700BF10B50B6804465B6D9847204658
:1043700010BD00BF03689B6D184700BF70B50546B0
:1043800001F130000B4607C8DB6A841A5E1A48BF89
:10439000CE1A002CB8BF141AA64282B01FDB994275
:1043A000B8BF03F1FF338B420FDBA64217D0824226
:1043B00002DD1446024620460130009001332846B3
:1043C00044F0C8F8284602B070BDA64203F10103CC
:1043D00005D09942EBDD0C4619462346E7E78242B9
:1043E000B8BF00F1FF30904201DA0130F1E79942A5
:1043F000E2DD0C4619462346DEE700BF84B02DE916
:10440000F04184B00BAC064684E80E0017480F9FBD
:10441000002143F065FBE84600230546F361314681
:104420004046FFF7ABFF98E80F0005F1140C8CE84D
:104430000F0094E80F0006F1340C05F1240484E821
:104440000F009CE8030006F12C0305F140022F61E8
:1044500082E8030093E8030005F1380383E80300D2
:10446000F56104B0BDE8F04104B070473CA3060814
:10447000CB6910B5044613B193F8343023B9204604
:10448000FFF77CFF204610BD0023C0E90033C0E9E0
:104490000233204610BD00BF10B50446FFF76EFF83
:1044A000204610BD2DE9F04190B002AC84E8060032
:1044B00000F12C06054696E80C0094E8030043F052
:1044C000CFFF002843D0AF69002F49D02B6A13F0EB
:1044D00001023FD02B680DF1100840465B6D294664
:1044E000984798E80F000DF1300C8CE80F003B68FE
:1044F0000F9A00923846D3F884809CE80E00C0479B
:1045000094E80300AF690023EB6186E80300F7B18C
:104510002B6ADC0716D52B6808AC20465B6D294654
:10452000984794E80F000CAC84E80F003B680F9AA2
:104530000092D3F88460384694E80E00B047AF6923
:104540002FB12B6A580502D53A6A910410D510B0E4
:10455000BDE8F08194E80300EA6186E80300D8E74B
:1045600094E80300EF6186E8030010B0BDE8F08135
:1045700043F400630CAC42F480422B6239463A6249
:104580002046054A45F020F894E803002A4610B07A
:10459000BDE8F04145F044B8DD5400082DE9F04194
:1045A00090B002AC84E8060000F13406054696E8B7
:1045B0000C0094E8030043F053FF002843D0AF6998
:1045C000002F49D02B6A13F001023FD02B680DF168
:1045D000100840465B6D2946984798E80F000DF19A
:1045E000300C8CE80F003B680F9A00923846D3F8E5
:1045F00084809CE80E00C04794E80300AF69002364
:10460000EB6186E80300F7B12B6ADC0716D52B684F
:1046100008AC20465B6D2946984794E80F000CAC27
:1046200084E80F003B680F9A0092D3F88460384604
:1046300094E80E00B047AF692FB12B6A580502D538
:104640003A6A910410D510B0BDE8F08194E80300F7
:10465000EA6186E80300D8E794E80300EF6186E8A2
:10466000030010B0BDE8F08143F400630CAC42F4E9
:1046700080422B6239463A622046054A44F0A4FF44
:1046800094E803002A4610B0BDE8F04144F0C8BFEA
:10469000DD54000882B02DE9F04F97B0894620A97B
:1046A00081E80C00219B0693229B0490B24907935A
:1046B000D9F81C00239B08930592D9F828A043F051
:1046C0004FFBD0E90767D0E90558239B009320AB47
:1046D00002970ECB0446A7EB08070EA8039744F0F9
:1046E000E5F8249BA6EB050B002B00F09480249B9F
:1046F000013B032B0AD8DFE813F00400FF0005019B
:10470000F200069A0399114402919046012B0FD8AA
:104710001AF0010F40F009811AF0040F0AF00803A3
:1047200000F01181002B40F01081059D0BEB050678
:10473000B54248DA029BA26B9845236CB4BF0021B6
:1047400001219A4284F8341044DA731EA91BE26BEB
:104750006E1E1D46636C9A4241DA029A08F1FF30E0
:10476000531E0290A8EB02029846029FD9F820300F
:10477000012A08BF4746012908BF2E46DB050297DC
:104780002FD50CAC42462946204643F065FE94E8FE
:10479000030009F1340383E803003A46314620461A
:1047A00043F05AFE94E8030009F12C0989E803005C
:1047B0000498039A594643F04FFE049817B0BDE899
:1047C000F04F02B07047A26B236C01219A4284F82B
:1047D0003410BADBE26B636C9A425946BDDB039A34
:1047E000C3E70DF1480A29464246504643F034FEDD
:1047F00014AD9AE806004846FFF7D0FE029A31460B
:10480000284643F029FE95E806004846FFF74AFE91
:10481000C9F81C40CCE7236B00930E9F099704F165
:1048200024030F9F0A970ECB10A844F03FF8DDE950
:1048300010CED4E90932099F0B926745A5EB030519
:10484000A8EB020800F0C8801AF004000AF0080182
:104850000AF001026ED029B9002A40F084800028B5
:1048600000F08180E36AF61A059B2B441D46079BE6
:104870001E44002A40F0B680002840F0C580002980
:1048800040F0D480761BA6EB0B0606EBD67605EB44
:1048900066050BEB05060A9B734500F091801AF044
:1048A00010000AF020010AF002026CD1002A65D142
:1048B000002963D0236B029FFF1A069B434498464E
:1048C000089BFB180293002A40F08280002869D1DF
:1048D000002969D0DDE90223A2EB030828E7079E3F
:1048E0001AF0020FA6EB0B0512D0089F069BFA1ACE
:1048F000CDE9027298461BE7089F03990297A7EB40
:10490000010803E7059D1AF0020F0BEB0506ECD139
:104910001AF0100F0AF0200367D0002B66D1069B17
:10492000039A1A440292984602E7079E059DA6EB59
:10493000050BFDE60AB9002994D1099F07FB05F58F
:1049400095FBFCF587E7002B62D120AB0FCB43F042
:1049500093FF059BA0EB0B0000EBD07003EB600511
:104960000BEB0506E4E6F61A099B03FB06F696FB3D
:10497000FCF6F61A78E700BF3CA306080A9B03FB87
:1049800008F898FBFEF8002994D10AB9002891D1C3
:104990000B9B029FFF1A0A9B03FB07F797FBFEF78F
:1049A000FF1A8AE700293DD0029BA3EB0807039B6F
:1049B000FF1A07EBD77708EB670843440293B7E683
:1049C000236B029AD71A069B9844089BFB18029304
:1049D000A3EB08030393ABE6E36AF61A059B1D44B9
:1049E000079B1E44A6EB050B55E7ABB920AB0FCBDD
:1049F00043F038FF039B069AC01A00EBD07002EB1D
:104A000060084344029393E600297FF43BAF40E7FC
:104A1000079EA6EB0B058BE6089F039A0297A7EB70
:104A2000020885E6039B4344029381E6A6EB0B054F
:104A300031E700BF70B58AB004AD044685E80600D2
:104A4000EBB1059B009302AD00F1340696E8060039
:104A50002846049B43F032FD95E8030086E80300F6
:104A6000059B00932C3494E806002846049B43F0F1
:104A700025FD95E8030084E803000AB070BD059B9E
:104A8000009306AD00F1340393E806002846049B2A
:104A900043F014FD95E806002046FFF77FFD059BD7
:104AA000009308AD04F12C03284693E80600049B0C
:104AB00043F004FD95E8060020460AB0BDE87040CA
:104AC000FFF7F0BC10B483B06B4683E806000468BF
:104AD00093E80600E36D03B05DF8044B184700BF90
:104AE00010B483B06B4683E80600046893E80600C0
:104AF000236E03B05DF8044B184700BF10B483B0B9
:104B00006B4683E80600046893E80600636E03B012
:104B10005DF8044B184700BF10B483B06B4683E8C0
:104B20000600046893E80600A36E03B05DF8044B2A
:104B3000184700BF2DE9F04F8BB003466C46443058
:104B400084E8060003C803F13C0202AE86E80300D5
:104B500092E8030004AC03F1340284E8030092E815
:104B600003002C3306AA82E8030093E803000AAB93
:104B700003E90300DDE908244FF0000CDDF80090A4
:104B8000019D3146E6469846D1E900608542ACBFBA
:104B90004FF0000A4FF0010AAC42D4BF00270127B2
:104BA0002B1A921BBA45A4EB000B03FB02F317D0A0
:104BB00093FBFBF3334499450EDD8EF0010E083173
:104BC000414504463246DFD15EEA0C0314BF0120A2
:104BD00000200BB0BDE8F08FB8BF8CF0010CEEE701
:104BE000AC42ACBF002401248542D4BF0022012284
:104BF000A242DDD1E3E700BF436CC26AC16B9342BE
:104C000030B404D08B420FD0002030BC7047446BCE
:104C10008C42F7D1856C046CA542F3D1856B046B93
:104C2000A542EFD10120F0E7436B9A42ECD1826CB0
:104C3000036B9A42E8D1036C806B181AB0FA80F0CB
:104C40004009E2E784B02DE9F047A0B029AD2F9CE0
:104C500085E80E002E9B0CB1844279D1D0F8C42097
:104C60009A4275DCD0F8C0209A4271DBD0F8BC3093
:104C7000002B06DBD0F8B820012A69DC2D9A93427C
:104C800066D190F8C8306BB9D0F88030B3F1007FAE
:104C90005ED2B3F1807F05D32D994FF480528A40C4
:104CA0001A4255D0D0F8B430309A1A4250D1044646
:104CB000FFF7A2FF0646002851D023680EAE30460B
:104CC0005B6D2146984796E80F000DF1040C2C9F70
:104CD0008CE80F000AAE0097304695E80E0043F0CE
:104CE000BBFC96E80F00DDE90C98DDE90AA643F06D
:104CF00089FC074660BB2C9B009395E80E0006A834
:104D000043F0F8FDDDE906239245C8BFAAEB020790
:104D10009145DCBFA9EB020707F1FF379E42D4BFE4
:104D20000026F61A9845D8BFA8EB03064FF00001FD
:104D30003648D8BF06F1FF3642F0D2FE06FB06F336
:104D400007FB073305460461C0E90676436100E0CE
:104D50000025284620B0BDE8F04704B07047DDF8D4
:104D6000B080CDF800800EAF95E80E003846DDE942
:104D7000299A2B9D43F0BEFD97E8030010AB83E812
:104D8000030012AB83E8030014AB83E8030016AB07
:104D900083E80300524629461AA8CDE9189ACDF8AF
:104DA0004090CDE913A5CDF85C8043F055FB424619
:104DB00049461CA843F050FBCDE91E5820AB03EB3D
:104DC000C607483F97E806002046FFF7B3FE0136C6
:104DD00018B9092EF2D10546BBE700210B4842F075
:104DE0007FFE0F9B0093054697E806000E9B08A8E0
:104DF00043F052FBDDE9083101FB01F203FB032222
:104E00002C61E961C5E90523A3E700BF88A2060874
:104E100084B030B583B007AC84E80E0005680A9B07
:104E2000009394E80E00EC6DA04703B0BDE830405D
:104E300004B070472C3110B404460FC984E80F0049
:104E400020465DF8044B704782B070B586B00EAD59
:104E500004460E4695E80300109D04959DF84450C5
:104E6000059502AD85E803000CA903C90AAD85E8E4
:104E70000C008DE8030023681D6E0AAB3146204606
:104E80000CCBA84706B0BDE8704002B0704700BF29
:104E90002DE9F04FB7B0826B056A0092804600F1B1
:104EA0002C030ECB1EA843F011FDD8F8404005F4AA
:104EB0008055ACB1B04E002209E023F400632362B8
:104EC0009F054FF0010200F1AF80646944B1236A8D
:104ED0001905F2D4002AF3D164690022002CF6D11E
:104EE000D8F83C40D8F82030002D40F0878243F4B9
:104EF00000530B95C8F82030002C00F094824FF03E
:104F00000009CDE90C99CDE911991CABCDE90F98B9
:104F1000CDF83890CDF81890CDF82890CDF81490B1
:104F2000CDF820904D46CB46CDF82490CDF81C907E
:104F30004F460DF1C80A1393C846002D00F0DF80DC
:104F4000D4E9073671051ED52BB11B695B4500F00E
:104F500015810023E361002F00F09C81A36A142BCC
:104F600000F03282089A3292059A3392069A2368A8
:104F7000CDE93428CDE9008B20469E6B9AE80E00DF
:104F8000B047D4E90736002B00F0E7800B9BB3B1A4
:104F900016F4806C40F0F6801EAB0FCB8AE80F0051
:104FA00036AB13E903002668CDF808C08DE803008E
:104FB0002146F66C13989AE80C00B047266A002F39
:104FC0003FD0720500F1E180B10500F1CC800127EE
:104FD000A54200F085802469002CAED1DDF8408028
:104FE00037B10BF144035A4693E8030044F018FB31
:104FF000D8F82030219A139C009223F40053C8F86B
:1050000020301EAB0ECB204643F050FCD4E900010B
:105010008AE80300D8F800309AE80600DB6F4046C3
:1050200037B0BDE8F04F18473146204642F098FEB1
:10503000036E002B3FF450AF236A43F48053236286
:105040004AE716F40077C3D04B49204642F088FE69
:1050500016F480578346BBD000F14C0393E803005D
:10506000226A01AB22F48052226283E80300DBF85B
:10507000383000930DF188090BF12C0797E80E00EA
:10508000484643F0D9FBDBE91665AE192399119622
:10509000DBF85460059124980690AE19059D229A7C
:1050A000DBF86030DDF894802795069D0793089221
:1050B000269299E80F00CDE92858129643F0A2FAFB
:1050C000079B053B0546072B00F2FC81DFE813F048
:1050D000790179017601760173017301530153015E
:1050E000079B053B072B00F2EB81DFE813F0330150
:1050F0002201330122011101F8001101F800099B7E
:10510000079A93423FF41CAF0E9B22930D9B23936F
:105110000C9B24930F9B259322AE96E80F0043F03F
:10512000ABFB059096E80F0043F09CFB26460690EB
:10513000149508950DF1A8081594336A980507D4BD
:1051400040F2014232EA03035ED03669002EF4D108
:10515000159C002D08BF5D4685E0B0057FF538AF92
:10516000002F3FF471AF0BF144035A4693E803005C
:1051700044F056FA266A67E75CA106080B9B002BF1
:105180003FF41DAF002F3FF45CAF0A9BCDE9163909
:1051900016AF97E80300089B2693059B279301AA67
:1051A000069B289382E803002EAECDF8008026AB44
:1051B0000ECB3046CDF8A48043F03EFB96E80F00BE
:1051C0008AE80F0036AB13E903002668099B0293B7
:1051D0008DE8030021469AE80C00F66C1AA8B04747
:1051E000266AF307DDE91A127FF5EEAE099B00206F
:1051F000013BCDE93200032B00F2F280DFE813F02F
:105200004D01EC0049014401336831465B6D404675
:1052100098472D9B009398E80E0018A843F046FB92
:10522000099AD31E012BDDE9181002F1FF3235D99E
:10523000012A02D8069C241A0694002D00F0F8805A
:10524000059C002C0EDB069C002C0BDB012BD6F8FA
:1052500010C02AD9012A354633D96646002E7FF47C
:105260006CAF75E7159C0E9A079B26920D9A2792B4
:105270000C9A2892053B0F9A2992072B00F2258160
:10528000DFE813F0D900E400D900E400EE00F800F4
:10529000EE00F800B3053FF5D7AE99E6059C641A19
:1052A0000594002DCCD1D6F810C0059B119C1B1B7A
:1052B0000593089B8342B8BF0346012A08933546ED
:1052C000CBD8069B129A9B1A0693149B8B42B8BFAD
:1052D0000B4666461493002E7FF42FAF38E7089BE9
:1052E0002693059B2793069BCDE9283826AB0FCB49
:1052F00043F0B8FA129BA9EB0002D21A002116A8BB
:1053000043F0AAF8169B0A930025DDF85C9062E64C
:10531000089B2693059B2793069BCDE9283826AB4F
:105320000FCB43F09FFA129B00EB09021A440021B5
:10533000E5E7089B2693059B2793069BCDE9283834
:1053400026AB0FCB43F098FA0A9B191A119BC91A86
:105350000022D4E7089B2693059B2793069BCDE963
:10536000283826AB0FCB43F087FA0A9B0344194633
:10537000119B1944ECE704230993002D40F0918020
:1053800097E80F008AE80F001098359A036800929A
:10539000A946D3F884509AE80E00A847069B0C93C0
:1053A000059B0D93089BCDF828904D46CDF83C8089
:1053B0000E9301270CE603230993DEE702230993EA
:1053C000DBE701230993D8E7099B002B7FF4CAADE3
:1053D000B2057FF5FDADC6E65342129A9B1A339390
:1053E000339B009397E80600329B384643F066F8FB
:1053F000169B0A93DDF85C90266AE5E523F480535A
:10540000C8F820301EAB0FCB43F0FCF8D8F82030A2
:10541000B0FA80F2520943F400530B92C8F82030DE
:10542000002C7FF46CAD1CAA0DF1C80A1392E1E5C3
:10543000D6F810C00EE7149A0E9BDDF83C80089356
:10544000114619440D9A0691059279E50C9B149A20
:1054500006939A1A0D9B0892DDF83C8005936FE540
:10546000089B0C9A98460D9B9844CDE905320E9BFB
:10547000089365E50F9B089A98469A1A0C9B069329
:105480000E9B059208935BE5119A4B429B1A32934F
:10549000A6E7119B19443291A2E7129B1A4433925A
:1054A0009EE7069B0C93059B0D934FF00009089B0C
:1054B000CDF828904D464F46CDF83C800E9387E5B9
:1054C000002588E5079B099357E70C9B06930D9BE6
:1054D00005930E9BDDF83C80089331E5016A4B048F
:1054E00070B5044601F480550ED401F400432B43FB
:1054F00000D170BD236821F4004121622046D3F819
:105500008030BDE87040184721F480410162FFF708
:10551000BFFC216AE9E700BF03685B6E184700BF64
:10552000806C003018BF0120704700BF03689B6E7D
:10553000184700BF03689B6D11B100221021184766
:10554000102218470368DB6E184700BF03689B6D85
:1055500019B100224FF4806118474FF48062184758
:10556000006A00F00100704703689B6D11B10022D2
:10557000012118470122184703681B6F184700BF15
:1055800070B584B002AD064685E80C0059B10C46F2
:10559000236B0093E36A95E80600284642F07CFFFF
:1055A000A469002CF4D195E8030086E80300304696
:1055B00004B070BD03685B6F184700BF2DE9F04F62
:1055C000046C8BB002AE8146149F8B4686E80C00BB
:1055D00094B106ADCFB9236821465B6D2846984744
:1055E00096E803008DE8030095E80F0042F0F0FF15
:1055F00090B96469002CEDD1D9F800305B6C594644
:1056000048460BB0BDE8F04F18473946206A43F0D2
:105610007BFE0028DFD1ECE71449204642F0A0FBD6
:105620000DF1100A8046A8B1036B0093C36A96E897
:105630000600504642F030FF009740469AE80C00C2
:105640005946FFF7BBFF646964B10028C2D00BB0B4
:10565000BDE8F08F2368204659465B6C9847646923
:10566000002CF2D10028F2D1C6E700BF8CA70608B3
:1056700010B483B06C4684E80C0094E80C0003B0CE
:105680005DF8044BFFF79ABF03689B6F184700BF94
:1056900010B483B06B4683E80600046893E8060004
:1056A000E36F03B05DF8044B184700BF0368D3F8FD
:1056B0008030184730B5036A094A83B06D4643F419
:1056C0000043044603620146284643F07DFF95E807
:1056D0000300224603B0BDE8304043F0A1BF00BF45
:1056E000DD54000870B590F8D8308AB004468BB10C
:1056F000D0F8D020002A0DDDD0F8CC30002903FBF3
:1057000002F329DB002905DD91FBF3F203FB121103
:1057100001B1C91AD4F8C0308B421BD0C4F8C010F4
:105720002046FFF7C7FFA36B009302AD04F12C03E3
:1057300028460ECB43F0CAF895E80F0006AD85E881
:105740000F002368099A0092D3F88460204695E8F8
:105750000E00B0470AB070BD494291FBF3F203FB63
:105760001211591A0029CFDCD4E700BFD0F88830D5
:10577000D3F8E010FFF7B6BF10B5044642F0A2F927
:105780001420064BA0621F21FF222162E265E36024
:1057900023602046BDE81040FFF78CBF8CA70608A9
:1057A00070B5144E86B00446FFF7E6FF06F6A41364
:1057B0000FCB02AD85E80F0006F60416059BE660E8
:1057C0002660009395E80E002046FCF7F9FE1823AA
:1057D000094AC4F8CC304FF0FF33C4F8D420C4F8E1
:1057E000A430C4F8AC30C4F8B830C4F8C43006B043
:1057F00070BD00BF589F06081C2A070870B5144EDC
:1058000086B00446FFF7B8FF06F6A4130FCB02AD2F
:1058100085E80F0006F6B416059BE6602660009347
:1058200095E80E002046FCF7CBFE1823094AC4F881
:10583000C4304FF0FF33C4F8CC20C4F89C30C4F817
:10584000A430C4F8B030C4F8BC3006B070BD00BF9E
:10585000589F06081C2A070884B030B583B007ACEF
:1058600084E80E0005680A9B009394E80E00D5F8C2
:105870008440A04703B0BDE8304004B0704700BF8B
:10588000FFF718BF0368D3F8883018470368D3F8C8
:105890008C3018470368D3F8903018470368D3F862
:1058A000943018470368D3F898301847C06D704794
:1058B00010B504460021064842F012F9D4F8D03061
:1058C000002B14BF01220022027518BF036110BD16
:1058D00014A7060810B504460021064842F000F956
:1058E000D4F8D030002B14BF01220022027518BF5B
:1058F000036110BDD8A6060810B50446002106486D
:1059000042F0EEF8D4F8D030002B14BF0122002270
:10591000027518BF036110BD9CA6060810B50446A9
:105920002FF02EF8D4F8803353B183420FD2D4F83D
:1059300084134FF47A72C31A02FB01F292FBF3F361
:105940000022C4F88003C4F88423184610BD002345
:105950000022C4F88003C4F88423184610BD00BF99
:10596000FFF7DCBFD0F80C34002B07DDD0F8843310
:1059700000220133C0F88433C0F80C24704700BF04
:10598000D0F80C34002B07DDD0F88433002201332B
:10599000C0F88433C0F80C24704700BF82B02DE9F2
:1059A000F04FA5B010AE309C009409920024203234
:1059B0008846089006CA0AA87460C6E902442F9374
:1059C000109442F07BFD0B9B00930DF1BC0B9BE808
:1059D00006000A9B14A842F0C5FDD8F8C830D8F8D4
:1059E0000C945A1CA145C8F8C82011DD01AD08F57A
:1059F0006F7A07955AF8043B002B1CDC09F101096A
:105A00000134A14501DD042CF4D1D8F8C830013BA4
:105A1000C8F8C83096E80F0042F0F4FD00285AD0CC
:105A200096E80F00089C84E80F00089825B0BDE8B0
:105A3000F04F02B070479BE80300079B83E8030028
:105A400008EB041303F57375D3F8D833009395E886
:105A50000E0018A842F0DAFE9BE806000CA842F0FF
:105A60003FFD18AA0FCA20AF87E80F000CAA92E8E2
:105A700003000EAB83E803004FF0010C02ABFF22E2
:105A8000CDE9042C83E8030024AA12E903008DE881
:105A90000300D8F8001097E80C0040460F6C0999F5
:105AA000B84795E80F00079F87E80F00179B009302
:105AB0001CAD14AA28460ECA42F0CEFD95E80F0090
:105AC000079F139D87E80F00009596E80E0030466B
:105AD00042F00CFE94E79BE8030001AB139A83E8C5
:105AE0000300009296E80E00089842F08FFE9CE7B3
