:020000040800F2
:10000000F0FF0220B9890308B5FC0208C5FC02080C
:10001000D5FC0208E5FC0208F5FC0208000000001F
:10002000000000000000000000000000B1680308AC
:1000300005FD020800000000F16A030813FD020834
:10004000098A0308098A0308098A0308098A030838
:10005000098A0308098A030829FD0208098A030896
:100060005DFD0208098A0308098A0308098A030852
:10007000098A0308098A0308098A0308098A030808
:10008000098A0308098A0308098A0308098A0308F8
:10009000098A0308098A0308098A0308098A0308E8
:1000A000098A0308098A0308098A0308098A0308D8
:1000B000098A0308098A0308098A0308098A0308C8
:1000C000098A0308098A0308098A0308098A0308B8
:1000D000098A0308098A0308098A0308098A0308A8
:1000E000098A0308098A0308098A0308098A030898
:1000F000098A0308098A0308098A0308098A030888
:10010000098A0308098A0308098A0308098A030877
:10011000098A0308098A0308098A0308098A030867
:10012000098A0308098A0308098A0308098A030857
:10013000098A0308098A0308098A0308098A030847
:10014000098A0308098A0308098A0308098A030837
:10015000098A0308098A0308098A0308098A030827
:10016000098A0308098A0308098A0308098A030817
:10017000098A0308098A0308098A030800000000A5
:10018000098A0308098A0308098A0308098A0308F7
:10019000098A0308098A0308098A0308098A0308E7
:0C01A00009F10208098A030845F802086A
:1001B00010B5054C237833B9044B13B10448AFF3A1
:1001C00000800123237010BDB40500200000000052
:1001D00010AB030808B5034B1BB103490348AFF349
:1001E000008008BD00000000B805002010AB030827
:1001F00001FB00F370B59D00044605F118000E46A2
:1002000018F056FFF8B1104A104913680460A400B2
:100210001833C4600C6846602B44A34213604FF04F
:100220000002C8BF0B60C0E904220949094A0C68F2
:100230001268094922440C68134400F11805A342CE
:100240008560C8BF0B6070BD303300205433002080
:100250002C3300202033002034330020002A32D0F9
:10026000F8B5136813B15368042B01D00020F8BD12
:100270009368B3EB800FF9DB0446182016460D4651
:1002800018F016FF0028F2D0104A114F11683B6891
:1002900004601831346845601160B56884600022DC
:1002A00001249942C0E904420A4B0B4A1B681468B6
:1002B0000A4AC8BF396023441468C5600B44A3428E
:1002C000D5DD1360F8BD1046704700BF3033002005
:1002D00054330020203300202C33002034330020FE
:1002E00068B143695BB910B403690C4C216843B130
:1002F0001823CB1A23605DF8044B18F0DBBF18F00D
:10030000D9BFD0E9003202FB03F306339B00CB1ABE
:1003100023605DF8044B18F0CDBF00BF30330020E0
:1003200030B4DDE902530DB104698CB9D0E902049F
:1003300089009C6002FB0414044400210422C3E9E8
:1003400000420120D960C3E90411996130BC7047B3
:10035000002030BC704700BF01FB00F00630800079
:10036000704700BF01FB00F370B55D00044605F166
:1003700014000E4618F09CFEF0B1104A10491368A4
:10038000046064001433C4600C6846602B44A342CC
:1003900013604FF00002C8BF0B60026109490A4AAE
:1003A0000C681268094922440C68134400F11405D2
:1003B000A3428560C8BF0B6070BD00BF3033002012
:1003C000543300202C33002020330020343300200D
:1003D00058B103694BB9D0E90023054903FB02F387
:1003E0000A680A33A2EB43030B6018F063BF00BF37
:1003F0003033002010B4D0E902044900029B02FB14
:100400000412024402210020C3E90114D860C3E9A8
:10041000040098611A6001205DF8044B704700BF2A
:1004200001FB00F040007047002A30D0F8B5136897
:1004300013B15368022B01D00020F8BD9368B3EBD1
:10044000400FF9DB0446142016460D4618F030FE26
:100450000028F2D00F4A104F11683B680460143135
:10046000B46845603568116001229942C0E90342D1
:100470000A4B0B4A1B6814680A4AC8BF39602344F8
:10048000146885600B44A342D7DD1360F8BD1046A5
:10049000704700BF30330020543300202033002049
:1004A0002C3300203433002001FB00F370B55D00D5
:1004B000044605F114000E4618F0FAFDF0B1104A9A
:1004C00010491368046064001433C4600C6846600B
:1004D0002B44A34213604FF00002C8BF0B600261BF
:1004E00009490A4A0C681268094922440C681344F5
:1004F00000F11405A3428560C8BF0B6070BD00BF4A
:1005000030330020543300202C33002020330020CF
:1005100034330020B8B110B403690C4C216833B1F6
:100520001423CB1A23605DF8044B18F0C3BED0E946
:10053000003202FB03F30A335B00CB1A23605DF841
:10054000044B18F0B7BE18F0B5BE00BF3033002022
:1005500030B4DDE902530DB104698CB9D0E902046D
:1005600049009C6002FB0414044400210222C3E9F8
:1005700000420120D960C3E90411996130BC704781
:10058000002030BC704700BF01FB00F00A30400083
:10059000704700BF40EA024040EA036040EA0120A1
:1005A000704700BF42EA036343EA012343EA004085
:1005B000704700BF70B41C681D691E6A1B6B24095C
:1005C0002D0B05F47F4504F47F042C4385680068F7
:1005D000C6F307561B01344305FB02F203F07F43C9
:1005E00000EB81011C438C5070BC7047F0B41F6954
:1005F0001C68866805682409380B00F47F4004F401
:100600007F040443186A1B6BC0F307501B010443AB
:1006100003F07F4323431F0E8900FF2F06FB0212C6
:1006200034D0AC58200E34D08FB37E1CC6F5807108
:1006300000FB0111090A04F0FF1001FB00FCC4F3E8
:10064000072403F0FF1001FB04F406FB00C0C3F312
:1006500007233944000A06FB0343FE2900F0FF107C
:100660004FEA13230CD80D4C34F8114003F0FF135C
:1006700000FB04F0000A04FB03F300F0FF101B0A68
:100680001B0203F0FF2340EA01610B43AB50F0BCB7
:100690007047002FFAD1F0BC704700BFFC0A040875
:1006A00070B413681569166A146B00681A092D0B6B
:1006B00002F47F0205F47F452A43C6F3075624015E
:1006C000324304F07F44002942EA040205DD4B1E58
:1006D000013B591C40F8042BFAD170BC704700BF95
:1006E0002DE9F04714681669176A156B026824092A
:1006F000360B04F47F0406F47F463443C7F30757F0
:100700002D013C4305F07F45002944EA05044EDDF8
:10071000481E210E4B1C04F0FF16C4F30725DFF81A
:1007200094C0C3F5807703FB06F603FB05F506E0EE
:1007300001B114600138431C02F1040237D0FF29D3
:10074000F7D013685FEA1368F2D008FB07784FEA26
:10075000182803F0FF1908FB0969C3F3072308FBF6
:1007600003534FEA192901EB080E1B0A09F0FF1980
:100770000029DFD0BEF1FE0F0CD83CF81EA003F01C
:10078000FF1809FB0AF94FEA19290AFB08F309F0D7
:10079000FF191B0A1B0203F0FF2349EA0E6E43EA0E
:1007A0000E0301381360431C02F10402C7D1BDE8F7
:1007B000F08700BFFC0A040800292DE9F043136B01
:1007C00014681569166AD2F804C0D2F814E0D2F899
:1007D00024800768526B1CDD481E11011A01230991
:1007E0004FEA153909F47F4903F47F0343EA09030B
:1007F00002F07F4943EA0903C6F3075943EA0903B4
:10080000013847F8043B431C644475440A44464499
:10081000E5D1BDE8F08300BF2DE9F04F85B0536806
:1008200002930029536903930468D2F800C0D2F8F8
:1008300010E0D2F82080156BD2F824A0536B61DD54
:100840002D014F1E4FEA031B01950EE006B12360F8
:10085000029B9C44039B9E44019B013F5B4401938C
:100860007B1CD04404F104044CD04FEA1C134FEA23
:100870001E3202F47F4203F47F031343019A02F015
:100880007F421343C8F3075213431E0EFF2EDED0E0
:100890002268110EDAD006F10109C9F5807001FB5A
:1008A0000000000A054602F0FF1103F0FF1005FBEF
:1008B00001F1C2F3072209FB0011C3F3072305FB73
:1008C00002F2284609FB0322090A3044120A01F009
:1008D000FF11002EBCD0FE280CD80C4B33F8106052
:1008E00002F0FF1201FB06F1090A06FB02F201F019
:1008F000FF11120A120202F0FF2241EA00601043C7
:100900002060A5E705B0BDE8F08F00BFFC0A040831
:10091000002A0068096802F1FF3307DD021F51F861
:10092000040B42F8040F013B581CF8D1704700BF7C
:10093000002A2DE9F04100680C684ADD511E264D61
:1009400008E0BCF1000F00D0036001394B1C00F13E
:1009500004003ED054F8043B4FEA136CBCF1FF0F87
:10096000F2D00268170EECD00CF1010ECEF58076B5
:1009700007FB0666360A02F0FF1803F0FF1706FBB6
:1009800008F8C2F3072206FB02F20EFB0787C3F347
:1009900007230EFB03233F0A66441B0A07F0FF17D9
:1009A000BCF1000FD1D0FE2E0CD835F816C003F0E4
:1009B000FF12634607FB03F73F0A03FB02F307F04E
:1009C000FF171B0A1B0203F0FF2347EA06663343A7
:1009D000BAE7BDE8F08100BFFC0A0408002A30B481
:1009E00004681D6B086811DD2D150135511E50F886
:1009F000043B1A0E05FB02F2120A23F07F4343EA7E
:100A00000263013944F8043B4B1CF0D130BC704701
:100A1000002A2DE9F04300681C6B0D6850DD241599
:100A20000134511E274E0BE047EA0E07120202F076
:100A3000FF223A43026001394B1C00F104003FD011
:100A400055F8043B03F0FF17C3F3072C1B0E03FB01
:100A500004434FEA132303FB07F703FB0CF8EAD028
:100A600002685FEA126EC3F5807C0CD00EFB0CCCE2
:100A70004FEA1C2E02F0FF19C2F3072C73440EFB41
:100A800009770EFB0C8803F1FF3C3F0A4FEA0C6E1E
:100A900007F0FF174FEA1822002BC7D0BCF1FE0F5A
:100AA000C2D836F81C3007FB03F73F0A02F0FF12EA
:100AB00007F0FF1703FB02F247EA0E07120AB5E739
:100AC000BDE8F083FC0A0408002AF0B405680C684D
:100AD000D3E90C0711DD511E54F8043B06151A0E1C
:100AE00006FB022223F07F43120A43EA0263013924
:100AF00045F8043B4B1C3844EED1F0BC704700BFB6
:100B0000002A2DE9F04305680F68D3E90C6C51DD2C
:100B1000541EDFF8A4E00CE040EA0800090201F0EE
:100B2000FF2101432960013C631C05F10405664473
:100B300040D057F8042B02F0FF10C2F30721120E29
:100B40004FEA265802F1010308FB03334FEA13234F
:100B500003FB00F003FB01F1E5D02A685FEA1269AC
:100B6000C3F580780CD009FB08884FEA182802F0FA
:100B7000FF19C2F30722434408FB090008FB0211D6
:100B80005A1E000A4FEA026800F0FF10090A002B03
:100B9000C4D0FE2AC0D83EF8123000FB03F0000A91
:100BA00001F0FF1100F0FF1003FB01F140EA080023
:100BB000090AB3E7BDE8F083FC0A0408002A10B470
:100BC00000680B688C6908DD1A4413F8011B54F89F
:100BD000211040F8041B9342F7D15DF8044B704795
:100BE000002A2DE9F04300680C688D694DDD284E20
:100BF000224407E0BCF1000F00D00360944200F1F2
:100C0000040042D014F8013B55F823304FEA136C2E
:100C1000BCF1FF0FF1D001685FEA116EEAD00CF170
:100C20000108C8F580770EFB07773F0A01F0FF1E29
:100C300003F0FF1907FB0EFEC1F3072107FB01F1CB
:100C400008FB09EEC3F3072308FB03134FEA1E2E2C
:100C500067441B0A0EF0FF1EBCF1000FCED0FE2F22
:100C60000CD836F817C003F0FF110EFB0CFE4FEA4C
:100C70001E2E0CFB01F30EF0FF1E1B0A1B0203F0DD
:100C8000FF234EEA07673B43B7E7BDE8F08300BFA9
:100C9000FC0A0408002A70B404681D6B08688E6999
:100CA00012DD2D150135024410F8013B56F82330B2
:100CB000190E05FB01F1090A23F07F4343EA0163A2
:100CC000904244F8043BEFD170BC7047002A2DE9F4
:100CD000F0431E6B05680C688F6952DD36150136CE
:100CE000DFF8A4C022440AE040EA0800090201F04B
:100CF000FF2101432960A24205F1040541D014F807
:100D0000013B57F8233003F0FF10C3F307211B0EFC
:100D100003FB06634FEA132303FB00F003FB01F11F
:100D2000E9D0D5F800E05FEA1E69C3F580780CD001
:100D300009FB08884FEA18280EF0FF19CEF3072E9A
:100D4000434408FB090008FB0E1103F1FF3E000AB3
:100D50004FEA0E6800F0FF10090A002BC6D0BEF162
:100D6000FE0FC1D83CF81E3000FB03F0000A01F072
:100D7000FF1100F0FF1003FB01F140EA0800090A2F
:100D8000B4E7BDE8F08300BFFC0A0408002AF0B411
:100D900005688F690868D3E90C4C12DD024410F82D
:100DA000013B57F823302615190E06FB011123F0DD
:100DB0007F43090A43EA0163904245F8043B6444D7
:100DC000EDD1F0BC704700BF002A2DE9F047D1F803
:100DD00018C006680D68D3E90C7E52DDDFF8A880E4
:100DE0002A440BE044EA0904000200F0FF20044317
:100DF0003460AA4206F10406774442D015F8013B5C
:100E00005CF8231001F0FF14C1F30720090E4FEA2C
:100E1000275901F1010309FB03334FEA132303FBB5
:100E200004F403FB00F0E4D031685FEA116AC3F513
:100E300080790CD00AFB09994FEA192901F0FF1AB1
:100E4000C1F307214B4409FB0A4409FB0100591E69
:100E5000240A4FEA016904F0FF14000A002BC3D0F2
:100E6000FE29BFD838F8113004FB03F4240A00F03F
:100E7000FF1004F0FF1403FB00F044EA0904000A29
:100E8000B2E7BDE8F08700BFFC0A0408F0B41C68B4
:100E90001E691F6A1B6B006809682409360B04F47D
:100EA0007F0406F47F463443C7F307571B013C43D6
:100EB00003F07F43002A44EA030419DD0A44250EA7
:100EC00024F07F4607E01B0A46EA03638A42036078
:100ED00000F104000CD011F8013B002BF6D0FF2BE1
:100EE00003FB0553EFD18A42046000F10400F2D104
:100EF000F0BC70472DE9F04F1E681D691F6A1B6B1F
:100F00000468096836092D0B06F47F0605F47F4551
:100F10002E43C7F307571B013E4303F07F43002ACC
:100F200083B046EA03064DDD4FEA166E0A440EF121
:100F30000108C6F3072A06F0FF190196754611F855
:100F4000013BDBB3FF2B40D0C5B3D4F800C003FB9B
:100F500008831B0A5FEA1C6B03FB09F703FB0AF01B
:100F60000ED0C3F5807E0BFB0EEE4FEA1E2E0CF06A
:100F7000FF1BCCF3072C73440EFB0B770EFB0C000E
:100F80003F0A07F0FF17000A9BB1013BFE2B4FEA17
:100F9000036C23D8154E36F8133007FB03F73F0ACE
:100FA00000F0FF1007F0FF1703FB00F047EA0C0703
:100FB000000A000200F0FF20384320608A4204F15A
:100FC0000404BCD103B0BDE8F08FFF2DBCD1019B60
:100FD00023608A4204F10404B1D1F3E7000247EA36
:100FE0000C0700F0FF2038432060E7E7FC0A040804
:100FF0002DE9F04F83B00D6859681E681F69D3F85A
:1010000020C01C6BD3F81490D3F824A0D0F800E0D3
:101010000191002A5B6B31DD4FEA031B240105EBD4
:10102000020814E01A0EFF2800FB022223D0100A47
:1010300023F07F4242EA0062CEF80020019BA845DF
:101040001E444F44D4440EF1040E5C4416D03209C1
:101050003B0B02F47F0203F47F43134304F07F4110
:1010600015F8010BCCF307520B4313430028D9D1D9
:10107000CEF80000E2E7CEF80030DFE703B0BDE8CD
:10108000F08F00BF2DE9F04F002A07681C681D692A
:101090001E6A186BD3F80490D3F814E0D3F82480B8
:1010A00009685B6B87B040F385804FEA031A4346BB
:1010B0000001F04601EB020B00979E4611F8012B50
:1010C000002A6DD023094FEA153C0CF47F4C03F441
:1010D0007F0343EA0C0300F07F4C43EA0C03C6F3A2
:1010E000075C43EA0C03FF2A4FEA136C65D0BCF19E
:1010F000000F55D00CF1010C02FB0CCC4FEA1C2761
:10110000009A019703F0FF1CC3F3072302931268B0
:10111000029B07FB0CFC07FB03F31746120E02931E
:1011200019D0019BC3F5807302FB0332130A07F049
:10113000FF1204920393C7F30722019F039B0592BA
:101140003A461A440192049A029F03FB02CC059A84
:1011500003FB02730293029B1F0A019B4FEA1C2CA4
:101160000CF0FF1CABB15A1E1306FE2A019328D8BF
:10117000184B33F8122007F0FF130CFB02FC02FBA4
:1011800003F34FEA1C2C019A0CF0FF1C4CEA020CF2
:101190001F0A3B0203F0FF2343EA0C03009A13608B
:1011A000009B594503F104034C44454476440093A5
:1011B000504483D107B0BDE8F08FBCF1FF0F96D14A
:1011C000ECE74CEA030C3B0203F0FF2343EA0C0379
:1011D000E4E700BFFC0A0408002A30B400680C6889
:1011E0001BDD04EB420234F8021BCB08CD0003F0F8
:1011F000FC03EDB243EA9313090A45EA032301F025
:10120000F80143EA551341EA511143EA014343F01F
:101210007F43944240F8043BE5D130BC704700BFA7
:10122000002AF0B41E6B05680C6825DD3615013602
:10123000360604EB420204E03343A24245F8043B85
:101240001AD034F8027B380AFB0000F0F800F908E5
:10125000DBB201F0FC0140EA501043EA531343EAC9
:10126000004341EA911143EA0123002FE4D13346C0
:10127000A24245F8043BE4D1F0BC7047002A2DE9B6
:10128000F0411B6B04680D6861DD18150130314FAA
:10129000043C05EB4202C0F5807608E041EA080113
:1012A0001B0203F0FF230B43954223604FD035F818
:1012B00002EB54F804CF4FEA1E234FEACE0103F0AD
:1012C000F803C9B24FEADE0E41EA511143EA531363
:1012D0000EF0FC0E41EA03434EEA9E1E43EA0E2343
:1012E0005FEA1C6E03F0FF110EFB066EC3F30723CB
:1012F0004FEA1E2E0CF0FF1801FB00F1CCF3072C77
:1013000003FB00F31BBF0EFB08110EFB0C338446DE
:1013100000EB0E0C0CF1FF3E090A4FEA0E6801F0DB
:10132000FF111B0ABCF1000FBAD0BEF1FE0FB5D8F9
:1013300037F81EC001FB0CF1090A03F0FF1301F09E
:10134000FF110CFB03F341EA08011B0AA8E7BDE803
:10135000F08100BFFC0A0408002AF0B506680C689A
:10136000D3E90C5722DD04EB420234F8023B4FEA8A
:10137000255C180AD9003D444FEAD30E00F0F8006E
:10138000C9B20CF1010C5BB10EF0FC0340EA501045
:1013900041EA511143EA931341EA004141EA032330
:1013A00043EA0C63944246F8043BDED1F0BD00BF33
:1013B000002A2DE9F04300680C68D3E90C5662DD81
:1013C000324F043804EB420209E041EA08011B02F3
:1013D00003F0FF230B4394420360354453D034F8A9
:1013E00002EB50F804CF4FEA1E234FEACE0103F080
:1013F000F803C9B24FEADE0E41EA511143EA531332
:101400000EF0FC0E41EA03434EEA9E1E43EA0E2311
:101410004FEA255E0EF1010E03F0FF115FEA1C6931
:10142000C3F3072301FB0EF103FB0EF3CEF5807827
:101430000CD009FB08884FEA18280CF0FF19CCF3F0
:10144000072CC64408FB091108FB0C330EF1FF3CC6
:10145000090A4FEA0C6801F0FF111B0ABEF1000FE8
:10146000B5D0BCF1FE0FB0D837F81CC001FB0CF1B1
:10147000090A03F0FF1301F0FF110CFB03F341EA2B
:1014800008011B0AA3E7BDE8F08300BFFC0A0408BB
:101490002DE9F043002A0468D1F80880D1F800E073
:1014A0000B9DDDE9070CDDE9097617DD4FEAA80899
:1014B000511E02134FEA233905FB02F206FB09F91C
:1014C00012144FEA294908FB029201395EF82220E2
:1014D00044F8042B4A1C38446344EAD1BDE8F08345
:1014E0002DE9F04F8C680968D0F800B083B0002A6D
:1014F00000914FEAA401DDF8309001916BDD02F11B
:10150000FF384A1C4FEA820A0F98019D191300FB0D
:1015100001F110984FEA293200FB02F2091312136D
:101520000839083A1411081105FB0400009C04EB6B
:10153000800E02F00F0201F00F01DEF8045054F8A3
:1015400020405EF80A00C2F1100C01FB0CFCC1F156
:10155000100602FB06F62F0A02FB01F2D644CCF578
:10156000807105F0FF15891B07F0FF17891A0CFB26
:1015700005F55EF804EC0CFB07F74FEA142C04F0B9
:10158000FF1401FB04540CF0FF1C050A00F0FF10CF
:1015900001FB0C7C02FB00444FEA1E2105F0FF1505
:1015A0000EF0FF1E02FB05CC01F0FF110D9A06FBA9
:1015B0000E4406FB01C1240A01F0FF2104F0FF14D0
:1015C00008F1FF3813440E9A2143B8F1FF3F9144CC
:1015D0004BF8041B98D103B0BDE8F08F2DE9F04F14
:1015E00083B0002A8C680568D1F80090DDF840A02F
:1015F000DDE90CCB5BDD4FEAA40E571E01930BE037
:1016000006B12C60019B0E9A5B44013F01937B1C49
:10161000944405F104054AD0019B0F984FEA2C32FF
:1016200019130AFB02F200FB01F1121409140EFB5C
:10163000021259F82240260EFF2EE2D02A68110E1F
:10164000DED006F10108C8F5807001FB0000030A36
:1016500002F0FF1104F0FF1003FB01F1C2F30722B7
:1016600008FB0011C4F3072403FB02F2184608FB31
:101670000422090A3044120A01F0FF11002EC1D0E1
:10168000FE280CD80B4C34F8106002F0FF1201FB5E
:1016900006F1090A06FB02F201F0FF11120A12021A
:1016A00002F0FF2241EA006010432860AAE703B07D
:1016B000BDE8F08FFC0A04082DE9F04F8C6809683A
:1016C000D0F8008083B0002A00914FEAA401DDF831
:1016D00030A0019140F3AE8002F1FF394A1C4FEA7D
:1016E000820B0EE00CB1C8F800600D9A09F1FF39C9
:1016F00013440E9AB9F1FF3F924408F1040800F038
:1017000099800F98019D191300FB01F110984FEA81
:101710002A3200FB02F2091312130839083A141195
:10172000081105FB0400009C04EB800E02F00F0280
:1017300001F00F01DEF8045054F820405EF80B0071
:10174000C2F1100C01FB0CFCC1F1100602FB06F605
:101750002F0A02FB01F2DE44CCF58071891B05F0F3
:10176000FF1507F0FF170CFB05F5891A5EF804EC6E
:101770000CFB07F74FEA142C04F0FF1401FB045490
:101780000CF0FF1C050A00F0FF1001FB0C7C05F0BB
:10179000FF154FEA1E2102FB00440EF0FF1E06FB60
:1017A0000E4402FB05CC01F0FF1106FB01C6240A22
:1017B00004F0FF1406F0FF262643340EFF2C92D0CF
:1017C000D8F80020110E8DD0651CC5F5807001FB86
:1017D0000000000A02F0FF1106F0FF1700FB01F104
:1017E000C2F3072200FB02F205FB0711C6F307262E
:1017F00005FB0622090A2044120A01F0FF11002C01
:101800003FF473AFFE280CD80C4C34F8104002F0B3
:10181000FF1201FB04F1090A04FB02F201F0FF11BF
:10182000120A120202F0FF2241EA00611143C8F8D5
:1018300000105AE703B0BDE8F08F00BFFC0A0408AF
:101840002DE9F04F83B00768119E8C68306BD1F89A
:1018500000A0316D0C9D001501304FEAA40B00294A
:1018600061D1716DB1FA81FE4FEA5E1E002A02F16C
:10187000FF344BDDF14601970F991A1301FB02F279
:1018800010994FEA253801FB08F812144FEA28484E
:1018900008FB0B215AF82110B9F1000F23D1306D4C
:1018A000D6F830C0B76BD6F854E090B3B8F1000F5B
:1018B00034D0706B00FB08CCBEF1000F31D0F06B60
:1018C00000FB08700746604652B14FEA2C58B06CD6
:1018D000C8EB275E0CF07F6C00FB0EF002FB00C033
:1018E000C0F3075001300A0E00FB02F2120A21F089
:1018F0007F4141EA02610D9A13440E9A1544019A00
:1019000042F8041B013C0192621CB5D103B0BDE852
:10191000F08F6046BEF1000FD6D1E1E7BEF1000FB7
:10192000D1D16046DCE74FF0000E9FE72DE9F04F84
:1019300087B00068DDF854808D68D8F830400968B9
:101940000190D8F8500004912415A910DDF84090BA
:10195000029104F1010A002840F0BF80D8F8541029
:10196000B1FA81F149090391002A02F1FF3B40F3EA
:10197000A780029A0093013292000592009B1913EE
:10198000139B03FB01F1149B4FEA293703FB07F775
:10199000039B0A133D134BBBD8E91430D8F83040F1
:1019A000D8F83860002B00F08E803F1400F0908053
:1019B000D8F8343003FB0744002800F08C80D8F8B6
:1019C0003C0000FB0766A24609140BD04FEA245ADC
:1019D000D8F84800CAEB265604F07F6400FB06FAEC
:1019E00001FB0A4ACAF3075A0AF1010A083A083DFC
:1019F000029B049C1111281103FB001004EB8001D1
:101A000005F00F054E68059B54F82040C85802F0B9
:101A10000F02C5F1100E02FB0EFEC2F1100705FB0E
:101A200007F705FB02F219444FEA162CCEF5807534
:101A300006F0FF16ED1B0CF0FF1CAD1A0EFB06F6B0
:101A400051F8041C119B0EFB0CFC4FEA142E04F001
:101A5000FF1405FB04640EF0FF1E060A00F0FF10E1
:101A600002FB004405FB0ECE06F0FF160D0A01F046
:101A7000FF1102FB06EE05F0FF1507FB014407FB13
:101A800005EE240A009A0EF0FF2E04F0FF144EEA31
:101A9000040E4FEA1E601A44129B00920AFB00F0EB
:101AA000000A2EF07F4E9944019B4EEA00600BF134
:101AB000FF3B43F8040BBBF1FF3F01937FF45EAFA4
:101AC00007B0BDE8F08FA24600287FF47DAF89E71C
:101AD00000287FF478AFA24684E70021039143E712
:101AE0002DE9F04F83B00568119F8C68386BD1F8F1
:101AF00000E0396D0C9E001501304FEAA40B00295F
:101B000040F09F80796DB1FA81F149090091002A76
:101B100002F1FF3477DD0190F2460F9A0098191315
:101B200002FB01F1109A4FEA263802FB08F809146B
:101B30004FEA284808FB0B125AF8222028BB386DC0
:101B4000D7F830C0D7F838E0D7F8549000285DD0E7
:101B5000B8F1000F70D0786B00FB08CCB9F1000F22
:101B60006DD0F86B00FB08EE604651B14FEA2C587F
:101B7000B86CC8EB2E5E0CF07F6C00FB0EF001FB26
:101B800000C0C0F30750411C0191110E32D00198E2
:101B9000D5F800C001FB0001090A02F0FF1E5FEA50
:101BA0001C69C2F3072201FB0EFE01FB02F20ED0FC
:101BB000C1F5807809FB08884FEA18280CF0FF1956
:101BC000CCF3072C414408FB09EE08FB0C224FEA3A
:101BD0001E2E0EF0FF1E120A31B10139FE294FEA06
:101BE000016C18D94EEA0C0E120202F0FF2242EAF2
:101BF0000E022A600D9A13440E9A013C1644621C90
:101C000005F1040589D103B0BDE8F08F6046B9F154
:101C1000000FAAD1B5E70C4830F811100EFB01FEF9
:101C20004FEA1E2E02F0FF120EF0FF1E01FB02F221
:101C30004EEA0C0E120AD7E7B9F1000F94D16046B4
:101C40009FE70021009162E7FC0A04082DE9F04FAC
:101C500087B08D68DDF854800968D8F83040D0F836
:101C600000E004912415611CD8F850000291A910DD
:101C7000DDF840900191002840F0FB80D8F8541026
:101C8000B1FA81F149090391002A02F1FF3B40F3C7
:101C9000D280019A0093013292000592009B1F139B
:101CA000139B03FB07F7149B4FEA293403FB04F44F
:101CB000039B3A1321135BBBD8F85000D8F830507F
:101CC000D8F83860D8F854C0002800F0B780241441
:101CD00000F0C980D8F8340000FB0455BCF1000FB7
:101CE00000F0C580D8F83C0000FB046628463F148D
:101CF0000AD02C15D8F84800C4EB265605F07F65AD
:101D000000FB06F007FB0050C0F30750431C029392
:101D1000A2F10806019B049DA1F1080214113111E2
:101D200003FB041405EB840102F00F0206F00F061A
:101D30004F68059B55F82450CC58C2F1100006FBA3
:101D400000F0C6F1100C02FB0CFC4FEA172A02FB54
:101D500006F21944C0F580760AF0FF1A07F0FF1763
:101D6000A6EB0C0600FB07F7B61A51F8041C00FBA3
:101D70000AF04FEA152A05F0FF150AF0FF1A06FBD4
:101D80000575270A04F0FF1406FB0A0002FB045441
:101D90004FEA112A07F0FF1701F0FF1102FB0700BD
:101DA0000CFB01440AF0FF1A0CFB0A00240A00F0A5
:101DB000FF2004F0FF120243110E2ED0029BDEF82A
:101DC000004001FB0331090A02F0FF10260EC2F3A6
:101DD000072201FB00F001FB02F20DD0C1F5807576
:101DE00006FB05552D0A04F0FF16C4F30724294409
:101DF00005FB060005FB0422000A00F0FF10120A92
:101E000029B10139FE294FEA01641DD9204312028C
:101E100002F0FF221043CEF80000119B009A0BF154
:101E2000FF3B1A44129B0092BBF1FF3F99440EF115
:101E3000040E7FF433AF07B0BDE8F08F2846BCF145
:101E4000000F7FF454AF5FE70B4B33F8111000FB2A
:101E500001F0000A02F0FF1200F0FF1001FB02F295
:101E60002043120AD3E7BCF1000F7FF43FAF2846AE
:101E70004AE70021039107E7FC0A04082DE9F0472F
:101E8000002A0468D1F80090D1F81880D1F808E051
:101E90000C9DDDE9080CDDE90A7617DD511E021301
:101EA0004FEA233A05FB02F2121406FB0AFA0EFB74
:101EB00002924FEA2A4A013912F80A2058F82220E1
:101EC00044F8042B4A1C38446344E8D1BDE8F08749
:101ED0002DE9F04F85B000680190D1F818800868AE
:101EE00089680290002A0391DDF838A072DD02F1C2
:101EF000FF3901F1010B1198039D029E191300FB9C
:101F000001F112984FEA2A3200FB02F20913121370
:101F10000839083A0811141105FB0404301902F0BD
:101F20000F024578345D58F8256058F8245010F8B1
:101F30000B4001F00F01C2F1100E01FB0EFEC1F1CA
:101F4000100702FB07F74FEA162C02FB01F2584478
:101F5000CEF5807158F8244010F8010C06F0FF16F9
:101F6000C91B0CF0FF1C891A0EFB06F60EFB0CFCBD
:101F70004FEA152E05F0FF1501FB05650EF0FF1E5B
:101F8000260A58F8200001FB0ECE04F0FF1406F0DC
:101F9000FF1602FB045502FB06EE0F9A010A00F041
:101FA000FF1001F0FF1107FB00551344109A07FBC7
:101FB00001EE2D0A0EF0FF2E05F0FF159244019A56
:101FC0004EEA050509F1FF3942F8045BB9F1FF3F1C
:101FD000019290D105B0BDE8F08F00BF2DE9F04F20
:101FE000002A83B00568D1F80080D1F81890D1F8A4
:101FF00008A0DDE90CCB5BDD571E01930BE006B1B9
:102000002C60019B0E9A5B44013F01937B1C94441E
:1020100005F104054CD0109A019B0F984FEA2C3122
:1020200002FB01F11A13091400FB02F20AFB018101
:1020300012148A5C59F82240260EFF2EE0D02A683E
:10204000110EDCD006F1010ECEF5807001FB000010
:10205000030A02F0FF1104F0FF1003FB01F1C2F3C9
:1020600007220EFB0011C4F3072403FB02F21846FB
:102070000EFB0422090A3044120A01F0FF11002E5F
:10208000BFD0FE280CD80C4C34F8106002F0FF12C0
:1020900001FB06F1090A06FB02F201F0FF11120A28
:1020A000120202F0FF2241EA006111432960A8E711
:1020B00003B0BDE8F08F00BFFC0A04082DE9F04F23
:1020C00085B0D0F80090D1F8188008688968019030
:1020D000002A0291DDF838B040F3B38002F1FF3AF4
:1020E0004A1C03920EE00CB1C9F800700F9A0AF175
:1020F000FF3A1344109ABAF1FF3F934409F10409DF
:1021000000F09F801198029D019E039F191300FB10
:1021100001F112984FEA2B3200FB02F2091312135D
:102120000839083A0811141105FB04043019345D0C
:10213000457802F00F0201F00F0158F8256058F8B9
:102140002450C45DC2F1100E384401FB0EFEC1F1F3
:10215000100702FB07F74FEA162C02FB01F210F8FA
:10216000010C58F8244058F82000CEF58071C91BA6
:1021700006F0FF160CF0FF1C0EFB06F6891A0EFB8C
:102180000CFC4FEA152E05F0FF1501FB05650EF05E
:10219000FF1E260A04F0FF1401FB0ECE02FB0455BD
:1021A000010A06F0FF1600F0FF1007FB005502FBC6
:1021B00006EE01F0FF1107FB01EE2D0A0EF0FF2ED7
:1021C00005F0FF154EEA05073C0EFF2C8CD0D9F820
:1021D0000020110E87D0651CC5F5807001FB000042
:1021E000000A02F0FF1107F0FF1600FB01F1C2F335
:1021F000072200FB02F205FB0611C7F3072705FBC8
:102200000722090A2044120A01F0FF11002C3FF4B2
:102210006DAFFE280CD80C4C34F8104002F0FF12C1
:1022200001FB04F1090A04FB02F201F0FF11120A9A
:10223000120202F0FF2241EA00611143C9F80010C6
:1022400054E705B0BDE8F08FFC0A04082DE9F04F13
:1022500083B00768119E0C9D306B346DD1F800A0DF
:10226000D1F81880D1F808B000150130002C64D1E5
:10227000716DB1FA81FE4FEA5E1E002A02F1FF3451
:1022800050DDF1460097D646C246109A0F994FEAA4
:10229000253802FB08F81A1301FB02F24FEA28481E
:1022A00008FB0BE11214895C5AF82110B9F1000FF8
:1022B00025D1306DB76B0197D6F830C0776D002807
:1022C00033D0B8F1000F34D0706B00FB08CC002F76
:1022D00031D0019FF06B00FB0870019060465AB14D
:1022E000019FB06C4FEA2C58C8EB27580CF07F6C5C
:1022F00000FB08F002FB00C0C0F3075001300A0EDB
:1023000000FB02F2120A21F07F4141EA02610D9ABC
:1023100013440E9A1544009A42F8041B013C0092A3
:10232000621CB2D103B0BDE8F08F6046002FD6D159
:10233000E2E7002FD2D16046DEE74FF0000E9CE7C7
:102340002DE9F04F87B00068DDF854800090D8F890
:102350003040D8F85000D1F818A0DDF8409024158E
:10236000013401940C68896804940291002840F0BB
:10237000C180D8F85410B1FA81F149090391002ABB
:1023800002F1FF3B40F3A980029A013205921398B3
:10239000039C191300FB01F114984FEA293200FB4A
:1023A00002F21513081344BBD8E91474D8F830604E
:1023B000D8F838C0002F00F09380121400F09580F8
:1023C000D8F8347007FB0266002C00F09180D8F832
:1023D0003C4004FB02CC324609140AD03415D8F82C
:1023E0004820C4EB2C5706F07F6602FB07F201FB86
:1023F0000262C2F3075201320192A5F108020838C5
:10240000029D049E059F0111141105FB041431194E
:10241000345D4D7802F00F025AF825605AF82450C6
:10242000CC5D00F00F00C2F1100E394400FB0EFE2F
:10243000C0F1100702FB07F711F8011C5AF82440FD
:102440005AF8211002FB00F24FEA162CCEF58070EC
:1024500006F0FF16C01B0CF0FF1C801A0EFB06F6E0
:102460000EFB0CFC4FEA152E05F0FF1500FB056571
:102470000EF0FF1E260A04F0FF1402FB045500FBB9
:102480000ECE06F0FF16080A01F0FF1102FB06EE61
:1024900000F0FF1007FB015507FB00EE2D0A0EF0C0
:1024A000FF2E05F0FF154EEA050E019A4FEA1E6455
:1024B00002FB04F4119A1344129A240A2EF07F4E60
:1024C0009144009A4EEA04640BF1FF3B42F8044B3E
:1024D000BBF1FF3F00927FF45AAF07B0BDE8F08F29
:1024E0003246002C7FF478AF83E7002C7FF473AF83
:1024F00032467EE70021039141E700BF2DE9F04F0E
:1025000085B00568139F8E69386B3C6DDDF838C067
:10251000D1F800E0029600150130D1F808B0002C87
:1025200040F0A280796DB1FA81F149090191002A48
:1025300002F1FF347ADD0390F2466646129A029861
:102540004FEA263802FB08F8119A191302FB01F131
:102550004FEA284808FB0BA20914525C50F82220CD
:10256000019828BB386DD7F830C0D7F838E0D7F8D5
:10257000549000285DD0B8F1000F70D0786B00FB4C
:1025800008CCB9F1000F6DD0F86B00FB08EE604687
:1025900051B14FEA2C58B86CC8EB2E5E0CF07F6C32
:1025A00000FB0EF001FB00C0C0F30750411C03917B
:1025B000110E32D00398D5F800C001FB0001090AC2
:1025C00002F0FF1E5FEA1C69C2F3072201FB0EFE48
:1025D00001FB02F20ED0C1F5807809FB08884FEAB2
:1025E00018280CF0FF19CCF3072C414408FB09EE26
:1025F00008FB0C224FEA1E2E0EF0FF1E120A31B10C
:102600000139FE294FEA016C18D94EEA0C0E12026C
:1026100002F0FF2242EA0E022A600F9A1344109A37
:10262000013C1644621C05F1040587D105B0BDE8E4
:10263000F08F6046B9F1000FAAD1B5E70C4830F829
:1026400011100EFB01FE4FEA1E2E02F0FF120EF0DB
:10265000FF1E01FB02F24EEA0C0E120AD7E7B9F197
:10266000000F94D160469FE7002101915FE700BF12
:10267000FC0A04082DE9F04F87B0D0F80090DDF88F
:102680005480D1F818A0D8F83040D8F8500024155C
:10269000013402940C68896804940191002840F088
:1026A000FF80D8F85410B1FA81F149090391002A4A
:1026B00002F1FF3B40F3D680019A01320592109A55
:1026C00003981413139A1F1302FB07F7149A02FBC3
:1026D00004F421133A1358BBD8F85000D8F83050FE
:1026E000D8F83860D8F854C0002800F0BE80241410
:1026F00000F0D080D8F8340000FB0455BCF1000F86
:1027000000F0CC80D8F83C0000FB046628463F145B
:102710000AD02C15D8F84800C4EB265605F07F6582
:1027200000FB06F007FB0050C0F307500130029099
:10273000A2F10806019C049DA1F1080210113111BB
:1027400004FB00102918285C4C785AF820505AF8DD
:102750002470059C02F00F0206F00F0611F804E049
:10276000C2F11000214406FB00F0C6F1100C02FB80
:102770000CFC5AF82E4011F8011C02FB06F24FEA3D
:10278000172EC0F580760EF0FF1E07F0FF17A6EBA0
:102790000C0600FB07F7B61A5AF8211000FB0EF0E2
:1027A0004FEA152E05F0FF150EF0FF1E06FB05750E
:1027B000270A04F0FF1406FB0E0002FB04544FEA44
:1027C000112E07F0FF1701F0FF1102FB07000CFBB1
:1027D00001440EF0FF1E0CFB0E00240A00F0FF2047
:1027E00004F0FF120243110E2ED00298D9F80040D7
:1027F00001FB0001090A02F0FF10260EC2F30722B6
:1028000001FB00F001FB02F20DD0C1F5807506FB63
:1028100005552D0A04F0FF16C4F30724294405FBCF
:10282000060005FB0422000A00F0FF10120A29B17D
:102830000139FE294FEA01641DD92043120202F03A
:10284000FF221043C9F80000119A12991344109AFC
:102850000BF1FF3B0A44BBF1FF3F109209F1040961
:102860007FF42DAF07B0BDE8F08F2846BCF1000F14
:102870007FF44DAF58E70C4D35F8111000FB01F017
:10288000000A02F0FF1200F0FF1001FB02F22043E9
:10289000120AD3E7BCF1000F7FF438AF284643E7B4
:1028A0000021039103E700BFFC0A04082DE9F04F63
:1028B0008BB0D0F800A0DDF86490DDF850C0D9F8F6
:1028C00050009B460B6803938B680493002840F0EC
:1028D000F480D9F85430B3FA83F35B090293D9F842
:1028E0000040D9F81010D9F82030D9F83000240968
:1028F000090B04F47F0401F47F410C43C3F3075335
:1029000000011C4300F07F40002A44EA000402F169
:10291000FF3740F3BC802646189B17994FEA2C32AC
:1029200003FB02F24FEA2B3301FB03F3DDE9030162
:10293000121402FB01011B140298C95C002840F02C
:102940008F80D9F830600196D9F808600696D9F8DA
:102950002860D9F818400896D9F85050D9F8546032
:102960000794D9F838400994D9F80080D9F81000B4
:10297000D9F820E03446002D00F08C80002A00F0C9
:102980009480D9F81450D9F8046005FB0200D9F8F6
:10299000245006FB028805FB02EE019ED9F8345054
:1029A00005FB02650195002C00F08180069CD9F89A
:1029B0000C60D9F81C5006FB0246079C069605FBE6
:1029C0000245089E0795D9F82C50099C05FB026525
:1029D0000895D9F83C5005FB02420992019ACDF8BE
:1029E00014E04646054663B3D9F8482002FB03F3DA
:1029F000069A4FEA2856C6EB225608F07F620592E7
:102A0000079A051500F07F6808984FEA2E54C5EB29
:102A10002255019AC4EB2050099C1215C2EB245296
:102A2000059C06920EF07F6E019A03FB064603FB9F
:102A300000E40698059402F07F6203FB058503FB22
:102A4000002236092D0B059B06F47F0605F47F4511
:102A50002E43C3F307501201064302F07F42164390
:102A600049B1FF291ED0330E01FB0331090A26F0BC
:102A70007F4343EA0161CAF80010159B9B44169BF3
:102A8000013F9C447B1C0AF1040A7FF445AF0BB064
:102A9000BDE8F08F46460546CDF814E0019A002CBB
:102AA000A1D1CEE7CAF80060E7E7002E96D14646EE
:102AB0000546CDF814E0019AC3E7002302930EE720
:102AC0002DE9F04F8DB0D0F80090DDF86CB09A464B
:102AD000DBF850000B6805938B680393002840F0E7
:102AE0003581DBF85430B3FA83F35B090493DBF8E8
:102AF0000040DBF81030DBF82000DBF83010240950
:102B00001B0B04F47F0403F47F432343C0F30750FB
:102B10000901034301F07F41002A43EA010402F165
:102B2000FF3840F31081039B019401330693DDF8D5
:102B300058E0C3E01B1400F0FD80DBF81440DBF824
:102B40002400DBF83410DBF8045004FB0377029C0C
:102B500000FB0340019C0290079801FB034105FB29
:102B600003660191002800F0E980DBF80C50DBF8E7
:102B70003C1007912946089DDBF81C40DBF82C002F
:102B800001FB03550895099D04FB035109910A9D1A
:102B90000B9C079900FB035001FB03430A900B9326
:102BA000DDE901033446394612142CD0089BDBF8CA
:102BB0004800029D3415C4EB235300FB02F2079337
:102BC00009980A9B2C153915C4EB2353C1EB2051EE
:102BD000019802930B9B0015C0EB23530893079BAE
:102BE000019806F07F6602FB0364029B05F07F6597
:102BF00002FB0353089D07F07F6700F07F6002FB34
:102C0000017102FB05002409090B04F47F0401F49F
:102C10007F41C3F307530C4300011C4300F07F4086
:102C200044EA00030193009B0399059CA3F1080269
:102C3000ACF1080C4FEA2C13171102F00F0201FB44
:102C400007370CF00F0CC2F110030CFB03F3CCF1AF
:102C5000100602FB06F6C3F58071E519891BE75DD6
:102C60000091069C6878009902FB0CF205EB040CBD
:102C7000891A03FB00F32D5D1CF801CC07FB01331F
:102C800002FB053206FB0C22120A0AD0FF2A4DD0A5
:102C900001990B0E02FB0332120A21F07F4343EA33
:102CA0000262C9F80020179B08F1FF389A44189B6C
:102CB000B8F1FF3F9E4409F1040944D019994FEA45
:102CC0002A3201FB02F21A994FEA2E3301FB03F379
:102CD0001913009104994FEA223C0029A3D1DBF893
:102CE0002000DBF83040DBF818500290DBF8501081
:102CF000DBF80800019408900995DBF83840DBF810
:102D00002850DBF85400DBF80060DBF810700A95FF
:102D10000B94079000297FF40DAF079D3446394688
:102D2000DDE90103002D7FF43FAF6CE7019BC9F89B
:102D30000030B8E7079B002B7FF432AF34463946AA
:102D4000DDE901035FE70DB0BDE8F08F00230493D8
:102D5000CDE600BF2DE9F04F8BB00768DDF864C009
:102D6000DDF850B0DCF850009A460B6802938B688F
:102D70000393002840F03481DCF85430B3FA83F335
:102D80005B090193DCF80040DCF81010DCF820301F
:102D9000DCF830002409090B04F47F0401F47F41BE
:102DA0000C43C3F3075300011C4300F07F40002A8B
:102DB00044EA000402F1FF3940F3B780D646009799
:102DC000CA46189B17994FEA2B3203FB02F24FEACF
:102DD0002E3301FB03F3DDE90201121402FB0101B2
:102DE0001B140198C95C002840F08D80DCF8085065
:102DF000DCF818600695DCF85000DCF828500796DF
:102E00000895DCF83860DCF85450DCF80040DCF859
:102E10001070DCF82080DCF83090099605950028C9
:102E200000F0CA80002A00F0D180DCF81450DCF8F1
:102E30000460DCF8340006FB024405FB0277DCF892
:102E40002460059D06FB028800FB0299002D00F01E
:102E5000C180DCF80C60DCF83C0004903046069E33
:102E6000DCF81C5000FB02660696079E05FB02601C
:102E7000DCF82C5007902846089D099E00FB02555F
:102E80000498089500FB026209922546384642469E
:102E9000CDF8109043B3DCF84820251504F07F6688
:102EA000079C381502FB03F3C0EB2450069A0490EC
:102EB0000898C5EB22554FEA2852C2EB20520998D8
:102EC0004FEA2954C4EB2054049807F07F6708F0B8
:102ED0007F6809F07F6903FB056503FB007003FB56
:102EE000028203FB049304932D09000B049B05F459
:102EF0007F0500F47F400543C2F307521B011543D1
:102F000003F07F442C43FF294FEA146310D089B9A2
:102F1000159B9E44169B9B44009B0AF1FF3A043389
:102F2000BAF1FF3F00937FF44CAF0BB0BDE8F08FD8
:102F3000FF2B3ED0002BEBD0009A0133106801FB31
:102F40000333190A04F0FF12C4F30723070E01FB31
:102F500002F201FB03F30DD0C1F5807507FB0555A7
:102F60002D0A00F0FF17C0F30720294405FB0722B4
:102F700005FB0033120A02F0FF121B0A91B101395E
:102F8000FE294FEA01602ED8184D35F8111002FBCA
:102F900001F2120A03F0FF1302F0FF1201FB03F328
:102FA00002431B0A1B0203F0FF231A43009B1A6013
:102FB000AEE7009B1C60ABE7059ECDF81090254660
:102FC00038464246002E7FF465AF8DE7059A002A09
:102FD0007FF45BAF254638464246CDF8109083E734
:102FE00000230193CEE60243DCE700BFFC0A04089D
:102FF0002DE9F04F8DB00068DDF86CA00090984688
:10300000DAF850000B6806938B68DDF858B004932B
:10301000002840F06F81DAF85430B3FA83F35B098B
:103020000593DAF80040DAF81030DAF82000DAF820
:10303000301024091B0B04F47F0403F47F43234363
:10304000C0F307500901034301F07F41002A43EA1E
:10305000010402F1FF3940F34A81049B0133CE465B
:103060000193C446D9460FE0002F40F0EB80179B38
:103070009C44189B9944009B0EF1FF3E0433BEF123
:10308000FF3F009300F0338119994FEA2C3201FB86
:1030900002F21A994FEA293301FB03F305994FEA2B
:1030A000223B4FEA2338002940F09380DAF8304081
:1030B0000394DAF80840DAF818600894DAF8500057
:1030C000DAF82840DAF8205009960A94DAF83860DD
:1030D000DAF85440DAF80070DAF8101002950B961E
:1030E0000794002800F0F1801B1400F0F780DAF854
:1030F0002440029DDAF80460DAF8340004FB03553A
:10310000039C029500FB034006FB0377079CDAF85B
:103110001460039006FB0311002C00F0E380089E6E
:10312000DAF80C50DAF82C40DAF83C0005FB0365BD
:103130000895099EDAF81C5005FB03650A9E09955F
:1031400004FB03640B9E0A9400FB03630B93DDE90D
:1031500002353C46084612142DD0DAF84830099E54
:10316000039D03FB02F2089B3C150815C4EB235496
:10317000029BC0EB26502E150A9D1B15C3EB25554F
:10318000029B079503F07F6533460B9EC3EB2656E3
:10319000039B029601F07F6103F07F6602FB001043
:1031A000079B029907F07F6702FB035302FB04743D
:1031B00002FB016215462409000B04F47F0400F4AD
:1031C0007F400443C3F307532D011C4305F07F45A3
:1031D0002C43A8F10808ABF1080B049A069F4FEAAC
:1031E0002B134FEA281602FB0636BD1908F00F080C
:1031F0000BF00F0B6878BE5D019FC8F110030BFB4D
:1032000003F3CBF1100108FB01F1C3F5807203FB5E
:1032100000F3019808FB0BF8EF19521AA2EB080211
:103220002D5C17F8017C06FB023308FB053801FB17
:1032300007884FEA1827FF2F4FEA14637FF414AF73
:10324000FF2B3FD0002B3FF412AF009A01331068E0
:1032500007FB03331B0A04F0FF11C4F30722060E19
:1032600003FB01F103FB02F20DD0C3F5807506FBF1
:1032700005552D0A00F0FF16C0F307202B4405FB6F
:10328000061105FB0022090A01F0FF11120A93B191
:10329000013BFE2B4FEA03602FD8194D35F8133050
:1032A00001FB03F1090A02F0FF1201F0FF1103FB19
:1032B00002F20143120A120202F0FF22009B1143A4
:1032C0001960D4E6009B1C60D1E6079E3C46084688
:1032D000DDE90235002E7FF43EAF6CE7079B002B43
:1032E0007FF435AF3C460846DDE9023563E70DB0B3
:1032F000BDE8F08F0023059393E60143DBE700BFB1
:10330000FC0A04082DE9F047002A0468D1F8088077
:10331000D1F800E00C9DDDE9080CDDE90A762EDD30
:103320004FEA6808511E02134FEA233905FB02F2E7
:1033300006FB09F94FEA2949121408FB02920139E8
:103340003EF812204FEAD2094FEAC20A09F0FC09FE
:103350005FFA8AFA49EA9919120A4AEA092902F037
:10336000F80249EA5A1942EA521249EA024242F084
:103370007F4244F8042B4A1C38446344D3D1BDE84F
:10338000F08700BF2DE9F04F8C680968D0F800B0D5
:1033900083B0002A00914FEA6401DDF8309001917A
:1033A00078DD02F1FF384A1C4FEA420A0F9A019871
:1033B000009D1E1302FB06F6109A4FEA293102FB0C
:1033C00001F136130913083E083932110C1100FBC4
:1033D000042405EB4402C1F34201C6F34206C1F1E5
:1033E0000800B2F802C035F8145032F80A4006FB63
:1033F00000F0C6F1080701FB07F7524401FB06F194
:10340000C0F140062CF4FC6EF61B0CF4FC6C00FBC7
:103410000EFE761A32F8022C00FB0CF025F4FC6C40
:1034200005F4FC6506FB0CEC06FB050024F4FC6EC1
:1034300004F4FC6401FB0ECC01FB040022F4FC6EDE
:1034400002F4FC6207FB020007FB0ECC4FF61F02E2
:1034500002EA9C1C400A4FEACC0500F0FC0005F093
:10346000F80540EA90100D9945EA00204FEA1C2C1F
:1034700040EA55104CEA5C1C40EA0C4208F1FF3867
:103480000B440E9942F07F42B8F1FF3F89444BF85C
:10349000042B8BD103B0BDE8F08F00BF2DE9F04FB6
:1034A00083B00768119E8C68306BD1F800A0316D35
:1034B0000C9D001501304FEA640B002970D1716D2D
:1034C000B1FA81FE4FEA5E1E002A02F1FF345ADD96
:1034D000F14601970F9A191302FB01F1109A4FEA76
:1034E000253802FB08F809144FEA284808FB0B129C
:1034F0003AF81220B9F1000F24D1306DD6F830C05F
:10350000B76BD6F854E0002840D0B8F1000F42D095
:10351000706B00FB08CCBEF1000F3FD0F06B00FBDE
:1035200008700746604651B14FEA2C58B06CC8EBA2
:10353000275E0CF07F6C00FB0EF001FB00C0C0F3B7
:103540000750013092B14FEA122CD1000CF0F80C68
:10355000C9B2D2084CEA5C1C41EA511102F0FC02EB
:1035600041EA0C4C42EA92124CEA0222019942EAE8
:10357000006241F8042B0D9A019113440E9A013C0C
:103580001544621CA6D103B0BDE8F08F6046BEF1C1
:10359000000FC8D1D3E7BEF1000FC3D16046CEE71C
:1035A0004FF0000E90E700BF2DE9F04F87B00068A4
:1035B000DDF854808D68D8F8304009680190D8F85B
:1035C0005000049124156910DDF84090029104F137
:1035D000010E002840F0CB80D8F85410B1FA81F1E8
:1035E00049090391002A02F1FF3B40F3B380029A9C
:1035F0000093013252000592009B1A13139B03FBA8
:1036000002F2149B4FEA293703FB07F7039B1113C0
:103610003E134BBBD8E91430D8F83040D8F83850B6
:10362000002B00F09A803F1400F09C80D8F83430D2
:1036300003FB0744002800F09880D8F83C0000FB0A
:103640000755A64612140BD04FEA245ED8F848005E
:10365000CEEB255504F07F6400FB05FE02FB0E4E09
:10366000CEF3075E0EF1010E0839083E029B049C62
:103670000A11301103FB0020C6F3420604EB40029E
:10368000C1F34201059B558834F81040D05AC6F169
:10369000080C01FB0CFCC1F1080706FB07F706FB51
:1036A00001F11A44CCF1400605F4FC6AF61B25F43E
:1036B000FC65761A0CFB0AFA32F8022C0CFB05F5B5
:1036C00004F4FC6C06FB0CAA24F4FC6400F4FC6C0F
:1036D00006FB045401FB0CAA02F4FC6620F4FC6017
:1036E00001FB004407FB06AA22F4FC624FEA9A1A87
:1036F00007FB02444FF61F030AF4FC6A03EA941422
:1037000054EA0A0A14D04FEA1A214FEACA0001F01B
:10371000F801C0B24FEADA0A41EA511140EA50100A
:103720000AF0FC0A40EA01414AEA9A1A41EA0A2AE6
:10373000019B4AEA0E6243F8042B009A0193119B05
:103740000BF1FF3B1A44129B0092BBF1FF3F9944DF
:103750007FF452AF07B0BDE8F08FA64600287FF493
:1037600071AF7DE700287FF46CAFA64678E70021B3
:10377000039137E72DE9F04F83B00568119F8C68FE
:10378000386BD1F800A0396D0C9E001501304FEA5E
:10379000640B002940F0B380796DB1FA81FE4FEAE5
:1037A0005E1E002A02F1FF3440F38A80F146019345
:1037B000019B0F9A191302FB01F1109A4FEA263868
:1037C00002FB08F809144FEA284808FB0B123AF8E4
:1037D0001220B9F1000F24D1386DD7F830C0BB6B7F
:1037E000D7F854E0002870D0B8F1000F00F08280C4
:1037F000786B00FB08CCBEF1000F7ED0F86B00FBAD
:103800000833604651B14FEA2C58B86CC8EB235EC0
:103810000CF07F6C00FB0EF001FB00C0C0F3075002
:1038200001304FEA122CD1000CF0F80CC9B2D208CA
:1038300041EA51114CEA5C1C02F0FC0241EA0C4CDA
:1038400042EA9212D5F800E04CEA022202F0FF119F
:103850005FEA1E68C2F3072201FB00F102FB00F2DF
:1038600031D0C0F5807C08FB0CCC4FEA1C2C0EF04C
:10387000FF18CEF3072E0CFB08110CFB0E2284441C
:10388000090A01F0FF11120ABCF1000F08D00CF177
:10389000FF3CBCF1FE0F4FEA0C6E1BD941EA0E0152
:1038A000120202F0FF221143019B0D9A45F8041BFE
:1038B0001344013C0E9A0193631C16447FF478AFC5
:1038C00003B0BDE8F08F8446DAE76046BEF1000F32
:1038D00098D1A3E70B4B33F81CC001FB0CF1090A8C
:1038E00002F0FF1201F0FF110CFB02F241EA0E019F
:1038F000120AD5E7BEF1000F83D160468EE74FF084
:10390000000E4EE7FC0A04082DE9F04F85B08C68E4
:10391000DDF84C800968D8F83050D0F80090D8F81D
:10392000500002912D15611001350091002840F0E2
:10393000FB80D8F85410B1FA81F149090191002AAD
:1039400002F1FF3A40F3D280009A01325200039212
:1039500011980E991A1300FB02F21298091300FB3A
:1039600001F101984FEA223C0C1348BBD8F85000F3
:10397000D8F83060D8F83870D8F85450002800F0E3
:10398000BA80091400F0CB80D8F8340000FB01663F
:10399000002D00F0C780D8F83C0000FB01773146CD
:1039A00012140AD03015D8F84810C0EB275706F08B
:1039B0007F6601FB07F102FB0161C1F307514D1C5A
:1039C000A4F10801ACF1080C009C029E4FEA2C12F5
:1039D000081104FB002006EB4002C1F34201CCF3C6
:1039E000420C36F810700398B2F802B0165AC1F1C2
:1039F00008040CFB04F4CCF1080E01FB0EFE02449B
:103A000001FB0CF1C4F1400C2BF4FC60ACEB0E0C90
:103A10000BF4FC6B04FB00F0ACEB010C32F8022C55
:103A200004FB0BF427F4FC6B0CFB0B0B07F4FC679B
:103A300026F4FC6001FB00BB0CFB074422F4FC6095
:103A400006F4FC6601FB06440EFB00B04FF61F01B6
:103A500001EA901002F4FC620EFB0244C700640A03
:103A600007F0F807000A04F0FC0447EA571740EA99
:103A7000501044EA941447EA004242EA0422D9F87A
:103A8000004002F0FF11260EC2F3072201FB05F1F0
:103A900002FB05F22DD0C5F5807006FB0000000A80
:103AA00004F0FF16C4F3072400FB061100FB0422F8
:103AB0002844090A01F0FF11120A28B10138FE2832
:103AC0004FEA00641CD92143120202F0FF22114385
:103AD0000F9A49F8041B134410990E9A0AF1FF3A01
:103AE0000A44BAF1FF3F0E927FF432AF05B0BDE851
:103AF000F08F2846DDE73146002D7FF451AF5CE7BB
:103B00000B4E36F8100001FB00F1090A02F0FF121B
:103B100001F0FF1100FB02F22143120AD4E7002D4D
:103B20007FF43DAF314648E70021019107E700BF30
:103B3000FC0A0408F0B41C681E6987680568186AE6
:103B40001B6B2409360B04F47F0406F47F46C0F394
:103B5000075034431B01044303F07F4323434900D0
:103B6000980E07FB021218D0190AC3F3C40401F41B
:103B700078415B090130214303F4FC6300FB01F150
:103B800000FB03F080098B0923F4FC6300F4FC6064
:103B900003439BB2AB52F0BC70470346AB52F0BC40
:103BA000704700BFF0B41C681E691F6A1D6B360B9E
:103BB000230903F47F0306F47F463343C7F3075713
:103BC0002C0104F07F443B4323439C0E2AD086689B
:103BD00005684900180A00F4784006FB02123F2CE1
:103BE000C3F3C4014FEA531340EA010003F4FC633A
:103BF00016D0A95A0134C4F1400704FB03F301F4C1
:103C0000FC6604FB00F407FB063321F4FC619B090E
:103C100007FB01444FF61F0003F4FC6300EA941015
:103C20000343AB52F0BC7047F0B416691468176ACE
:103C3000156B03682209360B02F47F0206F47F46F7
:103C40003243C7F307572D013A4305F07F452A4316
:103C5000900E31D0140AC2F3C40504F4784452091A
:103C600001302C4302F4FC6200FB02F200FB04F47E
:103C7000A009920902F4FC6220F4FC60104380B2B7
:103C800040EA00429D0704D000290ADD23F8020B18
:103C90000139002905DDCC0744BF01F1FF3123F8CC
:103CA00011004910002905DD03EB810143F8042BC5
:103CB0009942FBD1F0BC70470246E3E72DE9F041A1
:103CC000036815691068166A126B00092D0B00F461
:103CD0007F0005F47F452843C6F3075612013043A1
:103CE00002F07F42002940EA02002CDD050AC0F301
:103CF000C402840E05F478454009661C154300F49F
:103D0000FC6006FB05FEC6F1400703EB410106FB24
:103D100000F64FF61F0C9CB13F2C16D01A8802F407
:103D2000FC6807FB086822F4FC624FEA981807FB5E
:103D300002E208F4FC680CEA921242EA08021A80D5
:103D400002339942E7D1BDE8F08180462A46F4E784
:103D500000292DE9F04F136B14681569166A57682E
:103D6000D2F814C0D2F824E00068526B3DDD4FEA6F
:103D7000021800EB41011A0123094FEA153909F431
:103D80007F4903F47F0343EA090302F07F4943EAD2
:103D90000903C6F3075943EA09034FEA1329C3F39A
:103DA000C40B4FEA531A09F478499B0E49EA0B09F0
:103DB0000AF4FC6A03F1010B0BFB09F90BFB0AFA8D
:103DC0004FEA99194FEA9A1A29F4FC690AF4FC6A35
:103DD00049EA0A0918BF1FFA89F320F8023B884212
:103DE0003C44654476444244C6D1BDE8F08F00BFF0
:103DF0002DE9F04F002985B0006815681669176A2B
:103E0000146BD2F804E0D2F81480D2F82490536BEB
:103E100053DD4FEA031A2401434600EB410BF04601
:103E200001949E46019C4FEA151C330B03F47F431B
:103E30000CF47F0C4CEA030C04F07F434CEA030CB7
:103E4000C7F307534CEA030C4FEA1C23CCF3C4011D
:103E50004FEA5C1203F4784354445FEA9C6C454497
:103E600076444F44019443EA010302F4FC6221D0FA
:103E70000CF10101C1F140040294BCF13F0F01FBC0
:103E800002F4039414D0B0F800C0039C01FB03F3C8
:103E900002990CF4FC6201FB02422CF4FC6C01FB65
:103EA0000C3392094FF61F0102F4FC6201EA9313EE
:103EB0001343038002305845B4D105B0BDE8F08FFC
:103EC000002A70B404680D6824DD04EB420255F842
:103ED000041B0B0AC1F3C406480903F47843890E96
:103EE00043EA060300F4FC6601F1010000FB03F362
:103EF00000FB06F04FEA93134FEA901023F4FC63A3
:103F000000F4FC6043EA000318BF99B224F8021BD6
:103F1000A242DCD170BC7047002AF0B500680C6882
:103F20002FDD184D00EB42024FF61F0654F8043BFC
:103F3000190AC3F3C40C5F0901F478419B0E41EAEE
:103F40000C0107F4FC6719D03F2B03F1010313D0D8
:103F5000B0F800C003FB01F103FB07F72CF4FC6E83
:103F6000C3F140030CEA050C03FB0E1103FB0C77B5
:103F700006EA911105EA9717394301800230904211
:103F8000D4D1F0BDE007FC00002AF0B400681C6B3F
:103F90000D6827DDA415013400EB420255F8043BFF
:103FA000190AC3F3C4075E091B0E01F4784103FB31
:103FB00004431B0A41EA070106F4FC6601FB03F116
:103FC00006FB03F64FEA91114FEA961621F4FC61C5
:103FD00006F4FC6641EA060118BF8BB220F8023BEA
:103FE0009042DBD1F0BC7047002A2DE9F043006815
:103FF0001C6B0D6833DDA4151A4E013400EB420230
:104000004FF61F0755F8043BC3F3C40E190A4FEAD5
:10401000531C9B0E03FB044301F478414FEA9313B6
:1040200041EA0E010CF4FC6CC3F1400E14D0B0F860
:10403000008028F4FC6908EA06080EFB09F90EFB6B
:1040400008FE03FB0CEC03FB019107EA911306EA5F
:104050009C1C43EA0C03038002308242D2D1BDE8AB
:10406000F08300BFE007FC00002AF0B400680D6890
:10407000D3E90C462ADD00EB420255F804CB4FEAA7
:104080001C21CCF3C40301F478411943A3154FEA72
:104090005C1701334FEA1C6C0CFB03331B0A07F45B
:1040A000FC6701FB03F107FB03F74FEA91114FEAAD
:1040B000971721F4FC6107F4FC6741EA070118BF78
:1040C0008BB220F8023B90423444D6D1F0BC70470A
:1040D000002A2DE9F04700680C68D3E90C1537DD9C
:1040E0001C4E00EB42024FF61F0754F8043B4FEA08
:1040F000132CC3F3C4094FEA531E9B0E4FEAA15879
:1041000003F1010308FB03330CF4784C4FEA9313DB
:104110004CEA090C0EF4FC6EC3F14008294414D09B
:10412000B0F8009029F4FC6A09EA060908FB0AFACB
:1041300008FB09F803FB0E8E03FB0CAC07EA9C138B
:1041400006EA9E1E43EA0E03038002308242CCD16F
:10415000BDE8F087E007FC00002AF0B400680C68B6
:104160008D6926DD00EB420214F8013B55F823600F
:10417000330AC6F3C407710903F47843B60E43EA61
:10418000070301F4FC6706F1010101FB03F301FBE6
:1041900007F14FEA93134FEA911123F4FC6301F402
:1041A000FC6143EA010318BF9EB220F8026B904203
:1041B000DAD1F0BC704700BF002A2DE9F041056854
:1041C0000C688E6930DD22444FF61F0714F8013B5E
:1041D00056F82330190AC3F3C40C580901F4784186
:1041E0009B0E41EA0C0100F4FC6019D003F1010CB4
:1041F0003F2BCCF1400E0CFB00F80FD02B8803F4C2
:10420000FC600CFB01F10EFB008023F4FC630EFB51
:10421000031C810901F4FC6007EA9C110143298019
:10422000944205F10205D1D1BDE8F081002AF0B435
:104230001D6B04680E688F6929DDAD15013504EB2F
:10424000420216F8013B57F82330190AC3F3C40C95
:1042500058091B0E01F4784103FB05531B0A41EA80
:104260000C0100F4FC6001FB03F100FB03F04FEADA
:1042700091114FEA901021F4FC6100F4FC6041EAD6
:10428000000118BF8BB224F8023B9442D9D1F0BC94
:10429000704700BF002A2DE9F04704681D6B0868CD
:1042A0008E6935DDAD151B4F013502444FF61F0CED
:1042B00010F8013B56F82330C3F3C408190A4FEA3B
:1042C000531E9B0E03FB055301F478414FEA9313F1
:1042D00041EA08010EF4FC6EC3F1400814D0B4F8B2
:1042E000009029F4FC6A09EA070908FB0AFA08FBAE
:1042F00009F803FB0E8E03FB01A10CEA911307EAF8
:104300009E1E43EA0E032380904204F10204CFD1A3
:10431000BDE8F087E007FC00002AF0B500680D68F2
:104320008E69D3E90C472CDD00EB420215F8013B06
:1043300056F823E04FEA1E21CEF3C40301F478417E
:104340001943A3154FEA5E1C01334FEA1E6E0EFBA4
:1043500003331B0A0CF4FC6C01FB03F10CFB03FCA4
:104360004FEA91114FEA9C1C21F4FC610CF4FC6CA7
:1043700041EA0C0118BF8BB220F8023B90423C444A
:10438000D4D1F0BD002A2DE9F04F06680C688F6982
:10439000D3E90C5C37DDDFF874E022444FF61F08E8
:1043A00014F8013B57F82330190AC3F3C40A58091B
:1043B0009B0E4FEAA55903F1010309FB033301F4F6
:1043C00078414FEA931341EA0A0100F4FC60C3F11B
:1043D0004009654413D0B6F800B02BF4FC6A0BEA30
:1043E0000E0B09FB0AFA09FB0BF903FB01A103FB06
:1043F000009308EA91110EEA93130B433380944221
:1044000006F10206CCD1BDE8F08F00BFE007FC004A
:104410002DE9F0431D681F69D3F820C01B6B0468A9
:1044200008682D093F0B05F47F0507F47F473D43DE
:10443000CCF3075C1B0145EA0C0503F07F43002A1F
:1044400045EA030531DD2F0AC5F3C4034FEA551CC5
:1044500007F47847AD0EDFF85C8002441F430CF48C
:10446000FC6C6E1C4FF61F0E04E09042218004F19C
:1044700002041AD010F8011B890801FB06634FEAF9
:10448000931303FB07F903FB0CF3EED03F2901D193
:104490003F2D0CD00EEA991908EA931349EA030359
:1044A0009042238004F10204E4D1BDE8F083634626
:1044B000B946F3E7E007FC002DE9F0471D681F69E6
:1044C000D3F820C01B6B046808682D093F0B05F466
:1044D0007F0507F47F473D43CCF3075C1B0145EAAA
:1044E0000C0503F07F43002A45EA030537DD4FEA58
:1044F000152CC5F3C403AF0E0CF4784C6D09DFF82E
:1045000068E002444CEA030C05F4FC657E1C4FF69F
:104510001F0810F8013B9B081DD003FB06618909A9
:10452000C1F14009BFB13F2B01D13F2F19D0B4F8E1
:1045300000A02AF4FC630AEA0E0A09FB03F309FB54
:104540000AF901FB0C3301FB059108EA93130EEA0B
:10455000911119432180904204F10204D9D1BDE8A0
:10456000F08729466346F4E7E007FC002DE9F04FA9
:1045700083B0D0F800C058680090002A58690C68D1
:104580001D681E691F6A196BD3F8249001905B6B3C
:104590004DDD4FEA03184FEA011A04EB020E23E047
:1045A000890801F1010B03FB0BBB3BD03F2901D173
:1045B0003F2B0CD04FEA9B1B0BFB02F24FF61F0365
:1045C00003EA92121B4B0BFB00FB03EA9B10024316
:1045D000ACF80020009B1D44019BA6451E444F449F
:1045E0000CF1020CC24422D02A09330B02F47F01E1
:1045F00003F47F4341EA03020AF07F400243C7F31A
:10460000075B42EA0B031A0A14F8011BC3F3C40B3D
:10461000580902F4784242EA0B0200F4FC609B0E57
:104620000029BDD14FF00003ACF80030D2E703B051
:10463000BDE8F08FE007FC002DE9F04F85B0D0F821
:1046400000E008685968019159690291002A596A85
:104650001D681E691F6AD3F830C00391D3F83490E7
:1046600058DD00EB020810F8012B002A47D04FEA72
:104670000C1A0AF07F4AC7F30753310B43EA0A03C7
:1046800001F47F412C090B4304F47F042343190AEE
:1046900001F47841C3F3C40B4FEA531A920802F1B4
:1046A000010441EA0B010AF4FC6A28D09B0E03FBCB
:1046B00004444FEA9414C4F1400B20D03F2A01D1A6
:1046C0003F2B18D0BEF8002022F4FC6322F07F427A
:1046D0000BFB03F322F47E3204FB013122F01F02B4
:1046E0004FF61F030BFB02FB03EA91110B4B04FB7C
:1046F0000ABA03EA9A1A41EA0A01AEF80010019BCD
:104700001D44029B1E44039B80451F44CC440EF174
:10471000020EA8D105B0BDE8F08F00BFE007FC0095
:10472000002A00680B6808DD811E03EB420233F8A3
:10473000020B21F8020F9342F9D17047002AF0B41E
:104740001E6B04680D681ADDB615013604EB4202D3
:104750004FF61F0735F8023B03F4FC6123F4FC60BD
:1047600001FB06F13BB100FB06F0890907EA901056
:1047700001F4FC63034324F8023B9442EAD1F0BC09
:10478000704700BF002AF0B500681C6B0D6825DD7E
:10479000A415013400EB4202C4F140064FF61F0796
:1047A000B0F800C035F8023B0CF4FC6106FB01FEDA
:1047B0002CF4FC6C03F4FC6106FB0CFC04FB01E133
:1047C00023F4FC63890904FB03C301F4FC6107EAD9
:1047D00093130B4320F8023B9042E1D1F0BD00BFA0
:1047E000002AF0B505680F68D3E90C6C1BDD05EBFA
:1047F00042024FF61F0E37F8023BB015013003F4AA
:10480000FC61664423F4FC6401FB00F13BB104FB52
:1048100000F089090EEA901001F4FC63034325F8C7
:10482000023B9542E7D1F0BD002A2DE9F043006834
:104830000D68D3E90C4628DD00EB42024FF61F0756
:10484000B0F8008035F8023B4FEAA45C0CF1010C93
:1048500008F4FC61CCF1400E0EFB01F928F4FC6871
:1048600003F4FC610EFB08FE0CFB019123F4FC63D6
:1048700089090CFB03E301F4FC6107EA93130B4382
:1048800020F8023B90423444DAD1BDE8F08300BF07
:104890002DE9F04F002A8D6800680E68DDF834803D
:1048A000DDE90947DDE90BCE36DDAD1000EB420254
:1048B00021134FEA233908FB01F10EFB09F94FEAF6
:1048C0002949091405FB01913B4456F821104FEA90
:1048D000112AC1F3C40B4FEA51190AF4784A890E20
:1048E0004AEA0B0A09F4FC6B01F1010909FB0AFA17
:1048F00009FB0BF94FEA9A1A4FEA99192AF4FC6A54
:1049000009F4FC694AEA090918BF1FFA89F120F87D
:10491000021B90426444CBD1BDE8F08F2DE9F04FEB
:104920008C68D1F800A0D0F8008083B0A110002AD4
:10493000DDF83090009140F38E8001F1010B08EB1F
:10494000420201924FEA8B0B0F98009D191300FB56
:1049500001F110984FEA293200FB02F209131213F9
:104960000839083A1411081105FB04000AEB800EFF
:1049700002F00F0201F00F01DEF804505AF8204057
:104980005EF80B00C2F1100C01FB0CFCC1F110062B
:1049900002FB06F62F0A02FB01F2DE44CCF5807121
:1049A00005F0FF15891B07F0FF17891A0CFB05F5A9
:1049B0005EF804EC0CFB07F74FEA142C04F0FF142C
:1049C00001FB04540CF0FF1C050A00F0FF1002FB71
:1049D000004401FB0C7C05F0FF154FEA1E210EF090
:1049E000FF1E02FB05CC01F0FF1106FB0E4406FB87
:1049F00001CC240A0CF0FF2C04F0FF144CEA040C48
:104A00004FEA1C22CCF3C4004FEA5C1102F4784256
:104A10005FEA9C6C42EA000201F4FC610CF10100C7
:104A200000FB02F200FB01F14FEA92124FEA9111F2
:104A300022F4FC6201F4FC6142EA010218BF1FFA91
:104A400082FC0D9A28F802CB13440E9A9144019AE5
:104A500090457FF479AF03B0BDE8F08F2DE9F04FBA
:104A6000002A83B08E680468D1F800E0DDE90C5BB1
:104A7000DDE90F893FDD04EB42024FEAA60CF24666
:104A800001922913181309FB01F108FB00F000142F
:104A900009140CFB01010E9A5AF82170390AC7F368
:104AA000C406780901F47841BF0E5B44154441EA1D
:104AB000060100F4FC601AD07E1C3F2FC6F1400EA8
:104AC00006FB00F211D0278807F4FC600EFB0020E3
:104AD00006FB01F127F4FC670EFB071180094FF676
:104AE0001F0200F4FC6002EA911101432180019A47
:104AF00002349442C5D103B0BDE8F08F2DE9F04FE8
:104B00008C68D1F800A0D0F8008083B0A110002AF2
:104B1000DDF83090009140F39B8001F1010B08EB30
:104B2000420201924FEA8B0B0F98009D191300FB74
:104B300001F110984FEA293200FB02F20913121317
:104B40000839083A1411081105FB04000AEB800E1D
:104B500002F00F0201F00F01DEF804505AF8204075
:104B60005EF80B00C2F1100C01FB0CFCC1F1100649
:104B700002FB06F62F0A02FB01F2DE44CCF580713F
:104B800005F0FF15891B07F0FF17891A0CFB05F5C7
:104B90005EF804EC0CFB07F74FEA142C04F0FF144A
:104BA00001FB04540CF0FF1C050A00F0FF1002FB8F
:104BB000004401FB0C7C05F0FF154FEA1E210EF0AE
:104BC000FF1E02FB05CC01F0FF1106FB0E4406FBA5
:104BD00001CC240A04F0FF140CF0FF2C4CEA040C66
:104BE0000D9C4FEA1C2223440E9CCCF3C4004FEAD8
:104BF0005C1102F478425FEA9C6CA14442EA000234
:104C000001F4FC611ED00CF10100BCF13F0FC0F1BA
:104C1000400500FB01F612D0B8F8004004F4FC6136
:104C200000FB02F224F4FC6405FB016105FB042295
:104C300089094FF61F0001F4FC6100EA92120A4351
:104C4000A8F80020019A08F1020890457FF46CAFA3
:104C500003B0BDE8F08F00BF2DE9F04F85B00568C7
:104C6000139F0E9E386B03904FEAA05B3C6D8868E3
:104C70000294D1F800A00BF1010B4FEAA00E002C1A
:104C80007AD1796DB1FA81FC4FEA5C1C002A62DDB1
:104C900005EB4202E146009211991C1301FB04F45A
:104CA0001299301301FB00F02414001400FB0E4194
:104CB0005AF82110B9F1000F28D1BA6B0192029A6B
:104CC000D7F854C0002A49D000284ED07A6B9046BD
:104CD000039A08FB0028BCF1000F4BD0FA6B9446F6
:104CE000019A0CFB00220192C3465CB1019AB86C98
:104CF0004FEA2858C8EB22580BF07F6B00FB08F8EE
:104D000004FB08BBCBF3855B0BF1010B0C0E04FB22
:104D10000BB4240A16D04FEA112CC1F3C4000CF4D2
:104D2000784C49094CEA000001F4FC6100FB04F0F6
:104D300001FB04F18009890920F4FC6001F4FC61A5
:104D4000084384B20F9925F8024B009A0B4410993E
:104D5000AA420E44A0D105B0BDE8F08FDDF80C806A
:104D6000C346BCF1000FC0D1CCE7DDF80C80BCF12C
:104D7000000FB9D1C346C5E74FF0000C86E700BF6E
:104D80002DE9F04F87B0D0F800801598159C006B86
:104D900005904FEAA05A8868246D09680291811035
:104DA0000494DDF8409000910AF1010A002C40F0D3
:104DB000D1801599496DB1FA81F149090191002A13
:104DC00040F3B980009908EB420201F1010B039214
:104DD0004FEA8B0B139A01981E1302FB06F6149AE6
:104DE0004FEA293102FB01F10D13321340BB159834
:104DF000876B446D0498002800F0A0805FEA214C86
:104E000000F0A2801598416B059801FB0C00002C66
:104E100000F09E80159CE46B04FB0C7782463614F0
:104E20000AD015990015896CC0EB27500AF07F6AEB
:104E300001FB00F006FB00AACAF3855A0AF1010A39
:104E4000083A083D009C1111281104FB0010029C37
:104E500004EB800105F00F0502F00F024E6854F8D4
:104E6000204051F80B00C5F1100E02FB0EFEC2F1FE
:104E7000100705FB07F705FB02F24FEA162CCEF5EB
:104E80008075594406F0FF16ED1B0CF0FF1C0EFB5D
:104E900006F6AD1A51F8041C0EFB0CFC4FEA142E5A
:104EA00004F0FF1405FB04640EF0FF1E060A00F078
:104EB000FF1005FB0ECE06F0FF160D0A02FB0044A4
:104EC00001F0FF1107FB014402FB06EE05F0FF15A0
:104ED00007FB05EE240A0EF0FF2E04F0FF144EEA45
:104EE000040E4FEA1E6101FB0AA1090A19D04FEA1C
:104EF0001E2CCEF3C4000CF4784C4FEA5E1E4CEA34
:104F000000000EF4FC6E00FB01F00EFB01FE8009B8
:104F10004FEA9E1E20F4FC600EF4FC6E40EA0E0088
:104F200081B2119A28F8021B1344129A9144039AF1
:104F300042457FF44FAF07B0BDE8F08F0598824639
:104F4000002C7FF46CAF77E70598002C7FF466AFF8
:104F5000824671E70021019131E700BF2DE9F04F52
:104F600085B00568139F0E9E386B03904FEAA058DA
:104F70003C6D88680294D1F800C008F101084FEA3E
:104F8000A00E002C40F08180796DB1FA81F14909C1
:104F90000091002A68DD05EB420201921199009A06
:104FA0001C1301FB04F41299301301FB00F02414CC
:104FB000001400FB0E415CF8211022BB029AD7F8C6
:104FC0003890D7F854B0002A51D0002856D07A6BC8
:104FD0009046039A08FB002ABBF1000F53D0FA6BEE
:104FE00002FB0099D04654B14FEA2A5AB86CCAEB7A
:104FF000295A08F07F6800FB0AFA04FB0A88C8F304
:10500000855808F101088C0E26D0B5F8009004FBF5
:105010000884A409C4F1400A09F4FC6B29F4FC6972
:1050200048090AFB0BFB0AFB09F94FEA112A00F4B5
:10503000FC600AF4784AC1F3C40104FB00B04AEAF8
:105040000101800904FB01914FF61F0200F4FC608E
:1050500002EA9111084328800F9A1344109A1644CB
:10506000019A0235AA4299D105B0BDE8F08FDDF86A
:105070000CA0D046BBF1000FB5D1C0E7DDF80CA005
:10508000BBF1000FAED1D046B9E70021009180E717
:105090002DE9F04F87B0D0F800801598159C006B73
:1050A00005904FEAA05A8868246D09680291811022
:1050B0000494DDF8409000910AF1010A002C40F0C0
:1050C000DB801599496DB1FA81F149090191002AF6
:1050D00040F3C380009908EB420201F1010B0392F7
:1050E0004FEA8B0B139A01981E1302FB06F6149AD3
:1050F0004FEA293102FB01F10D13321340BB159821
:10510000876B446D0498002800F0AA805FEA214C68
:1051100000F0AC801598416B059801FB0C00002C49
:1051200000F0A880159CE46B04FB0C7782463614D3
:105130000AD015990015896CC0EB27500AF07F6AD8
:1051400001FB00F006FB00AACAF3855A0AF1010A26
:10515000083A083D009C1111281104FB0010029C24
:1051600004EB800105F00F0502F00F024E6854F8C1
:10517000204051F80B00C5F1100E02FB0EFEC2F1EB
:10518000100705FB07F705FB02F24FEA162CCEF5D8
:1051900080755944ED1B06F0FF160CF0FF1C0EFB4A
:1051A00006F6AD1A0EFB0CFC51F8041C4FEA142E47
:1051B00004F0FF1405FB04640EF0FF1E060A00F065
:1051C000FF1005FB0ECE06F0FF160D0A02FB004491
:1051D00001F0FF1107FB014402FB06EE05F0FF158D
:1051E00007FB05EE240A0EF0FF2E04F0FF144EEA32
:1051F00004075FEA976C26D0B8F800200CFB0AACD5
:105200004FEA9C1CCCF1400102F4FC6422F4FC62E5
:1052100001FB02F2780901FB04F4390A00F4FC6096
:1052200001F47841C7F3C4070CFB00400F430CFBAB
:10523000072780094FF61F0200F4FC6002EA971767
:105240003843A8F80000119A1344129A9144039A23
:1052500008F1020842457FF445AF07B0BDE8F08F82
:1052600005988246002C7FF462AF6DE70598002C0C
:105270007FF45CAF824667E70021019127E700BF1A
:105280002DE9F04F002A0668D1F800C0D1F818E0E7
:10529000D1F80880099FDDF834B0DDE90B9A32DDE2
:1052A00006EB4202381319130BFB00F000140AFB43
:1052B00001F108FB00C009144F44415C5EF8210075
:1052C000010AC0F3C404450901F47841800E41EAA3
:1052D000040105F4FC6500F1010404FB01F104FB89
:1052E00005F44FEA91114FEA941421F4FC6104F49F
:1052F000FC6441EA040118BF88B226F8020B0A993F
:1053000096420B44CED1BDE8F08F00BF2DE9F04F9F
:1053100085B0D0F80080D1F818E00868896801905D
:10532000002A0291DDF8389040F3928008EB4202A7
:10533000039201F1010A1198029D019E191300FBCD
:1053400001F112984FEA293200FB02F209131213FD
:105350000839083A0811141105FB04043019345DAA
:10536000457802F00F025EF825605EF8245010F8D0
:105370000A4001F00F01C2F1100B504401FB0BFB7E
:10538000C1F1100702FB07F710F8010C5EF824408A
:105390005EF8200002FB01F24FEA162CCBF580717B
:1053A00006F0FF16C91B0CF0FF1C891A0BFB06F652
:1053B0000BFB0CFC4FEA152B05F0FF1501FB0565F7
:1053C0000BF0FF1B260A04F0FF1401FB0BCB02FBC2
:1053D0000455010A06F0FF1600F0FF1002FB06BBA1
:1053E00001F0FF1107FB005507FB01BB2D0A0BF075
:1053F000FF2B05F0FF154BEA050B4FEA1B22CBF301
:10540000C4004FEA5B1102F478425FEA9B6B42EA08
:10541000000201F4FC610BF1010000FB02F200FB51
:1054200001F14FEA92124FEA911122F4FC6201F469
:10543000FC6142EA010218BF1FFA82FB0F9A28F8AA
:1054400002BB1344109A9144039A90457FF473AFC2
:1054500005B0BDE8F08F00BF2DE9F04F83B0002A02
:105460000468D1F800C0D1F818E0D1F80880DDF860
:105470004090DDE90C5B3FDD04EB4202E246019225
:1054800029130F9E0E9A181309FB01F106FB00F079
:105490000914001408FB01A15B44095C5EF821704B
:1054A000390AC7F3C406780901F47841BF0E1544E0
:1054B00041EA060100F4FC601AD07E1C3F2FC6F1C1
:1054C000400C06FB00F211D0278807F4FC600CFBAF
:1054D000002006FB01F127F4FC670CFB0711800993
:1054E0004FF61F0200F4FC6002EA91110143218093
:1054F000019A02349442C3D103B0BDE8F08F00BFDB
:105500002DE9F04F85B0D0F80080D1F818E0086898
:1055100089680190002A0291DDF8389040F3998063
:1055200008EB4202039201F1010A1198029D019ECB
:10553000191300FB01F112984FEA293200FB02F225
:10554000091312130839083A0811141105FB040451
:105550003019345D457802F00F0201F00F015EF85A
:1055600025605EF8245010F80A40C2F1100B504438
:1055700001FB0BFBC1F1100702FB07F74FEA162CEA
:1055800002FB01F210F8010C5EF824405EF82000E6
:10559000CBF58071C91B06F0FF160CF0FF1C891AB1
:1055A0000BFB06F60BFB0CFC4FEA152B05F0FF1569
:1055B00001FB05650BF0FF1B260A04F0FF1402FB3C
:1055C000045501FB0BCB06F0FF16010A00F0FF109B
:1055D00007FB005502FB06BB01F0FF1107FB01BBF7
:1055E0002D0A0F9C0BF0FF2705F0FF152F433A0AF9
:1055F0002344109CC7F3C400790902F47842BF0E1B
:10560000A14442EA000201F4FC611CD0781C3F2F47
:10561000C0F1400500FB01F612D0B8F8004004F4D8
:10562000FC6100FB02F224F4FC6405FB016105FB54
:10563000042289094FF61F0001F4FC6100EA92126E
:105640000A43A8F80020039A08F1020890457FF465
:105650006CAF05B0BDE8F08F2DE9F04F87B005685D
:10566000159F109E386B3C6D05904FEAA05B04942B
:105670000BF1010BD1F800A0D1F818C0D1F808E067
:10568000002C79D1796DB1FA81F149090191002A93
:1056900061DD05EB420202921499019A341301FB79
:1056A00004F41399181301FB00F0241404FB0EA159
:1056B0000014095C5CF8211042BBBA6B0392049A97
:1056C000D7F85480002A49D0002C4ED07A6B9146EE
:1056D000059A09FB0429B8F1000F4BD0FA6B9046EC
:1056E000039A08FB04220392CB4658B1039ABC6C80
:1056F0004FEA2959C9EB22590BF07F6B04FB09F9DA
:1057000000FB09BBCBF3855B0BF1010B080E00FB23
:105710000BB0000A16D04FEA1128C1F3C40408F4F4
:105720007848490948EA040401F4FC6104FB00F4E8
:1057300001FB00F1A409890924F4FC6401F4FC6173
:105740000C43A0B2119A25F8020B1344129A164486
:10575000029AAA42A0D107B0BDE8F08FDDF81490FC
:10576000CB46B8F1000FC0D1CCE7DDF81490B8F10A
:10577000000FB9D1CB46C5E70021019187E700BFF3
:105780002DE9F04F89B0D0F800801798179C006B76
:10579000246D07904FEAA05AD1F818B008688968BC
:1057A0000694DDF8489003900AF1010A0191002C5B
:1057B00040F0D5801799496DB1FA81F149090291FC
:1057C000002A40F3BD8008EB42020492019A0132A4
:1057D0000592159A029C1E1302FB06F6169A4FEAD2
:1057E000293102FB01F130130A1344BB179CA76B4C
:1057F000656D069C002C00F0A6805FEA214C00F04D
:10580000A880179C616B079C01FB0C44002D00F0E5
:10581000A480179DED6B05FB0C77A24636140AD0C9
:1058200017992415896CC4EB27540AF07F6A01FB91
:1058300004F406FB04AACAF3855A0AF1010A0838DF
:10584000083A019D039E059F0111141105FB0414E4
:105850003119345D4D7802F00F0200F00F005BF853
:1058600025605BF82450CC5DC2F1100E394400FB7A
:105870000EFEC0F1100702FB07F74FEA162C02FBE1
:1058800000F211F8011C5BF824405BF82110CEF502
:10589000807006F0FF16C01B0CF0FF1C0EFB06F616
:1058A000801A0EFB0CFC4FEA152E05F0FF1500FBCD
:1058B00005650EF0FF1E260A04F0FF1400FB0ECE55
:1058C00006F0FF16080A02FB045501F0FF1107FB62
:1058D000015502FB06EE00F0FF1007FB00EE2D0A5B
:1058E0000EF0FF2E05F0FF154EEA050E4FEA1E6181
:1058F00001FB0AA1090A19D04FEA1E2CCEF3C404F9
:105900000CF4784C4FEA5E1E4CEA04040EF4FC6E74
:1059100004FB01F40EFB01FEA4094FEA9E1E24F4D1
:10592000FC640EF4FC6E44EA0E04A1B2139A28F84B
:10593000021B1344149A9144049A42457FF449AFE0
:1059400009B0BDE8F08F079CA246002D7FF466AF3A
:1059500071E7079C002D7FF460AFA2466BE7002142
:1059600002912DE72DE9F04F87B00568159F109E35
:10597000386B3C6D05904FEAA0598869049409F191
:105980000109D1F800C00290D1F808E0002C40F0E5
:105990008480796DB1FA81F149090191002A6BDDAA
:1059A00005EB420203921499029A341301FB04F4AA
:1059B0001399181301FB00F0241404FB0EC100140A
:1059C000095C52F82110019A22BB049AD7F838805A
:1059D000D7F854B0002A52D0002C57D07A6B914699
:1059E000059A09FB042ABBF1000F54D0FA6B02FBA5
:1059F0000488D14650B14FEA2A5ABC6CCAEB285AE7
:105A000009F07F6904FB0AFA00FB0A99C9F385597A
:105A100009F101095FEA916826D02C8808FB0998F2
:105A20004FEA9818C8F1400A04F4FC6B24F4FC64B3
:105A300048090AFB0BFB0AFB04F44FEA112A00F4A5
:105A4000FC600AF4784AC1F3C40108FB00B04AEADA
:105A50000101800908FB01414FF61F0200F4FC60C0
:105A600002EA911108432880119A1344129A1644AD
:105A7000039A0235AA4296D107B0BDE8F08FDDF84F
:105A800014A0D146BBF1000FB4D1BFE7DDF814A0DC
:105A9000BBF1000FADD1D146B8E7002101917DE700
:105AA0002DE9F04F89B0D0F800801798179C006B53
:105AB000079080150130246D0290D1F818A0086875
:105AC00089680694DDF8489004900191002C40F01C
:105AD000E1801799496DB1FA81F149090391002AD2
