:020000040800F2
:10000000F0FF02208DB3030879A100087DA100084C
:100010008DA100089DA10008ADA10008000000000E
:10002000000000000000000000000000219A01080C
:10003000BDA1000800000000D59A0108C1A1000878
:10004000DDB30308DDB30308DDB30308DDB3030844
:10005000DDB30308DDB30308D5A10008DDB3030851
:1000600009A20008DDB30308DDB30308DDB303080C
:10007000DDB30308DDB30308DDB30308DDB3030814
:10008000DDB30308DDB30308DDB30308DDB3030804
:10009000DDB30308DDB30308DDB30308DDB30308F4
:1000A000DDB30308DDB30308DDB30308DDB30308E4
:1000B000DDB30308DDB30308DDB30308DDB30308D4
:1000C000DDB30308DDB30308DDB30308DDB30308C4
:1000D000DDB30308DDB30308DDB30308DDB30308B4
:1000E000DDB30308DDB30308DDB30308DDB30308A4
:1000F000DDB30308DDB30308DDB30308DDB3030894
:10010000DDB30308DDB30308DDB30308DDB3030883
:10011000DDB30308DDB30308DDB30308DDB3030873
:10012000DDB30308DDB30308DDB30308DDB3030863
:10013000DDB30308DDB30308DDB30308DDB3030853
:10014000DDB30308DDB30308DDB30308DDB3030843
:10015000DDB30308DDB30308DDB30308DDB3030833
:10016000DDB30308DDB30308DDB30308DDB3030823
:10017000DDB30308DDB30308DDB3030800000000AE
:10018000DDB30308DDB30308DDB30308DDB3030803
:10019000DDB30308DDB30308DDB30308DDB30308F3
:0C01A000D1980008DDB3030851A100084D
:1001C00010B5054C237833B9044B13B10448AFF391
:1001D00000800123237010BDE00400200000000017
:1001E00064D3030808B5034B1BB103490348AFF3BD
:1001F000008008BD00000000E404002064D3030870
:1002000008B500F00DF800B908BD00F0AFF900F036
:10021000D7F80028FBD1BDE8084000F0A5B800BF22
:100220002DE9F0418CB009F0B9F809F0E9F83F4B3D
:10023000984276D93E4C3F481AF0A8F9204609F07A
:1002400077FB3D481AF0A2F93C481AF09FF9D4E92F
:10025000040109F03FFC38481AF098F938481AF0C0
:1002600095F900201AF0A4FD364937481AF0BCFD74
:1002700031481AF08BF935481AF088F9002027F038
:10028000F5FB002846D02C481AF080F930481AF0C7
:100290007DF9304B002118681BF002FB206200281A
:1002A00038D02D4D24481AF071F9206A1BF068FCF3
:1002B00095E80600206A03F02FF928481AF066F93D
:1002C0000DF12008E3680093002211464046A36820
:1002D0001CF020F80CAB13E903008DE803000026A6
:1002E000079698E80C0006960296266867680597B8
:1002F00095E80300FF25CDE9035627F0D7FD60629E
:1003000040B10D481AF042F900F0FCF901200CB0A0
:10031000BDE8F08112481AF039F900200CB0BDE8B0
:10032000F081104809F0AEF884E700BF7FC84F3A6B
:10033000FC040020885D0408705D0408B85D0408B2
:10034000E85D040800507B00005802D0185E0408E5
:10035000545E0408D8D90308DCD90308845E040875
:10036000485E04088002E35D38B5114D114C00F081
:10037000D3F911481AF00AF9686A2BF053FE286A7B
:100380001BF028FC1BF056FC20461AF0FFF80B4827
:100390001AF0FCF827F066F920461AF0F7F81AF080
:1003A00017FD09F0A9FBBDE8384009F04FBB00BFBD
:1003B000FC040020705D0408B45E0408E45E0408D8
:1003C0002DE9F0478EB000F0A9F9814607A809F0A1
:1003D00095FB061E49DD0024624F25460DF12008DD
:1003E00006E0022932D0032938D00134A64213D0C6
:1003F00007992301CA18CB58D1685068926801291F
:10040000CDE90830EDD10090386A04F001FD0134E7
:10041000A64245EA0005EBD11EF0ACFD04461CF0F7
:100420003BFE254345EA090959EA00036CD0DFF891
:100430003491D9F8200003F02FF8C0B91AF030FE3B
:100440001BF0F8FB01200EB0BDE8F0871146386ABA
:1004500098E80C0003F044FA0543C6E70090002139
:10046000386A04F0D5FC0543BFE70025D4E7002136
:100470003D48D9E908861BF013FA0AAC002305466B
:1004800063600A93C4E902330028D7D0D9F8183042
:10049000002B3ED0404602F0F5FF02AF00F1FF3ADC
:1004A000BAF1FF3F2CD0D9F81830022B1DD14EE005
:1004B0000D9B009394E80E00304627F0F1FD0146B5
:1004C000284604F027FE0B9B00932A460A9B4146D0
:1004D000384602F0C1FD284604F0E0FD0D9B009374
:1004E00094E80E0030462BF0D9FB204609F0B0FA14
:1004F0000028DDD1D9F81830022B0AF1FF3ACFD00D
:10050000404602F0F1FC99E71EF084FD09F000F985
:1005100098E7304627F072FD00288FD0014602AFE1
:10052000284604F0F7FD414638462A4602F0A4FF6B
:1005300097E80F0084E80F00284604F0AFFD0D9BFC
:100540000093304694E80E002BF0A8FB76E7524665
:100550004146384602F0B8FD97E80F0084E80F00E6
:10056000C3E700BFFC040020E4DA030870B53C4E8A
:100570003C4D3D4C30461AF009F83C493C481AF0D5
:1005800005F83C493C481AF001F83C493C4819F050
:10059000FDFF3C493C4819F0F9FF29683B4819F038
:1005A000F5FF69683A4819F0F1FFD5E902123948B8
:1005B00019F0ECFF384B3948D3E9001219F0E6FF87
:1005C0003749384819F0E2FF2146374819F0DEFF75
:1005D0002146364819F0DAFF2146354819F0D6FF92
:1005E0002146344819F0D2FF2146334819F0CEFF96
:1005F0003249334819F0CAFF3249334819F0C6FF6F
:100600003249334819F0C2FF3249334819F0BEFF6E
:10061000324A3349334819F0B9FF1E2209213248C2
:1006200019F0B4FF1E220921304819F0AFFF4FF432
:1006300080012F4819F0AAFF4FF4807211462D480F
:1006400019F0A4FF64212C4819F0A0FF2B480021C9
:1006500019F09CFF3046BDE8704019F097BF00BF0D
:10066000145F0408FC04002060610408445F04086F
:10067000585F0408905F0408985F0408005802D08F
:10068000D05F040800507B00086004084060040844
:1006900078600408B0600408DCD90308E860040846
:1006A000206104082861040868610408A061040846
:1006B000D8610408106204084862040880620408D3
:1006C0008C620408C4620408CC6204080463040851
:1006D000086304084063040848630408806304084E
:1006E0008C63040898630408D06304080864040851
:1006F0004064040878640408B0640408E8640408EA
:10070000704700BF08B509F00FFB0248BDE808407C
:1007100009F0DEBA01070008704700BF00207047EB
:1007200008B109F005BB09F007BB00BFB0B100B5C7
:10073000C1B000F500716A4630F8023B2BB1884227
:1007400003D002F8013B0028F6D100236946044893
:10075000137019F01BFF41B05DF804FB704700BF38
:100760002065040808F08EBE84B001A880E80E0061
:1007700004B0704782B08DE80C0002B0704700BF33
:1007800084B001A880E80E0004B00020704700BFCC
:1007900082B010B400240DF1040CC0E900445DF8EF
:1007A000044B8CE80C0002B0704700BF82B002AB73
:1007B00003E9060002B070470022C0E90022C0E948
:1007C000022270472C3110B404460FC984E80F0090
:1007D00020465DF8044B704710B504461BF052F8F4
:1007E000044BE36040F2031114222162A2622360F1
:1007F00010BD00BF90D3030810B504461BF042F8AB
:10080000044BE36040F2031114222162A2622360D0
:1008100010BD00BFE8D3030810B504461BF032F842
:10082000054BE360142040F203210022A062216204
:10083000A265236010BD00BF44D4030810B5044670
:100840001BF020F8014BE360236010BDA0D4030827
:1008500010B504461BF016F8014BE360236010BD91
:10086000DCD4030810B504461BF00CF8014BE36020
:10087000236010BD18D5030810B504461BF002F81C
:10088000014BE360236010BD54D5030810B5044646
:100890001AF0F8FF014BE360236010BD90D5030808
:1008A00010B504461AF0EEFF014BE360236010BD63
:1008B000CCD5030810B504461AF0E4FF034BE360FF
:1008C0004FF47A722262236010BD00BF08D603087D
:1008D0001AF0DEBF1AF0DCBF1AF0DABF1AF0D8BF88
:1008E0001AF0D6BF1AF0D4BF1AF0D2BF1AF0D0BF98
:1008F0001AF0CEBF1AF0CCBF1AF0CABF1AF0C8BFA8
:100900001AF0C6BF1AF0C4BF1AF0C2BF1AF0C0BFB7
:100910001AF0BEBF1AF0BCBF10B504461AF0B8FFFB
:1009200004F19800BDE810401AF0B2BF014B03601B
:100930001AF0B0BF6C250408014B03601AF0AABF7F
:100940006C250408014B03601AF0A4BF6C25040851
:10095000014B03601AF09EBF6C250408014B036035
:100960001AF098BF6C250408014B03601AF092BF7F
:100970006C250408014B03601AF08CBF6C25040839
:10098000014B03601AF086BF6C250408014B03601D
:100990001AF080BF6C250408014B03601AF07ABF7F
:1009A0006C250408014B03601AF074BF6C25040821
:1009B000014B03601AF06EBF6C250408014B036005
:1009C0001AF068BF6C250408014B03601AF062BF7F
:1009D0006C250408014B03601AF05CBF6C25040809
:1009E000014B03601AF056BF6C25040884B02DE952
:1009F000F04107AC84E80E00804600210C480B9EB5
:100A00001AF04EFF08F12C0305460FCB05F1140731
:100A100087E80F0094E80F0005F1240484E80F0034
:100A20002E61C8F81C50BDE8F04104B0704700BF0B
:100A300018D5030882B02DE9F04F0C469DB0E5694A
:100A40000592D5E90567D5E9078926A981E80C0053
:100A50000297A8EB06070397029F299B0093A9EB37
:100A600007070497279F089306970EC9289FD4F875
:100A700028A00797834610A81BF0F8FD2A9B002B9F
:100A800067D02A9B013B032B0BD8DFE813F004004F
:100A9000D600DC00C700049A069F0297114601EBBE
:100AA0000709012B11D81AF0010F40F0E2801AF06B
:100AB000040F0AF0080300F0EB80002B40F0EA80FE
:100AC000039B059E1A4602EB0608464522DA029B66
:100AD0004B45B4BF0023012385F83430236ADB057E
:100AE0001ED50CAD4346029ACDF8009031462846FB
:100AF0001BF010FC95E80F002C3484E80F005846DA
:100B0000DDE903121BF088FB58461DB0BDE8F04F2D
:100B100002B07047012385F83430236ADB05E0D446
:100B20000DF1500A31464346029ACDF800905046E6
:100B30001BF0F0FB9AE80F0018AE86E80F00236860
:100B40001B9A00925F6D204696E80E00B847E5615B
:100B5000D5E72B6B0093109F099705F124030ECB6B
:100B6000119F0A9712A81BF081FDD5E90931029A5D
:100B70000B91DDE912CE571A099A6245A6EB0306DE
:100B800000F0B6801AF004000AF008010AF0010231
:100B9000029074D031B9002A40F08A80029800286F
:100BA00000F08680EB6AA8EB0308059B33441E46E1
:100BB000079B9844002A40F0A280029B002B40F043
:100BC000DA80002940F0EE80039BA8EB0608A8EB32
:100BD000030808EBD87806EB680603EB06080A9BC7
:100BE000734500F093801AF0100C0AF020010AF00F
:100BF00002026CD1002A65D1002963D02B6BA9EBCE
:100C00000309069B3B4418460293089B9944002A1B
:100C100000F09980A9EB0003049356E7079B039A21
:100C20001AF0020FA3EB0206984614D0089B069F09
:100C30000297DA1B0492994647E7089A0499511AD9
:100C4000029191462DE7039B059E1A461AF0020F6A
:100C500002EB0608EAD11AF0100F0AF0200361D067
:100C6000002B61D1049B069F02971A4602EB0709ED
:100C70002BE7079B059E9A1B0392984625E70AB926
:100C800000298FD1099800FB06F696FBFCF681E758
:100C9000002B77D126AB0FCB1BF0CEFC039B059A24
:100CA000C01A00EBD07002EB600603EB06080CE7FD
:100CB000A8EB0308099B03FB08F898FBFCF8A8EBDA
:100CC000030872E70A9B03FB07F797FBFEF700296F
:100CD00094D112B9BCF1000F90D10B9BA9EB030981
:100CE0000A9B03FB09F999FBFEF9A9EB030988E7C5
:100CF000EB6AA8EB0308059B1E44079B9844A8EBEE
:100D0000060303930A9B73457FF46DAF2B6BA9EB2E
:100D10000309069BFA18089B02929944A9EB020367
:100D20000493D2E6002B32D126AB0FCB1BF07AFC1A
:100D3000049B069AC01A00EBD07002EB600202928C
:100D400003EB0209C1E6BCF1000F05D129B1049BF8
:100D5000A9EB03030293B8E6F9B10299049BA9EB4E
:100D60000109A9EB030909EBD97901EB69020292A8
:100D700003EB0209A9E600297FF426AF039B03EBEE
:100D800006082CE7079B039A98469E1A9DE6089B47
:100D9000049A9A1A0292994697E6049B029A03EBE8
:100DA000020992E6039BA8EB030618E770B592B020
:100DB00008AD85E80600044695E803008BB101AB59
:100DC000A16B83E8050004AD2C340091284694E81B
:100DD0000E001BF011FC95E80F0084E80F0012B024
:100DE00070BD01A9A66B81E805000AAD009604F16B
:100DF0002C0328460ECB1BF0FFFB95E80F000EAD31
:100E000085E80F002368119A00925E6D204695E8F0
:100E10000E00B04712B070BD84B02DE9F04188B02B
:100E20000FAC00F12C0584E80E00064695E80F0093
:100E30008DE80F0094E80F001BF08EFA00283FD0D9
:100E4000D6F818C0BCF1000F46D0376A17F0010E73
:100E50003BD095E80F0004AF87E80F00DCF80030C6
:100E6000079A00926046D3F8648097E80E00C04766
:100E700094E80F00D6F818C00024F46185E80F004C
:100E8000BCF1000F1CD0376AF90713D595E80F00A5
:100E900004AC84E80F00DCF80030079A00925D6E25
:100EA000604694E80E00A847D6F818C0BCF1000FC1
:100EB00006D0376A7A0503D5DCF820309B0416D5B6
:100EC00008B0BDE8F04104B0704794E80F00C6F8E0
:100ED0001CE085E80F00D7E794E80F00C6F81CC0B7
:100EE00085E80F0008B0BDE8F04104B0704747F452
:100EF00000673762DCF82030094A43F4804304ACD1
:100F000061462046CCF820301CF06EF894E80300CF
:100F1000324608B0BDE8F04104B01CF091B800BF03
:100F2000B12A000884B02DE9F04FA9B00CAE056DD0
:100F3000046C82460DF1CC0B002070600C90C6E969
:100F400002008BE80E00002D00F0DA802B69002BE8
:100F500043D001230B930AF12C0797E80F0001AD52
:100F6000079585E80F00369B00930DF15008404629
:100F70009BE80E001BF050FA98E80F001BF022FAD5
:100F80000546002840F0B98097E80300079A369B91
:100F900082E8030000939BE80E0058461BF016FB06
:100FA000002C00F0AA80DFF898810895CDF828A0E1
:100FB000236A5F0502D5002D00F08880A54265D028
:100FC00003EA0802182A0ED06469002CF0D10898B0
:100FD00029B0BDE8F04F04B070476B691B1A18BF09
:100FE00001230B93B7E7DA0307D50A9BDB6C1B6978
:100FF000A342E9D10B9B002BE6D123680DF14009F8
:10100000DB6C484621469847236A399AA24208BFBA
:1010100000225B05099240D596E80F00079F87E8FC
:101020000F00139B00930DF1700A504699E80E00D3
:101030001BF0F2F99AE80F001BF0C4F90028C3D1A5
:1010400096E80F000DF1900C8CE80F00279A2368AA
:1010500000923A9A0492099A0392389A0292379A25
:101060000192D3F8409020469CE80E00C84764697E
:101070000028AAD0089A436922B152699A4258DDE1
:10108000002BA2DB0890002BA1D09EE70022C6E92E
:101090000022C6E90222154692E79BE80F00079F4F
:1010A00087E80F00139B00930DF1800A504699E8E2
:1010B0000E001BF0B1F99AE80F001BF083F910B194
:1010C000399BA34280D19BE80F00BBE7D4F8149072
:1010D000B9F1000F0BD0D9F82020900513D44A465F
:1010E00002E0116A89050DD45269002AF9D1002263
:1010F000C6E90022C6E9022262E70023089366E7F8
:101100000B9528E79146D9F8003018AD2846DB6CDE
:101110004946984795E80F00079F369D87E80F00DE
:1011200000959BE80E0030461BF076F94D46236A89
:1011300044E708980890002B3FF449AF45E700BF0B
:101140001800060084B02DE9F04190B017AC00F112
:101150002C0584E80E00064695E80F008DE80F0088
:1011600094E80F001BF0F8F820B910B0BDE8F0418A
:1011700004B07047B36B009304AF95E80E00384697
:101180001BF074FA1A9B009306AD94E80E002846F3
:101190001BF06CFA95E80C0097E803001BF040F890
:1011A00010F0FF0F2DD0B06C58B195E8060005F097
:1011B000E9F8002130461CF0ADF90021B06C1CF0BC
:1011C000A9F91A9B009394E80E003046FFF724FE1D
:1011D000049B002B02DD059A002A1EDC0CAD336A4D
:1011E000214A43F4A0433146284633621BF0FCFEFB
:1011F00095E80300324610B0BDE8F04104B01BF0A2
:101200001FBF1A9B0093304694E80E00FFF704FEC0
:1012100010B0BDE8F04104B07047144900920DF1E0
:10122000200806C940461BF07DF8F46B0CAD1CB9D4
:10123000D5E72469002CD2D0E369002BF9D1A36A49
:10124000142BF6D0236A13F48067F2D198E80F00CC
:1012500085E80F000F9A2368CDE9002720469F6B91
:1012600095E80E00B847E4E7B12A000844D6030821
:1012700070B505460C4641B18B6983421CD10B6A9F
:1012800003F01402142A1FD00024686DA0421AD063
:1012900020B1036860221B6D002198476C6594B1F2
:1012A0002A6A236812F040021B6D204611D00022EA
:1012B0006021BDE87040184708481DF011F8BDE8EE
:1012C000704019F04BBD70BD13F4803F18BF00246F
:1012D000DBE72021BDE87040184700BF4CD603086B
:1012E000D0F894308B4201D0FFF7C2BF002BFBD067
:1012F000704700BF84B02DE9F04792B01BAC00F1FD
:101300002C0584E80E00064695E80F008DE80F00D6
:1013100094E80F001BF020F820B912B0BDE8F047A8
:1013200004B07047B36B009304AF384695E80E00E5
:101330001BF09CF91E9B00930DF11808404694E8A1
:101340000E001BF093F998E80C0097E803001AF0E0
:1013500067FF336B009308AF94E80600F36A5FFA07
:1013600080F838461AF078FF544B97E803000CCB0E
:101370001AF056FF002833D0B8F1000F33D1356989
:10138000DDB12B6A9A0518D40DF1380802E02B6AFA
:10139000980512D413F4806FC3F300230AD097E8A2
:1013A000030088E80300286898E80600D0F8489011
:1013B0002846C8472D69002DE9D106F13C0393E882
:1013C000030032461BF03CFE1E9B0093304694E81F
:1013D0000E00FFF721FD12B0BDE8F04704B07047E2
:1013E000B8F1000FF0D0049B002B3FDD059B002BD4
:1013F0003CDD06F1440393E8030001ABB26B83E8E4
:1014000003000DF12808009295E80E0040461BF0FD
:10141000F3F835691DB32B6A13F400791FD10EAFB1
:10142000590517D5EB6923B11B69B34212D0C5F832
:101430001C90AB6A142B3DD098E80F0087E80F0092
:10144000119A2B68CDE900262846D3F838A097E8F2
:101450000E00D0472D6915B12B6A9A05E0D506F12B
:101460003C0393E8030032461BF0EAFD1E9B009309
:1014700094E80E003046FFF7CFFCB16900293FF435
:101480004CAF336A0A6A43F48053336293043FF5E6
:1014900044AF0EAC42F480420A622046084A1BF078
:1014A000A3FD94E80300324612B0BDE8F04704B053
:1014B0001BF0C6BDB36D002BCCD0BDE744D60308EE
:1014C000B12A000884B02DE9F04F93B01DAD85E836
:1014D0000E00002854D0DFF81491824606460DF124
:1014E000380895E80F001AF06DFF002848D1B3695D
:1014F000B76C002B49D017B307F1340494E80F0000
:1015000099F800C088E80F00BCF1000F51D0B36B10
:1015100000930DF1180B06F12C030ECB58461BF06F
:10152000B5F89BE80F0084E80F0094E80F008DE801
:101530000F0098E80F001AF00FFF00284DD1336A12
:10154000DB071DD506F12C0797E8030001AC209BB3
:1015500084E803000DF1280B0093584695E80E002F
:101560001BF04AF897E80F000D9F84E80F0028460B
:101570009BE80E0000971AF04FFFB669002EB0D11D
:1015800013B0BDE8F04F04B07047B245B3D095E852
:101590000F000EAC84E80F003368119A20925D6E44
:1015A00094E80E003046AC4613B0BDE8F04F04B0EE
:1015B000604795E80F000DF1040C8CE80F003B6CC0
:1015C00000930DF1180B94E80E0058461AF06EFFC8
:1015D0009BE80F0084E80F00A7E7304600211BF0CE
:1015E00099FF384600211BF095FFA8E77C310020C9
:1015F00010B504461AF046F9034BE360236006F089
:10160000F3FF206110BD00BF54D6030838B5084D64
:1016100004461AF037F905F53173E360236006F0EC
:10162000E3FF05F54075C4E90350256038BD00BFF0
:1016300090D3030838B5084D04461AF023F905F590
:101640003173E360236006F0CFFF05F54F75C4E901
:101650000350256038BD00BF90D3030838B5084D4E
:1016600004461AF00FF905F53173E360236006F0C4
:10167000BBFF05F55E75C4E90350256038BD00BFAA
:1016800090D3030838B5084D04461AF0FBF805F569
:101690003173E360236006F0A7FF05F56D75C4E9BB
:1016A0000350256038BD00BF90D30308036910B50F
:1016B000044643B90022054B226123602046BDE861
:1016C00010401AF0E7B81BF017F9F3E76C2504088F
:1016D00038B5044615461AF0D5F8064BE36023608A
:1016E0000DB9256138BD294620461BF0C1F825619A
:1016F00038BD00BF80D7030810B50446806940B9E3
:101700000022054BA26123602046BDE810401AF07C
:10171000C1B81DF0B9FBF3E76C25040810B5064B02
:10172000044640F8983BFFF7E7FF044B2360204650
:10173000BDE810401AF0AEB8BCD703086C25040809
:10174000F8B5D0E9044511F4803F0F460CBF4FF4C3
:10175000803600264CB39FB9002E34D03146206A23
:101760001BF0E2FA00282ED045B387B93146286A2B
:101770001BF0DAFAF8B124696D69002CEBD114E0A2
:101780003946206A1BF0D0FA0028E5D1B5B13946B8
:10179000286A1BF0C9FA28B16EB13146286A1BF0DD
:1017A000C3FA40B1002CE6D16D695DB10024002F71
:1017B000EDD1002EF1D12C462046F8BD246900253C
:1017C000002CC8D100242046F8BD00BF2DE9F0410F
:1017D000056A0646A80525EA020448BF21F480618F
:1017E000B7690C438CB065403462002F4BD015F0C4
:1017F000140F06D004F01403142B7A6D5DD09642BA
:1018000063D040F203431D4221D1F3693946002BD6
:1018100050D0610501D5EA0738D439466B0532D579
:10182000336A304A43F4006333620B6A08AC43F412
:1018300080430020F0610B6220461BF0D5FB94E84A
:10184000030032460CB0BDE8F0411BF0F9BB336831
:101850000DF110084046DB6C3146984798E80F00C0
:101860000DF1200C8CE80F003B680B9A0092D3F826
:10187000648038469CE80E00C047D6E906733946B6
:10188000C3B1002FC5D10CB0BDE8F081336A154A51
:1018900043F4006333623B6A02AC43F480433B622F
:1018A000394620461BF0A0FB94E8030032461BF0AB
:1018B000C7FBB1690029B1D1E5E7002AA1D13B6896
:1018C00038469B6D3146984708E014213046FFF7B3
:1018D00037FF3B6801469B6D38469847B769002F34
:1018E0008FD1D0E7B12A0008F0B5044683B0066A6C
:1018F000FFF76CFF256A606D85EA0603002836D085
:101900005F0619D5036815F0400114BF002240227C
:101910001B6D18BF40219847E26C6AB1236A1069B9
:1019200002685B06176D0BD5036A03F01403142BD2
:1019300006D100224021B847B54206D103B0F0BD20
:1019400040220021B847B542F8D0236A0B4A43F43D
:1019500000436D462846214623621BF045FB95E86F
:101960000300224603B0BDE8F0401BF069BBE26C07
:10197000002AE1D05906DFD52B46D0E7B12A00086E
:10198000F0B504468FB00E461546FFF7ADFFA369CC
:101990000BB10FB0F0BD2E43F20718D5A36B009327
:1019A00002AD04F12C0328460ECB1AF06FFE95E829
:1019B0000F000AAD85E80F0023680D9A00925F6E54
:1019C000204695E80E00B847A369002BE1D1B30784
:1019D000DFD5A36B009306AD04F12C0328460ECB94
:1019E0001AF054FE95E80F000AAD85E80F00236851
:1019F0000D9A00925E6E204695E80E00B0470FB03B
:101A0000F0BD00BF10B584B06C46002220461146E0
:101A10002DF05AFB94E80F001AF0D4FCB0FA80F0D5
:101A2000400904B010BD00BF00B583B0034600916B
:101A30000448054918F0AAFD03B05DF804EB06F070
:101A4000ADBD00BF506504083465040884B02DE9BD
:101A5000F04F0546D0F8C4009FB029AE002886E8B4
:101A60000E0000F38B80AB6C002B31D0AC6984B1DD
:101A7000C94B1B78002B40F08A802C9B0093284692
:101A800096E80E00FFF71EFD1FB0BDE8F04F04B052
:101A9000704734330FCB1AF095FC002840F0838256
:101AA000BE4BAC6C1B78002B40F0E98196E80F0030
:101AB00001AF87E80F00236C009334340EAF94E835
:101AC0000E0038461AF0F2FC97E80F0084E80F0089
:101AD000B14B1B78002B5AD1AB69002BCDD105F14E
:101AE0002C0797E8030001AC2C9B84E803000DF160
:101AF00048080093404696E80E001AF07DFD97E8EE
:101B00000F00159F84E80F00304698E80E000097FC
:101B10001AF082FC96E80F001AF054FC0028B3D1AA
:101B2000D5F80874002FBA4640F3FC8180460DF1C9
:101B3000580996E80F0084E80F0005EB081707F531
:101B40007277FB680093484697E80E001AF064FC31
:101B500099E80F001AF036FC40F6970200B3D5F86A
:101B6000087408F101084745BA464146404632DD4F
:101B7000B8F1040FDDD1FFF757FFDAE788481CF012
:101B8000AFFB1FB0BDE8F04F04B019F0E7B8AB6B86
:101B9000009305F12C030ECB30461AF077FD9BE73E
:101BA00096E80F0084E80F00FB6800930EAC97E8FE
:101BB0000E0020461AF07AFC94E80F0087E80F0028
:101BC0001AF044FD08F1EE0345F823001FB0BDE80C
:101BD000F04F04B07047022F40F3A481042F07D1C7
:101BE0003946384640F6AD02FFF71EFFD5F80874B7
:101BF00096E80F0005EB0A1A0AF5727A032F8AE8B5
:101C00000F0000F2528196E80F001AF01FFD4FF00E
:101C1000000B07F1EE03CDE90ABB45F8230005F5FB
:101C20006E726FF00041D5F808340994079114469C
:101C30009B45D84600F3BD800BF1010B9B455E46EA
:101C400000F3B480231D05EB08170C93994607F5A4
:101C500072770894CDF834B02AE0032E52D805EB01
:101C6000061303F572730FCB099C84E80F00FB6821
:101C7000009397E80E001AA81AF018FC1AAB0FCBC5
:101C80001AF0E4FC089BD3F800B04FEA002A59F898
:101C9000043B5B449AFBF3FA079B5345D5F80834A1
:101CA000C4BFCDF81CA0CDE90A860136B34279DB6A
:101CB000B8F1030FD1DD40F6B40204214046FFF72E
:101CC000B3FE032E43D805EB061303F572730FCB57
:101CD000099C84E80F00FB68009397E80E001AA89F
:101CE0001AF0E4FB1AAB0FCB1AF0B0FC40F6B602C8
:101CF0004FEA002A04214046FFF796FE089BD3F8DE
:101D000000B0C4E740F6B40204213046FFF78CFE71
:101D100005EB061303F572730FCB099C84E80F00E3
:101D2000FB68009397E80E001AA81AF0BFFB1AABE5
:101D30000FCB1AF08BFC089BD3F800B04FEA002AB7
:101D400040F6B60204213046FFF76EFE9FE740F6EC
:101D5000B40204213046FFF767FE05EB061303F5D6
:101D600072730FCB099C84E80F00FB68009397E81F
:101D70000E001AA81AF09AFB1AAB0FCB1AF066FCE9
:101D800040F6B6024FEA002A04214046FFF74CFE17
:101D9000089BD3F800B0D3E7483200207C31002004
:101DA00028D80308DDF834B00C9C41E7221D0C92C2
:101DB000FAE7DDE90943032B05D940F6C102042106
:101DC0001846FFF731FE0B9B032B67D80A9B002BAD
:101DD000C0F2F280032B6FDC0B9B1E01AB1903F5E5
:101DE00072730FCB84E80F000A9B1C012F190DF1B1
:101DF0003808D7F8D433009307F5727797E80E00C8
:101E000040461AF053FB98E80F0087E80F002B19A3
:101E100003F572730FCB1AF019FC0A9BD5F808442E
:101E2000EE3345F823000B9B9C423FF42DAE032C70
:101E300005D940F6C80204212046FFF7F5FD0B9BAB
:101E4000032B00F28F8005EB041303F572730FCBA5
:101E5000D5F80874AC1904F57274032F84E80F00E8
:101E600005D940F6CA0204213846FFF7DDFD0B9B79
:101E7000EE37EE3355F8272045F8232004E6AB6B08
:101E800000930EAF05F12C0338460ECB1AF0FEFB83
:101E900097E80F00343484E80F0019E640F6C102D9
:101EA00004211846FFF7C0FD90E740F6AE0204217A
:101EB0003846FFF7B9FDA6E6DDF828900B9E042111
:101EC0008E404FF40C624846FFF7AEFDAB1903F5A8
:101ED00072730FCB84E80F004B461C012F190DF1D4
:101EE0003808D7F8D433009307F5727797E80E00D7
:101EF0004046CDF828901AF0D9FA98E80F0087E804
:101F00000F0040F6C30204214846FFF78DFD4B4603
:101F1000032B7FF67CAF40F6C20204210A98FFF73C
:101F200083FD74E7002F73DB96E80F0005EB0A1AB8
:101F30000AF5727A032F8AE80F0005D940F6A40249
:101F400004213846FFF770FD96E80F001AF07EFB7B
:101F5000D5F8082407F1EE03013245F82300C5F84F
:101F6000082491E5184640F6C7020421FFF75CFDFE
:101F700005EB041303F572730FCBD5F80874AC1995
:101F800004F57274032F84E80F0005D940F6CA02E5
:101F900004213846FFF748FD40F6C90204210B989A
:101FA000FFF742FD63E7214628461BF0B3FA2146BE
:101FB000A86C1BF0AFFA73E5DDF828900B9E0421A6
:101FC0008E4048464FF40C62FFF72EFDAB1903F527
:101FD00072730FCB84E80F004B461C012F190DF1D3
:101FE0003808D7F8D433009307F5727797E80E00D6
:101FF0004046CDF828901AF059FA98E80F0087E883
:102000000F0040F6C30204214846FFF70DFD82E7AA
:10201000384640F6A3020421FFF706FDD5F8087400
:1020200082E700BF82B08DE80C0002B0704700BFAD
:1020300084B030B583B007AC84E80E00DDE90A3225
:1020400005680192009394E80E00AC6BA04703B0C2
:10205000BDE8304004B0704782B070B586B00EADB8
:1020600004460E4695E80300109D04959DF84450E3
:10207000059502AD85E803000CA903C90AAD85E802
:102080000C008DE803002368DD6B0AAB3146204667
:102090000CCBA84706B0BDE8704002B0704700BF47
:1020A0000020704784B030B587B00BAC84E80E00D8
:1020B0000F9B0568109A0193119B02920393129A49
:1020C0000E9B0492009394E80E002C6CA04707B07E
:1020D000BDE8304004B0704782B070B584B00AAE3D
:1020E00004460D4696E8030008AE86E80C008DE82D
:1020F00003000C9A2B680292294620465D6CD6E9B3
:102100000023A847204604B0BDE8704002B07047E5
:1021100030B482B06C4684E80600056894E8060096
:10212000AC6CA44602B030BC604700BF10B50B6871
:102130000446DB6C9847204610BD00BF03681B6D4A
:10214000184700BF84B030B583B007AC84E80E00F8
:1021500005680A9B009394E80E006C6DA04703B0DD
:10216000BDE8304004B0704782B02DE9F04FADB00B
:10217000C46B9DF8F40008900DF1300936A880E892
:102180000C000023C9F804300C93C9E90233002C79
:1021900000F09D8014AB09914FF00108079301AD49
:1021A0004EE0DA0749D55B0572D5B8F1000F44D08F
:1021B000226818AE3046D26C21460DF1E80B9047EC
:1021C0009BE8030085E803000DF1700A96E80E0015
:1021D0001B9E009650461AF00FFA99E80F0085E80A
:1021E0000F009AE80E0010AE1F9F304600971AF0BD
:1021F00013F996E80F001AF0E5F8F0B996E80F0029
:1022000028AE86E80F009BE803000AAB83E80300D2
:10221000089AD4F800C0059202AB3C9A049283E875
:1022200003002CAB13E903008DE80300099996E83D
:102230000C002046DCF83C60B0472469002C46D0F6
:10224000236A9905ADD52449204619F069FC3AABBB
:10225000804693E8030085E80300D8F83830079EED
:10226000009308F12C0330460ECB1AF0C5F996E81E
:102270000F00399E85E80F00009636AB0ECB48461E
:102280001AF0CAF8D8F82020236A02F0010888E77B
:10229000226820AE3046D26C21460DF1E80B904703
:1022A0009BE8030085E803000DF1900A96E80E0014
:1022B000239E009650461AF09FF936AB0FCB85E867
:1022C0000F0010AE9AE80E003046279F8EE72DB023
:1022D000BDE8F04F02B0704744D4030882B02DE946
:1022E000F04194B00446209D806D9DF8846005FB0C
:1022F00000000F461AA981E80C00051216B1266AE3
:10230000C6F34006A36C002B3BD0FF22EBB2114674
:10231000104617F083FF0E90A06C04F041F81EAB3E
:1023200093E8030001ABD4F84880A26B83E8030074
:1023300010AD00922C3494E80E0028461AF05CF997
:10234000214A0E9B0D9692E8030007AACDE90B33B4
:10235000CDE9093382E8030095E80F0003AC1D9D29
:1023600084E80F000026CDF80480029600951AAB91
:1023700038460ECB02F0BAFF14B0BDE8F04102B00F
:102380007047236B00930DF138081EAB93E80600ED
:102390004046E36A19F072FF98E8030002AACDE90B
:1023A000045682E803001CAB93E803001AAB0CCB85
:1023B0008DE8030039462046FFF7D6FE14B0BDE88D
:1023C000F04102B0704700BF44D6030882B02DE947
:1023D000F04F2E4C95B094F800809DF894900F46E5
:1023E0001EA9064681E80C0022ACB8F1000F18D0F7
:1023F00094E80300249B049302AACDF8149082E889
:10240000030020AB93E803008DE803001EAB0CCB68
:1024100039463046FFF762FF15B0BDE8F04F02B015
:10242000704794E8030001AD219BC5E900010DF15F
:10243000300B00931EAB0ECB58461AF0DDF806F1B8
:102440002C0393E803000B95C5E900010DF1400A48
:102450000F9D9BE80E00504600951AF0CDF89AE8C3
:102460000F00DFF82CC00B9DDCF8A0C4CDF814C021
:10247000CDE908C8CDE906CC85E80F00219B009383
:102480001EAB0ECB384602F081FFB1E74832002088
:1024900090D303082DE9F04FB5B0826B056A009226
:1024A000824600F12C030ECB1CA81AF0EFF8DAF8E4
:1024B000404005F48055ACB1AA4E002209E023F457
:1024C000006323629F054FF0010200F1A38064695D
:1024D00044B1236A1905F2D4002AF3D164690022B9
:1024E000002CF6D1DAF83C40DAF82030002D40F02C
:1024F0007A820A9543F40053CAF820300DF1C008DF
:10250000002C79D04FF00009CDE90B99CDE9109955
:102510000DF1C008CDE90E9ACDF83490C246CDF841
:102520001490CDF82490CDF81090CDF81C904D4625
:10253000CB46CDF82090CDF818904F46C846002DD8
:1025400000F0D380D4E9073671051ED52BB11B6985
:102550005B4500F009810023E361002F00F09081CA
:10256000A36A142B00F02582079A3092049A3192C4
:10257000059A2368CDE93228CDE9008B20469E6B71
:102580009AE80E00B047D4E90736002B00F0DB8054
:102590000A9BB3B116F4806C40F0EA801CAB0FCB01
:1025A0008AE80F0034AB13E903002668CDF808C0B1
:1025B0008DE803002146766C9AE80C001AA8B04713
:1025C000266A002F33D0720500F1D580B10500F1E5
:1025D000C0800127A54279D02469002CAFD1D04614
:1025E000DDF83CA037B10BF13C035A4693E80300F9
:1025F0001AF026FDDAF820301F9A009223F40053D7
:10260000CAF820301CAB40460ECB1AF02FF835B07C
:10261000BDE8F08F3146204619F082FA836D002B19
:102620003FF45CAF236A43F48053236256E716F409
:102630000077CFD04B49204619F072FA16F4805734
:102640008346C7D000F1440393E80300226A01AB3C
:1026500022F48052226283E80300DBF838300093D2
:102660000DF180090BF12C0797E80E00484619F090
:10267000C3FFDBE91465AE1921991096DBF84C60B5
:10268000049122980590AE19049D209ADBF85830E9
:10269000DDF88C802595059D06930792249299E894
:1026A0000F00CDE92658119619F08CFE069B053BCC
:1026B0000546072B00F2F081DFE813F0780178017E
:1026C000720172015301530175017501069B053BAF
:1026D000072B00F2DF81DFE813F033012201330121
:1026E00022011101F8001101F800089B069A93429B
:1026F0003FF428AF0D9B20930C9B21930B9B2293BF
:102700000E9B239320AE96E80F0019F095FF0490DE
:1027100096E80F0019F086FF26460590129507955A
:102720000DF1A0081394336A980507D440F20142D2
:1027300032EA03035ED03669002EF4D1139C002DDB
:1027400008BF5D4685E0B0057FF544AF002F3FF43C
:1027500071AF0BF13C035A4693E803001AF070FC8A
:10276000266A67E744D403080A9B002B3FF429AF8D
:10277000002F3FF45CAF099BCDE9143914AF97E803
:102780000300079B2493049B259301AA059B269392
:1027900082E803002CAECDF8008024AB0ECB30468F
:1027A000CDF89C8019F028FF96E80F008AE80F000A
:1027B00034AB13E903002668089B02938DE80300FD
:1027C00021469AE80C00766C18A8B047266AF307F1
:1027D000DDE918127FF5FAAE089B0020013BCDE938
:1027E0003000032B00F2F180DFE813F04101EB0031
:1027F0003D01380133683146DB6C404698472B9BDE
:10280000009398E80E0016A819F030FF089AD31E1E
:10281000012BDDE9161002F1FF3235D9012A02D869
:10282000059C241A0594002D00F0EC80049C002CDB
:102830000EDB059C002C0BDB012BD6F810C02AD92F
:10284000012A354633D96646002E7FF46CAF75E712
:10285000139C0D9A069B24920C9A25920B9A269211
:10286000053B0E9A2792072B00F21981DFE813F03F
:10287000CD00D800CD00D800E200EC00E200EC0072
:10288000B3053FF5D7AEA5E6049C641A0494002D69
:10289000CCD1D6F810C0049B109C1B1B0493079B43
:1028A0008342B8BF0346012A07933546CBD8059B20
:1028B000119A9B1A0593129B8B42B8BF0B46664632
:1028C0001293002E7FF42FAF38E7079B2493049BCD
:1028D0002593059BCDE9263824AB0FCB19F0A2FE3A
:1028E000119BA9EB0002D21A002114A819F094FC44
:1028F000149B09930025DDF854906DE6079B249303
:10290000049B2593059BCDE9263824AB0FCB19F00A
:1029100089FE119B00EB09021A440021E5E7079BA1
:102920002493049B2593059BCDE9263824AB0FCB3C
:1029300019F082FE099B191A109BC91A0022D4E7CC
:10294000079B2493049B2593059BCDE9263824AB54
:102950000FCB19F071FE099B03441946109B1944D3
:10296000ECE703230893002D40F0858097E80F00E3
:102970008AE80F000F98339A03680092A9465D6EAB
:102980009AE80E00A847059B0B93049B0C93079BAA
:10299000CDF824904D46CDF838800D93012719E6E7
:1029A00002230893DFE704230893DCE7012308935D
:1029B000D9E7089B002B7FF4D7ADB2057FF50AAEAF
:1029C000C7E65342119A9B1A3193319B009397E8C3
:1029D0000600309B384619F051FC149B0993DDF832
:1029E0005490266AF2E523F48053CAF820301CABD9
:1029F0000FCB19F0E7FCB0FA80F25209DAF8203078
:102A00000A9277E5D6F810C01AE7129A0D9BDDF806
:102A100038800793114619440C9A0591049291E568
:102A20000B9B129A05939A1A0C9B0792DDF838803B
:102A3000049387E5079B0B9A98460C9B9844CDE935
:102A400004320D9B07937DE50E9B079A98469A1AD0
:102A50000B9B05930D9B0492079373E5109A4B42D1
:102A60009B1A3093B1E7109B19443091ADE7119B4D
:102A70001A443192A9E7059B0B93049B0C934FF0EA
:102A80000009079BCDF824904D464F46CDF838807D
:102A90000D939FE500259FE5069B089363E70B9B3D
:102AA00005930C9B04930D9BDDF83880079349E553
:102AB00038B5036A5A04044603F4805507D403F476
:102AC00000422A431CBF23F40043236238BD23F491
:102AD00080430362FFF7DEFC236AF0E703689B6D27
:102AE000184700BF70B584B002AD064685E80C00FB
:102AF00059B10C46236B0093E36A95E8060028461B
:102B000019F0AAFBA469002CF4D195E8030086E82B
:102B10000300304604B070BD0368DB6D184700BF8A
:102B20002DE9F04F046C8BB002AE149F86E80C00C8
:102B3000ACB1DFF88090884606ADA7B9236821467E
:102B4000DB6C2846984796E803008DE8030095E87B
:102B50000F0019F01DFC68B96469002CEDD100204C
:102B60000BB0BDE8F08F3946206A1AF0DDF8002876
:102B7000E4D1F1E74946204618F0D2FF0DF1100BE1
:102B800082460028E8D0036B0093C36A96E80600EB
:102B9000584619F061FB009750469BE80C004146EF
:102BA000FFF7BEFF6469002CDAD00028C5D00BB057
:102BB000BDE8F08FBCD7030810B483B06C4684E83E
:102BC0000C0094E80C0003B05DF8044BFFF7A8BFBD
:102BD00003681B6E184700BF82B002AB03E9060012
:102BE00002B07047704700BF30B5036A094A83B02E
:102BF0006D4643F4004304460362014628461AF03A
:102C0000F3F995E80300224603B0BDE830401AF01E
:102C100017BA00BFB12A000810B5044618F032FEFA
:102C20001420064BA0621F21FF222162A265E360EF
:102C300023602046BDE81040FFF7D6BFBCD703088D
:102C400084B030B583B007AC84E80E0005680A9BF9
:102C5000009394E80E006C6EA04703B0BDE83040CE
:102C600004B07047FFF7C0BF0B4611B189698142BC
:102C700001D00020704711461846FEF761BD00BF25
:102C8000F0B58DB0002900F0AB800D4689690029B0
:102C90003CD10646002A686A376C1EDB002F3DD007
:102CA0007B6A834240F384807B693C46002B00F0C2
:102CB0009B805A6A904204DB96E04A6A824203DDB6
:102CC0000B4659690029F8D1C5E905162B615D61EC
:102CD0006B69002B6AD01D6127E0FFB17B6A8342DC
:102CE000DFDB01327C6900F08880002C7FD0636AD2
:102CF000984204DD7EE05F6A8742DADB1C460132DF
:102D00006369D3D0002BF6D12346DDE73E481BF0A4
:102D1000E7FA0DB0BDE8F04018F020B80023C5E98F
:102D20000536F36B002B5DD035642B6AD90712D5BD
:102D30002B6804AC2046DB6C2946984794E80F00CA
:102D400008AC84E80F0033680B9A00925F6E30463F
:102D500094E80E00B847726D2B6AE2B140F201426E
:102D60009A4329D09A0501D40DB0F0BD43F4006315
:102D70002B62336A254A43F4804308AC204631462F
:102D800033621AF031F994E8030032460DB0BDE821
:102D9000F0401AF055B91E4A1A40142ADED13368A1
:102DA00029469B6D304698472B6AD7E7F563BCE709
:102DB000C5E905763D61B4E743F400632B62336AED
:102DC000124A43F4804302AC3362204631461AF083
:102DD0000BF9324694E803001AF032F92B6AC1E786
:102DE0000C4894E7F5639FE7194623466CE73C4699
:102DF000234669E723463C465BE723463C46002BD7
:102E00007FF457AFF0E700BF3CD80308B12A0008B1
:102E10001400010034D8030810B504460021064808
:102E200018F03EFDD4F8CC30002B14BF0122002254
:102E3000027518BF036110BD44D7030810B50446DE
:102E40000021064818F02CFDD4F8CC30002B14BF1C
:102E500001220022027518BF036110BD08D70308C4
:102E600010B504460021064818F01AFDD4F8CC30FD
:102E7000002B14BF01220022027518BF036110BD90
:102E8000CCD6030810B5044605F0AEFBD4F87C336D
:102E900053B183420FD2D4F880134FF47A72C31A1D
:102EA00002FB01F292FBF3F30022C4F87C03C4F8A6
:102EB0008023184610BD00230022C4F87C03C4F808
:102EC0008023184610BD00BFFFF7DCBFD0F80834E0
:102ED000002B07DDD0F8803300220133C0F88033A7
:102EE000C0F80824704700BFD0F80834002B07DD75
:102EF000D0F8803300220133C0F88033C0F80824B2
:102F0000704700BF82B02DE9F04FA5B010AF309CE4
:102F100000940025099220328846089006CA0AA823
:102F20007D60C7E902552F93109519F0A7F90B9B07
:102F300000930DF1BC0B9BE806000A9B14A819F046
:102F4000F1F9D8F8C430D8F808945A1CA945C8F843
:102F5000C42011DD01AE08F56E7A07965AF8043BDD
:102F6000002B1CDC09F101090135A94501DD042D07
:102F7000F4D1D8F8C430013BC8F8C43097E80F004A
:102F800019F020FA002859D097E80F00089C84E82F
:102F90000F00089825B0BDE8F04F02B070479BE8DD
:102FA0000300079B83E8030008EB051404F5727423
:102FB000E368009394E80E0018A819F007FB9BE85B
:102FC00006000CA819F06CF918AA0FCA20AE86E802
:102FD0000F000CAA92E803000EAB83E803004FF049
:102FE000010C02ABFF22CDE9042C83E8030024AAE4
:102FF00012E903008DE80300D8F8001096E80C00F1
:103000004046CE6B0999B04794E80F00079E86E8CA
:103010000F00179B00931CAC14AA20460ECA19F08F
:10302000FBF994E80F00079E139C86E80F000094BC
:1030300097E80E00384619F039FA95E79BE8030047
:1030400001AB139A83E80300009297E80E000898FA
:1030500019F0BCFA9DE700BF82B010B582B0069CA3
:10306000009405930446FFF74DFF204602B0BDE8EB
:10307000104002B0704700BF002A70B4044610DB55
:10308000D1F8080400280CDD01F56E75002355F811
:10309000046B76B9013001320133984201DD042B13
:1030A000F5D10023C4E90033C4E90233204670BCE3
:1030B00070479A42F0D101EB021303F572730FCB04
:1030C00084E80F00F2E700BF10B50446FFF7D4FF15
:1030D000204610BD2DE9F04FD0F80814B24AB34B8A
:1030E00016781D78A3B000290EACD4BF00210121B1
:1030F0000122834620462BF0E7FF94E80F0019F0E9
:1031000061F968B994E80F0016AC84E80F00DBF8A9
:103110000030199A00925F6E584694E80E00B84746
:1031200056EA0503DBF808942DD1B9F1000F2ADD2A
:103130005F46D846012516AC08F572730FCB04EB39
:1031400005164D4506E90F002946284640F60E2291
:1031500000F00281032D01D1FEF766FC013508F174
:103160001008E9E70BEB091694E80F0007F5617505
:103170001037B74204F1100485E80F00F4D1CBF802
:10318000B493DBF8089409F1FF34002C71DD0BF5E2
:103190006E7ADAF8002001AB0027002A079307F1C6
:1031A00001054B4615DC5C1EAC4261DD042D07D1E8
:1031B00040F61A2229462846FEF736FCDBF808348A
:1031C000DAF804200AF1040A2F46002A07F1010563
:1031D000E9DD9D42E7DA3B0109935B4403F572792F
:1031E0000AF104062C460895032C05D940F61C224A
:1031F00004212046FEF718FC56F8043B002B2EDD78
:10320000032C40F28880042104FA01F540F61F22C5
:103210002046FEF709FC0BEB050303F572730FCB99
:10322000079F87E80F00D9F80C30009399E80E004B
:1032300016A819F03BF916AB0FCB19F007FADAF81C
:103240000070804640F6222204212046A8EB0707A2
:10325000FEF7EAFB56F8043CFF1A002F31DBDBF8DF
:1032600008340134A342BFDC089D5C1EAC429DDCE7
:103270009946002C21DB0BF56E75032C204640F699
:103280002C224FF004010CDDFEF7CEFB55F8243064
:1032900053B1013C032C204640F62C224FF0040190
:1032A000F2DC55F8243023B9DBF80834013BCBF8C5
:1032B0000834013CE1D5DBF80894484623B0BDE86A
:1032C000F08F032C41D85D4405F5727595E80F0029
:1032D000079D85E80F00099B0BEB03050AAFD5F8A6
:1032E000D433009305F5727595E80E00384619F051
:1032F000DDF897E80F00032C85E80F00CAF800807E
:1033000005D940F6272204212046FEF78DFB002335
:1033100046F8043CA3E725010BEB050303F57273A4
:103320000FCB079F87E80F00D9F80C30009399E87E
:103330000E0016A819F0BAF816AB0FCB19F086F9E3
:10334000DAF800708046C71B84E740F62522042186
:103350002046FEF769FBB6E7DBF8B433002B7FF7B6
:1033600001AFD846002612AD08F561730FCB85E892
:103370000F00DBF80030159A0092D3F864A058468D
:1033800095E80E00D047DBF8B4330136B34240F67F
:103390001122314630467FF7E5AE032E01D1FEF70C
:1033A00043FB08F11008DFE79800002048320020B6
:1033B000F0B5044687B008460D461746FFF78AFE6B
:1033C00030B9C4E90000C4E90200204607B0F0BDEE
:1033D0000F4B02AED3F8B8220092D3F8B4323A467B
:1033E00030462946FFF78EFDD5F80834002B07DD5F
:1033F000D5F8803300220133C5F88033C5F808249E
:1034000096E80F0084E80F00204607B0F0BD00BF2B
:1034100090D30308F0B50546D1F8900085B00C466E
:1034200050B102F0BDFF2846D4F890202146FFF7A6
:10343000BFFF284605B0F0BD01460B4818F030FA32
:10344000A26BC4F8900002AE009204F12C030ECBE4
:103450000746304619F00AF9384696E8060002F0A9
:1034600091FFD4F89000DCE7E4DA030810B50446D5
:10347000FFF7D0FF204610BD10B50446FFF798FFB8
:10348000204610BDFFF726BED0F80834002B01DD22
:1034900001207047FEF7B6BAD0F80834002B01DDE2
:1034A00001207047FEF7AEBA70B58CB002AB83E86E
:1034B0000600184A039B009304AC05460B462046C1
:1034C00006CA18F02FFF94E80F0008AC84E80F003C
:1034D0002B680B9A00925E6D284694E80E00B04768
:1034E00095F81A342E6A93B146F0600605F12C0364
:1034F0000FCB84E80F002B680B9A009228462E62AF
:103500005E6E94E80E00B04728460CB070BD46F0E1
:103510002006EBE744D6030882B06B4683E806003A
:1035200093E8060002B0FFF7BFBF00BF90F81A246F
:103530008A4227D010B5044684F81A1481B9D0F80D
:10354000940018B1036840221B6D9847216E29B37F
:103550000869036840221B6D00219847012010BDB7
:10356000026E8AB11069036800221B6D40219847E2
:10357000D4F8940080B1036800221B6D4021984765
:10358000012010BD00207047036840211B6D984743
:10359000D4F894000028EED1012010BD2368204605
:1035A0001B6D40229847012010BD00BFFFF7BEBF32
:1035B000C0F8CC10704700BFC0F8CC10704700BFF7
:1035C0002DE9F04F0E4699B00CA9092E044681E86A
:1035D0000C0005D90020C4F8CC0019B0BDE8F08F6C
:1035E00006F15B0A4FEACA0800EB080BDDE90C7232
:1035F000DBF8043000930EAD50F83A3002922846C2
:1036000006C918F029FE04EB860944F83A70029ABC
:10361000CBF80420D9F868300397002BDAD09D4B03
:1036200095E803000CCB18F0FBFD0028D2D0D9F8A8
:103630006870BD69DDE90223C5B1AC4200F0BD8010
:1036400010AF02E0AC4200F0B880CDE91032296B37
:103650000091EB6A97E80600384618F0FDFDAD6969
:10366000DDE91032002DEDD1D9F86870BC4200F0D0
:10367000A48000231946C4F878638748C9F86830E5
:1036800018F00EF9D4F8CC300490002B18BF036169
:1036900006F1470314BF0122002204EBC3030275A5
:1036A00093E8030006F1380312AA04EBC30382E88F
:1036B000030093E8030006F1510304EBC30314ADC8
:1036C00085E8030093E8030008F1500818AB03E90C
:1036D000030004EB080354F83A105B68049D06935A
:1036E00054F80830D9F8D0C0179808910DF128087F
:1036F000DBF8041009934FF0000AD9F898310793CA
:103700002E64169B85F844A0059106CA0090404699
:103710000CF1010B18F0B2FD98E8030005F1380236
:1037200082E80300049514A8179D169B90E80600F4
:103730004046009518F0A2FD049A98E8030013464D
:10374000303383E8030082F845A010460899636E81
:103750001162069AC261099A8261BB42079A059971
:10376000C2624162C0F828B04FF0000108BFC4F83F
:1037700064A04A4818F094F8D4F8CC30002B16BF57
:10378000012200220361D9F8D0300275002282851F
:10379000013322684362039BC361029B03620146BB
:1037A00086628761136E2046182298470023012005
:1037B000C4F8CC3019B0BDE8F08FA8F1A0016018B2
:1037C000635042600021C4F8786335480593049241
:1037D00018F066F8D4F8CC100546002918BF296106
:1037E00006F1380114BF0120002004EBC101287547
:1037F00003C906F1510C04EBCC0C14AF87E80300AD
:103800009CE80300DDE9042318AF07E9030008F191
:103810005008CDE9123204EB08001799D9F8D0C04E
:10382000D9F89831D0F804B054F808A0AE6412AAC0
:103830000AAE009106CA0E9F04933046169B059768
:103840000CF10108DDF83C9018F018FD96E8030033
:1038500005F1400282E80300179F169B14AA06CACE
:103860003046009718F00AFD96E8030005F138038A
:1038700083E80300049B059FEB62039B2B62029B82
:10388000C5F81CB0C5F82880C5F818A0C5E90C79A2
:103890006B628BE744D6030808D70308CCD603082D
:1038A00044D7030882B06B4683E806000CCBD0F8FF
:1038B000781302B0FFF784BE10B485B06B4683E87E
:1038C0000600044693E8030002AB83E805000CCB36
:1038D000D4F87813204605B05DF8044BFFF770BEAE
:1038E00010B483B06C4684E80C0094E80C0003B07C
:1038F0005DF8044BFFF764BE04F076BE10B50446D5
:1039000004F072FE206110BDA1F1300310B4092B48
:103910004FF0000482778183846113D8A1F12603DC
:1039200083618369A3B92A39132911D8DFE801F02B
:103930003B3835322F2C10101010101010101010B2
:1039400029261023A1F14103192B04D828318161C4
:103950005DF8044B7047A1F16103192B04D80831BD
:1039600081615DF8044B70472029DAD1832383619C
:103970005DF8044B704788238361E9E78C238361FA
:10398000E6E78B238361E3E787238361E0E789230D
:103990008361DDE785238361DAE78A238361D7E7E3
:1039A00084238361D4E786238361D1E7FFF7ACBF2B
:1039B00010B4A1F10A040023092C8383827781616A
:1039C000A1F1690308D82631192B818301D841332D
:1039D00083835DF8044B7047192BF8D9832904D1F0
:1039E000202383835DF8044B704784390829F0D87D
:1039F000DFE801F01D1A1714110E0B0805003B2318
:103A00008383E6E73A238383E3E72C238383E0E79A
:103A10002E238383DDE73D238383DAE72F2383830C
:103A2000D7E72A238383D4E72D238383D1E72B236E
:103A30008383CEE7FFF7BCBFA1F18D03072B3CD8F2
:103A4000DFE803F00B1C2814362A2F04838B9BB964
:103A50008069003018BF01207047808B20F0200063
:103A6000413819288CBF002001207047808B20F03E
:103A70002003413B052B07D801207047808B20F0A5
:103A80002003413B192BF7D9303809288CBF00207F
:103A900001207047808BF7E7838B002BD8D0002064
:103AA00070478069043803288CBF002001207047CC
:103AB000808B003018BF012070478069431A58423C
:103AC0005841704770B403AD044655F8046B8162E9
:103AD00095E803006262002504F11C0284F82C5072
:103AE00082E8030084F82D302046A66170BC704740
:103AF00030B4816242620399049A80F82D30002527
:103B0000029B80F82C50C0E90712836130BC7047DB
:103B100070B403AD044655F8046B816295E8030068
:103B20006262012504F11C0284F82C5082E8030033
:103B300084F82D302046A66170BC704730B4816295
:103B400042620399049A80F82D300125029B80F887
:103B50002C50C0E90712836130BC7047F0B587B0C4
:103B600004AE86E80C0002AD119B016401220446FC
:103B700080F8442096E8060028460093109BDDE973
:103B80000E7618F07BFB95E80300119A009204F181
:103B900038030CAA83E80300109B284606CA18F0D5
:103BA0006DFB95E8030004F1300212AB82E80300DC
:103BB00093E8030004F1200214ABC4E90A6782E829
:103BC000030093E8030004F1180383E80300204690
:103BD00007B0F0BD2DE9F04E8CB08E4614A9044616
:103BE00003C908AE18AD86E8030095E803000CADE4
:103BF00005E903000DF1180C8CE80C000B98C4F8D3
:103C000040E0012702AD84F8447004A9009081E8E7
:103C10000C0028469CE806000A9BDDE91ABADDE99B
:103C20001C9718F02BFB95E803000B9A009204F107
:103C3000380383E803000A9B96E80600284618F03C
:103C40001DFB95E8030004F1300383E80300169B95
:103C5000E362179BA3622046C4E908BAC4E9069749
:103C60000CB0BDE8F08E00BF2DE9F04186B004AE87
:103C700086E80C0002AD119B01640022044680F826
:103C8000442096E8060028460093109B9DF8488043
:103C9000DDE90E7618F0F2FA95E80300119A009229
:103CA00004F138030CAA83E80300109B284606CAD7
:103CB00018F0E4FA95E8030004F1300213AB82E84F
:103CC000030093E8030004F1200215ABC4E90A677E
:103CD00084F8458082E8030093E8030004F11803A8
:103CE00083E80300204606B0BDE8F0812DE9F04FDF
:103CF0008DB08E4616A9044603C908AE1AAD86E8F3
:103D0000030095E803000CAD05E903000DF1180C64
:103D10008CE80C000B98C4F840E0002702AD84F852
:103D2000447004A9009081E80C0028469CE8060035
:103D30000A9B9DF870B0DDE91DA9DDE91F8718F029
:103D40009DFA95E803000B9A009204F1380383E88A
:103D500003000A9B96E80600284618F08FFA95E8BB
:103D6000030004F1300383E80300189BE362199B0E
:103D7000A362204684F845B0C4E908A9C4E90687CF
:103D80000DB0BDE8F08F00BF2DE9F04186B004AE64
:103D900086E80C0002AD0E9B01640122044680F807
:103DA000442096E8060028460093DDE90C739DF850
:103DB0003C8018F063FA95E803000E9A009204F133
:103DC000380383E8030096E806000D9B284618F0A8
:103DD00055FA95E8030004F1300210AB82E80300C5
:103DE00093E80300002504F1200204F11803A76200
:103DF00084F84580E56282E8030083E803002046FA
:103E000006B0BDE8F08100BFF0B482B06C4684E833
:103E10000C009DF82430099394E80C0006460F46E8
:103E20003946304602B0F0BCFFF7AEBFF0B587B000
:103E300004AE86E80C0002AD139B8164044696E84C
:103E4000060028460093129BDDE9107618F016FA5A
:103E500095E80300139A009204F140030CAA83E84A
:103E60000300129B284606CA18F008FA95E80300DA
:103E700004F138020EAB82E8030093E8030004F17A
:103E8000300214AB82E8030093E8030004F120023F
:103E900016ABC4E90A6782E8030093E8030004F163
:103EA000180383E80300204607B0F0BD2DE9F04F6A
:103EB0008FB00F4618A9044603C90AAE1EAD86E8A6
:103EC000030095E803000EAD05E903000DF1200C99
:103ED0000D98A76406A98CE80C00009081E80C00FE
:103EE000DDE9227204AD28460C9B03929CE8060093
:103EF000DDE91ABADDE9209818F0C0F995E8030069
:103F00000D9A009204F1400383E8030096E806004E
:103F10000C9B284618F0B2F995E8030004F1380329
:103F200083E803001C9BE362039A1D9BA362204667
:103F3000C4E90CBAC4E90898A761E2610FB0BDE812
:103F4000F08F00BF002931D038B50D460446816B93
:103F50002846FFF771FD40B3AA7F84F84320AB6980
:103F6000A88B2969E363002384F84530A4F8400056
:103F70002163E36AE2B1002BCCBF0122002263631C
:103F800084F84420CCBF04F1240304F11C0393E81B
:103F90000300224619F048F894F8450010B9E36A86
:103FA0000133E362B0FA80F0400938BD084670473B
:103FB000012BD4BF0021012184F84410013B04F1FE
:103FC0001401E26203C96363224619F02DF894F8E4
:103FD0004510B1FA81F0400938BD00BF38B50B4635
:103FE00004460D49184617F09BFD646C80B10546E8
:103FF00014B90DE024695CB194F84230002BF9D07B
:1040000029462046FFF79EFF0028F3D0204638BD02
:104010000024204638BD00BF90D60308F8B5456D92
:1040200004460F4628461A4917F07AFD236D0646C6
:1040300013B11A6932B30123E26C65B1296A11F434
:10404000E02F08D0C2B1BBB9106903683946DB6DF7
:10405000984788B1F8BD3AB133B910690368394659
:10406000DB6D98470028F5D136B133683046DB6DFB
:10407000394698470028EDD139462046BDE8F8403A
:10408000FFF7ACBF5B69003318BF0123D4E700BF63
:10409000BCD703082DE9F041046C80460E4654B1AC
:1040A000124F1546294665B1206A18F03DFE40B909
:1040B0006469002CF6D131464046BDE8F041FFF777
:1040C0008DBF3946204617F02BFD2A463146002881
:1040D000EED003681B6E984764691CB10028E1D0DC
:1040E000BDE8F0810028E6D0BDE8F081BCD7030828
:1040F00010B5044641B1D0F8CC30002B14BF0120DC
:104100000020087518BF0B612046FFF7C3FF00238E
:10411000C4F8CC3010BD00BFD0F8C830002B70B54B
:1041200004460D4623DC45B1D4F8CC30002B14BF37
:10413000012200222A7518BF2B61D4F8940040B1E7
:1041400003682946DB6D984718B10023C4F8CC30CA
:1041500070BD266E9EB1306903682946DB6D9847B5
:104160000028F2D129462046FFF738FFEDE707493E
:10417000284617F0D5FC0028D5D0002070BD294670
:104180002046FFF74BFFC4F8CC6070BD90D6030803
:104190002DE9F047C56D002D04460E469146984620
:1041A00014BF0127002721D01BB1D0F814348B4253
:1041B00069D07049284617F0B3FC6F49E06D17F0DD
:1041C000AFFC8246D4F81404A0BBB4F81834002B1A
:1041D0003DD1BAF1000F03D001465046FFF7B2FEC1
:1041E0000023C4F81434A4F81834E36594F81B349D
:1041F0008BB1E26DB8F1000F36D10023C4F814344E
:10420000A4F8183484F81B342AB10023C4F8CC3045
:104210003846BDE8F087B8F1000FF6D0D4F8C830C2
:10422000002B69DD0123C4F81464A4F8189484F801
:104230001B34EAE70021514817F032FB0022D4F882
:104240001414FFF7B5FBB4F81834002BC1D00021CB
:104250004A4817F025FB0022B4F81814FFF754FB66
:10426000BAF1000FB8D1BBE7D4F81434B342C4D1CB
:10427000B4F818344B45C0D1002AC6D1D4F8C830A0
:10428000002BCFDCC1E7B0F81834934291D1394903
:10429000284617F045FC3849E06D17F041FC82468E
:1042A0000EBB3046B4F81834A3B9BAF1000F03D0EE
:1042B00001465046FFF746FE94F81B34E26D002B92
:1042C000D2D1002AAAD001270023C4F8CC30384626
:1042D000BDE8F0870021294817F0E2FA012249469B
:1042E000FFF712FBE1E70021244817F0D9FA012279
:1042F0003146FFF75DFBD5E794F81B14002984D104
:1043000096B9B9F1000F1DD1E06D1B4917F008FCFB
:1043100038B3C4F81464A4F81894002DD3D1E76D11
:10432000003718BF012770E7144817F0B9FA0122C7
:104330003146FFF73DFB23680146DB6D2046984779
:10434000E065DEE700210D4817F0AAFA0122494690
:10435000FFF7DAFA23680146DB6D20469847E065EF
:10436000D3E70449E06D17F0DBFB0028D1D1E0650D
:10437000CFE700BF90D3030844D8030890D60308C2
:10438000FFF706BF10B508490446806817F0C8FB60
:1043900018B1436C2361446410BD044819F0A0FFB8
:1043A000BDE8104016F0DABCBCD7030880D803087B
:1043B00038B50446154617F065FA0122064B84F815
:1043C00042209421A163E360294623602046BDE892
:1043D0003840FFF7D7BF00BF44D80308036910B5C2
:1043E000044613B90023236110BD18F085FA002399
:1043F000236110BD38B504460D4609B9256138BDA5
:1044000018F036FA256138BD10B50446806910B938
:104410000023A36110BD1AF037FD0023A36110BD76
:10442000F8B50F1E0546164684691FDB002A0ADB15
:1044300094B9F7B1294613481AF0E2FC044658B97A
:104440000024AC61F8BDD4B9002FF9D02646F1E7BD
:10445000002CF5D00026374620461AF081FD324662
:10446000394620461AF046FDAC61F8BD002AEFDB64
:104470001CB9002EE4DD0027DCE70027ECE700266E
:10448000EAE700BF594E000870B504461B4D82B0E4
:1044900000F19806FEF7C0FB3046E5602146002299
:1044A00017F0F0F994F8C03025607F20A5F520754D
:1044B00001213222C4F8A450C4F89850206284F834
:1044C0001A14C4F8B82093B9FA236D460822C4F828
:1044D0000C24C4F8103428462146094A18F084FDFB
:1044E00095E80300A83484E8030002B070BD3046AC
:1044F000D4F8BC10FFF794FFE6E700BF88D80308A4
:104500005545000821EAE172016A914203D090F812
:104510002810026201B97047416AFFF781BF00BFEE
:1045200090F828308B4213D010B504460A4684F820
:10453000281029B9FFF774FF04F056F8E06110BDA8
:10454000D0E90821FFF76CFF04F04EF8E06110BDE0
:10455000704700BF2DE9F04F95B04FF0000800F113
:104560008C03824600F1640706460293C1460DF1B2
:10457000300B07E0029BBB4208F1010806F1080678
:1045800000F0948057F8044F002CF3D006F53673F2
:1045900093E80300A5698BE8030065B98EE02B6BF7
:1045A0000093EB6A9BE80600584617F055FEAD698C
:1045B000002D00F08280AA45F1D1D7F8A821DAF8C1
:1045C000B43093489B1A092BD8BF0A23C7F830315F
:1045D0000021CAF8788317F063F9DAF8CC30002BA1
:1045E00014BF01220022044618BF036102759BE834
:1045F000030006F5E0730EAA82E8030093E80300C7
:1046000010AD06F5227385E8030093E8030014ABB0
:1046100003E90300D7F868C0D6F8D812D7F83031CC
:10462000D6F8DC52139803930691D6F82833D6F8BF
:104630002C1307954FF00109CC4408930591129B68
:10464000C4F8408006CA84F8449000900AA8CDF8C7
:1046500010C017F013FE0AAB93E8030004F1380210
:1046600082E80300139D129B10A890E806000AA898
:10467000009517F003FE0AAB93E8030004F1300342
:1046800083E80300039BE362089BA361029B0699F6
:10469000049A2162079D0599A262BB426562E161AD
:1046A00008F1010806F108067FF46CAFB9F1000FBC
:1046B00000F0A58015B0BDE8F08F3C68A2453FF43E
:1046C0007CAF0023CAF8788319463B60504817F046
:1046D000E7F8DAF8CC300390002B1ABF036101220F
:1046E000002206F50E73027593E803000EAA06F584
:1046F000E07382E8030093E8030010AD06F522732F
:1047000085E8030093E8030014AB03E90300D6F83F
:10471000D812D7F830310691D6F82C13D7F868C0E4
:1047200004930791D6F8DC320399139808934FF05D
:104730000005D6F828330993C1F84080129B81F810
:10474000445006CA0CF1010500900AA8059517F01F
:1047500095FD0DF1280C9CE80300039B139D0DF1C2
:10476000400C03F1380282E80300129B9CE806002B
:104770000AA8009517F082FD039A059D0DF1280CFB
:104780009CE803001346303383E803004FF0000039
:1047900082F84500DAF8643095621046049AC262E5
:1047A000A3420699089A016208BF00234262079952
:1047B000099A8261C16108BFCAF8643000211548B6
:1047C00017F06EF8DAF8CC30002B014614BF012246
:1047D0000022027518BF03610020BB6ED6E9B652F5
:1047E0008885DAF80000CD610133C1E90823C1F8FA
:1047F0002880036E8C61182250469847BAE64946D5
:104800000AF1980015B0BDE8F04FFFF789BE00BF70
:1048100008D70308CCD6030882B02DE9F04FADB01D
:10482000092A0446379307D90020C4F8CC002DB0DC
:10483000BDE8F04F02B070471546D0F80C24D0F810
:10484000CC80524214AE30468A46114617F0E4FC42
:10485000D4F80C240132114616A817F0DDFC179B82
:1048600000930DF1700996E806004846169B17F074
:1048700059FDB8F1000F00F0498137AFD7E90023A7
:1048800029462046D4F8CCB00897FEF799FE05F1EA
:104890005B03DA000692A21892E8030054F8333062
:1048A0000793C4F8CCB01E4687E803008B46BAF1E4
:1048B000000F6BD0069B5033E218E65004EB850ADC
:1048C000C2F804B0DAF868303146002BACD1D4F825
:1048D000C8301E46002BA7D1CDE9371B089B93E8B3
:1048E00003002B018DE803000A93E318F8330FCB84
:1048F00017F04EFD58B1DAF81032D4F81024A8EBB6
:104900000303934203D8DAF8D03001331E46089BE4
:10491000CAF8D06093E8030001AA09921F9F0A9B7E
:1049200082E80300234400979C460EA899E80E00F5
:104930000CF1F80617F060FE0EAB0FCB86E80F0007
:10494000CAF81082D4F894303BB1996929B11B6A36
:1049500003F01803182B00F0D481636E002B00F0D5
:10496000DD809969002900F0D9801B6A03F01803E3
:10497000182B00F0F881002304EBC505CAF8683055
:104980001846C5E9A233C4F8CC3050E704EB8508DB
:10499000D8F86890B9F1000F3FF446AFD9F8186025
:1049A000E6B1B4425B46079A1DD00DF14809069F57
:1049B00002E0B44200F0AE80CDE91223316B0091E9
:1049C000F36A99E80600484617F046FCB669DDE947
:1049D0001223002EEDD1D8F868900697069BA03BD5
:1049E000E118E2584B68C4F8785300200146C8F833
:1049F0006800B348CDE9083216F052FFD4F8CC1065
:104A00000646002918BF316105F1380114BF0120A5
:104A1000002004EBC101307503C905F1510C04EB12
:104A2000CC0C24AF87E803009CE80300DDE90832E2
:104A3000069F0DF1A00C8CE803005037CDE9202330
:104A4000E119D8F8D0C0E2594B682998D8F89811E4
:104A500006924FF0000A20AA0CF10107356486F88F
:104A600044A00A930891289B099706CA00900CA8B5
:104A700017F004FC0CAB93E8030006F1380282E85F
:104A80000300299F289B24A890E806000CA8009703
:104A900017F0F4FB0CAB93E8030006F1300383E856
:104AA00003000A9BF361079B069A0899099FB2616C
:104AB000C6E9083BB762F16286F845A051468148D5
:104AC00016F0EEFED4F8CC30534518BF0361D8F889
:104AD000D0304FF00006868514BF012252460133C4
:104AE00002754362079A23688562C0E9072B014675
:104AF000C0F818901B6E1822204698470120C4F871
:104B0000CC602DB0BDE8F04F02B0704703F06CFDF3
:104B10008046B2E60697D8F8689064E7089BD4F818
:104B2000608093E80300B8F1000F00F0CD80099A8F
:104B30001F9B82E803000DF180080093404699E82E
:104B40000E0017F059FD98E80F0028AE86E80F0018
:104B5000DAF8D030226E2B99106922680091013367
:104B6000CDE9015300210A9603900491D2F84080C8
:104B7000204696E80E00C0478046B8F1000F3FF48B
:104B8000FAAE00214F4816F08BFED4F8CC30002B43
:104B900001461CBF03610122DAF8D03008BF0022B1
:104BA00002750122D8F810008A85013322688861D5
:104BB000C1E90935079B2046C1E9073B136E18225E
:104BC000984708F1180858F8083CCAF8683098E87F
:104BD000030005F15109D3F81880079A04EBC903C3
:104BE00083E803005B46B8F1000F1CD044451AD09F
:104BF0005E46069FA3464446DDF8288001E0A345B3
:104C00000ED0CDE92823216B0091E36A98E80600D5
:104C1000404617F021FBA469DDE92823002CEED1E2
:104C20005C460697B34606990B92A1F58C70A039A5
:104C300004EB000E04EB010C00272250CEF80430E8
:104C400004F198006250CCF804300121CAF8987140
:104C50000693FFF765FC3946C4F87853184816F0F8
:104C60001FFED4F8CC10069B0B9A0746002918BFEC
:104C700039610799CDE9371B089914BF012000203D
:104C8000387503C904AE86E803000026039604EBDA
:104C9000C90999E803002993099BDAF8D0C0289242
:104CA00083E803000A9B0CF1010C0CCB2946CDF8DC
:104CB00000C03846FFF768F8C4F8CC600120B6E5BC
:104CC00008D70308CCD60308099A1F9B82E8030083
:104CD000009399E80E0024A817F08EFC24AB0FCBAC
:104CE00028AE86E80F00DAF8D0302B9922680A96B1
:104CF0000133CDF81080CDF80C80CDE9001502937A
:104D000034E7089B0DF1600840460CCBFDF7EAFE46
:104D100098E80300099A1F9B82E803000DF19008B0
:104D20000093404699E80E0017F066FC98E80F00E3
:104D300028AE86E80F00D4F89400DAF8D0302B9A29
:104D40000168009201330022CDE90153CDE903222D
:104D5000D1F840800A9696E80E00C04780460028A9
:104D60007FF40FAFF9E5089B0DF1680840460CCBC6
:104D7000FDF7B8FE98E80300099A1F9B82E803003C
:104D80000DF190080093404699E80E0017F034FCAE
:104D900098E80F0028AE86E80F00606EDAF8D03091
:104DA0002B9A0168009201330022CDE90153CDE92D
:104DB00003220A96D1F8408096E80E00C04780464C
:104DC000DBE600BF82B010B582B0069C009405936C
:104DD000FFF722FD02B0BDE8104002B0704700BFEF
:104DE00082B030B482B004AC054644F8043F0B46B0
:104DF00094E8030002AC04E9030001990691194606
:104E0000009B284602B030BC02B0FFF705BD00BFD2
:104E100082B010B582B0069C00940593FFF7FCFCAD
:104E200002B0BDE8104002B0704700BF03F0DCBB29
:104E300010B5044603F0D8FB216AE06141B104F1EA
:104E40001003224693E80300BDE8104018F0ECB8C8
:104E50002046FFF765FBF2E7FFF7EABFFFF7E8BF81
:104E600010B5044601F048FA034BE360012284F8D0
:104E70002920236010BD00BFE4DA030801F0D6B991
:104E8000F0B583B06D46002985E80600044622DDB2
:104E9000002A0F4616461EDDCDE9007604F12003F8
:104EA00095E803000CCB17F0BBF990B194F84830AB
:104EB000D3B9C4E9087647B13EB1A269002A04DD3E
:104EC000E369012BD4BF00230123606984F82830F3
:104ED00020B903B0F0BD00263746DDE722F090FB95
:104EE0000023636103B0F0BD034819F0F9F903B082
:104EF000BDE8F04015F032BF28DB030830B5436948
:104F000089B005462BB9026A002A02DD426A002AEE
:104F100013DC05F1340494E80F0017F053FA50B98C
:104F20002B6A002B02DD6B6A002B2CDC00236B63E9
:104F3000C4E90133E36009B030BD00F1200292E81A
:104F4000030006AA82E80300E9690091184606CA30
:104F5000AB6922F0A5FB686120B90123C5E908000F
:104F6000C5E906036A6A0E4B009202AC93E806009C
:104F700020462B6A17F0D6F994E80F0005F13404A7
:104F800084E80F00C7E705F12C0393E803002A46E5
:104F900018F04AF800236B63C4E90133E360CAE701
:104FA00030DB030810B5044616F06CFC014BE360DF
:104FB000236010BD38DB030810B5044616F062FC10
:104FC000034A044BA26100222263E360236010BD08
:104FD0000000B44374DB030816F05ABC16F058BC4A
:104FE000002118F097BA00BF10B50446006918B147
:104FF00023F056FB00232361034B23602046BDE8CA
:10500000104016F047BC00BF6C250408014B03603C
:10501000FFF7EABF38DB030890F8483053B10023AC
:10502000C0E908330122436180F84830836180F889
:105030002830C261014B036001F0FCB8C8DC0308F2
:1050400090F8483053B10023C0E90833012243618E
:1050500080F84830836180F82830C261704700BF13
:10506000012380F82930704710B590F848405CB1B2
:105070000023012280F848304361C0E9083383618E
:1050800080F82830C26110BD034819F029F915F0E5
:1050900065FE204610BD00BFB0DB030810B590F8D8
:1050A00048405CB10023012280F848304361C0E9E8
:1050B0000833836180F82830C26110BD034819F0BD
:1050C0000FF915F04BFE204610BD00BFB0DB030802
:1050D000436970B5ABB999B1012280F84820CA681C
:1050E0004C69D1E90165002AC0E90512C0E907460B
:1050F000456203DD012CD4BF0023012380F8283052
:1051000070BD034819F0ECF815F028FE002070BDC2
:10511000B8DB0308FFF7DCBF84B02DE9F04FD0F80F
:1051200014C087B011AC84E80E000546DDE91567B0
:10513000DDE917B9DDF87C80209B9DF894A0BCF1D7
:10514000000F47D0BBF1000F39DB002E3DD0D6F861
:1051500014E0BEF1000F38D0BBF1000F0CD0384680
:10516000019319F0AFF958452FDDD6F814E0D5F8C2
:1051700014C0019B07EB4B07012B3BD0022B37D010
:10518000032B14BF00264FF4877694E80F0002AC7F
:1051900084E80F0094E80F006C6CCDF894A015AD76
:1051A00085E80F004B463A4671466046CDE91F86BA
:1051B000149407B0BDE8F04F04B027F0ABBF26B1A0
:1051C000D6F814E0BEF1000FD6D107B0BDE8F04F1D
:1051D00004B07047019301F0E3F8D5F814C0019BC7
:1051E000BCF1000FAED107B0BDE8F04F04B070477E
:1051F000B426CAE75A26C8E784B02DE9F0452DED5C
:10520000028B456993B01DAC84E80E000646219FD1
:105210009DF898809DF8C0409DF8C4A0B0EE408AEB
:10522000F0EE608A002D4AD0002F41D03F69002F58
:105230003ED0299B013B022B9BBF2B4A02EB8303F1
:105240000022D3F8DC202A9B022B4AD0032B45D026
:10525000012B40D02B9B012B3AD0022B35D027AB12
:1052600093E803000F942F9B2E9C0A920E930D94AB
:105270002D9A2C9B0C9208ACCDF840A00B9384E89F
:10528000030022AA0FCA03ACCDF81C8084E80F00EB
:105290000DF1780C9CE807008DE80700F0EE680A35
:1052A000B0EE480A1D9B726C3946284625F09EFBDD
:1052B00013B0BDEC028BBDE8F04504B0704701F0BF
:1052C0006FF87569002DF3D0AEE742F40032C6E7FF
:1052D00042F48032C3E742F48072BBE742F40072CA
:1052E000B8E742F44072B5E7E4DA030884B02DE988
:1052F000F041456990B017AC80461B9E9DF89C70AC
:1053000084E80E008DB15EB1D6F814C0BCF1000F78
:1053100006D01C9B002B03DBF3691C9A93420FDC25
:1053200010B0BDE8F04104B0704701F039F8D8F88A
:105330001450002DE7D110B0BDE8F04104B0704723
:1053400021AB93E80300DDE924260E97239B269FDB
:105350000D9708AF0C96CDE90A3287E803001DAE21
:1053600096E80F0004AE86E80F0094E80F008DE881
:105370000F006146D8F844201C9B284626F06AFAA4
:1053800010B0BDE8F04104B0704700BF84B02DE913
:10539000F04145698CB013AC80469DF87C6084E890
:1053A0000E00F5B117AB0FCB1E9F0A9609971D9EF5
:1053B0001C9F089607971B9E069602AF87E80F0072
:1053C00015AE96E8030094E80C008DE8030028462B
:1053D000D8F8441022F0F0FE0CB0BDE8F04104B063
:1053E000704700F0DDFFD8F81450002DDAD10CB072
:1053F000BDE8F04104B07047036903B9704710B5C8
:105400000446184623F04CF90023236110BD00BF69
:10541000F0B52DED068B83B06D4604460E4617465B
:105420000146154A2846B0EE408AF0EE608AB0EE9A
:10543000419AF0EE619AB0EE42AAF0EE62AA17F03D
:10544000D3FD95E80300224617F0FAFD20693A469D
:10545000F0EE6A2AB0EE4A2AF0EE691AB0EE491A66
:10546000F0EE680AB0EE480A314603B0BDEC068B98
:10547000BDE8F04023F048BCE14F000870B582B0B1
:1054800004466D460E4628462146074A17F0ACFDF5
:1054900095E80300224617F0D3FD2069314602B09B
:1054A000BDE8704023F04ABEE14F000870B52DED15
:1054B000028B82B004466D460E46284621460C4AB1
:1054C000B0EE408AF0EE608A17F08EFD95E803009A
:1054D000224617F0B5FD2069F0EE680AB0EE480AE2
:1054E000314602B0BDEC028BBDE8704023F0A0B99C
:1054F000E14F0008006908B90120704723F012B994
:1055000030B5012904460069B8BF012183B00D46BA
:1055100020B123F007F9A84217D0206923F0C0F882
:10552000284623F06DF86D46206121462846084A3A
:1055300017F05AFD95E80300224617F081FD206917
:10554000003018BF012003B030BD012003B030BDD2
:10555000E14F0008F0B503690B4383B004460E46E3
:10556000174602D10121FFF7CBFF6D4628462146A1
:10557000074A17F039FD95E80300224617F060FD51
:1055800020693A46314603B0BDE8F04023F0CEB87A
:10559000E14F0008F8B590ED077ADFEDDF7A456955
:1055A0002DED0E8B90ED068A38EE478A0446B4EE58
:1055B000E78AF1EE10FA4FF0020107DADFEDD47A54
:1055C000B4EEE78AF1EE10FA00F2AA802046FFF767
:1055D00097FF002D7DD09FEDD08AD4ED0B8AF5EE9C
:1055E000408AF1EE10FA00F08D80D4ED0A7AF5EEE3
:1055F000407AF1EE10FA00F08580266BB31E032B83
:1056000000F2AB8094ED097AF4EEC78AF1EE10FA5D
:1056100078D9D4ED086AF4EEE67AF1EE10FA71D991
:10562000DFEDBD7AB4EE678AF1EE10FA40F0DB8070
:10563000B5EE407AF1EE10FA00F0B280F5EE406A75
:10564000F1EE10FA00F0AC80B5EEC07AF1EE10FA8F
:1056500040F3C980F5EEC06AF1EE10FA40F3C38062
:105660006E1C324600212046FFF774FF32460121AE
:105670002046FFF76FFF9FEDA92AD4ED0A1A94ED9B
:105680000B1ADFEDA52A2A46F0EE420AB0EE420AD6
:1056900000212046FFF7BCFEDFEDA02AD4ED081A5A
:1056A00094ED091A9FED9C2A2A46F0EE620AB0EEAC
:1056B000620A01212046FFF7ABFE20460021FFF7DA
:1056C000DDFEBDEC0E8B20460121BDE8F840FFF762
:1056D000D5BE94ED0B7AD4ED0A7A9FED8F8AF4EE65
:1056E000C77AF1EE10FA2ADDFDEEE77A17EE905A4E
:1056F000002DB8BF6D420135B5EE408AF1EE10FACB
:105700007FF46BAF002211462046FFF723FFBDEC6C
:105710000E8B204600220121BDE8F840FFF71ABF9A
:10572000FFF7EEFE002DE7D194ED0B7AD4ED0A7A67
:10573000F4EE477AF1EE10FAC8BFB0EE677ADFED0B
:10574000766AB4EE668AF1EE10FA16BF27EE087A92
:10575000F0EE477AC7EE267AC6E7DFED6F7AB4EE51
:10576000678AF1EE10FA1BD0002E00F0A381012E03
:1057700040F09D816A1C00212046FFF7EBFE0022CD
:1057800031462046FFF7E6FE94ED072ADFED630A77
:10579000D4ED0A1A94ED0B1A2A4672EE082AF2E0AA
:1057A0006A1C00212046FFF7D5FE00220121204679
:1057B000FFF7D0FE9FED592ADFED572AD4ED0A1AE4
:1057C00094ED0B1A2A46F0EE420AB0EE420A00218E
:1057D0002046FFF71DFEBDEC0E8B20460021BDE8E4
:1057E000F840FFF74BBE022E00F09A80042E40F0E6
:1057F000CD80B5EE407AF1EE10FA00F07182F5EE50
:10580000406AF1EE10FA00F06B8294ED070A02F0A4
:1058100001FFF0EE408A94ED070A02F003FFD4ED99
:1058200008AA94ED09AA94ED0A7AD4ED0B7A68EEF1
:10583000AAAA20EE0AAAF0EE6A9AD7EE289AB0EE4B
:105840004A9A97EE809A29EEA90AA9EE090A02F06F
:1058500005FFF5EE007A60EE277A0021FDEEE77A8B
:10586000204617EE906A033606EB45020232F0EE50
:10587000408AFFF76FFE002201212046FFF76AFEF3
:10588000B5EEC08A94ED072ADFED240AD4ED0A1A9A
:1058900094ED0B1AF1EE10FA72EE082AB0EE600ADF
:1058A0002A464FF000012046C0F2A483FFF7B0FD66
:1058B00094ED062ADFED190AD4ED081A94ED091AC1
:1058C00072EE482A2A46B0EE600A00212046FFF711
:1058D0009FFDF6EE007A94ED077ADFED0F2A9FED3B
:1058E0000D2A68EEA71AF0EE6A0AB0EE4A0A3246AE
:1058F000E9EEA70A00212046A9EE270AB0EE611AB8
:1059000077EE222A37EE022AFFF782FD63E700BF17
:105910000000B4C3000034430000B44300000000A2
:10592000B5EE407AF1EE10FA00F0BA81F5EE406A79
:10593000F1EE10FA00F0B4816A0001320021204635
:10594000FFF708FE002201212046FFF703FE94ED39
:10595000072A5FED0E0AD4ED0A1A94ED0B1A72EEC7
:10596000082AB0EE600A2A4600212046FFF750FDC3
:1059700094ED062A5FED170AD4ED081A94ED091A82
:1059800072EE482A2A46B0EE600A20E7052E40F063
:10599000B080B5EE407AF1EE10FA00F0F381F5EE4A
:1059A000406AF1EE10FA00F0ED8194ED07AA38EEAE
:1059B0000AAAB0EE4A0A02F02DFEF0EE408AB0EEDE
:1059C0004A0A02F02FFE94ED08BAD4ED09AA94ED2C
:1059D0000A7AD4ED0B7A28EE8BBA60EE2AAAF0EEA2
:1059E0004B9AD7EE289AB0EE6A9A97EE809A29EEF3
:1059F000A90AA9EE090A02F031FEF5EE007A60EE7E
:105A0000277A0021FDEEE77A204617EE906A0336EA
:105A100006EB45020232F0EE408AFFF79BFD0022C2
:105A200001212046FFF796FDB5EEC08A94ED072AC6
:105A30005FED460AD4ED0A1A94ED0B1AF1EE10FA56
:105A400072EE082AB0EE600A2A464FF000012046A6
:105A5000C0F2FE82FFF7DCFCF6EE007AF0EE4B0AB5
:105A6000B0EE6A0A5FED552AE9EEA70A3246002138
:105A7000A9EE270A204668EEA71A7AEE222AB0EE8F
:105A8000611AB0EE4A2AFFF7C3FC94ED062A5FEDD7
:105A90005D0AD4ED081A94ED091A2A4672EE482AD6
:105AA000B0EE600A00212046FFF7B2FC93E6BDECA1
:105AB0000E8BF8BD6A1C31462046FFF74BFD32467F
:105AC00001212046FFF746FD94ED072A5FED6D0AA0
:105AD000D4ED0A1A94ED0B1A72EE082ABDEC0E8B67
:105AE0002A4631462046B0EE600ABDE8F840FFF78E
